:0330000002300695
:03305F0002300339
:033003000231A2F5
:10306200AF83E582900402F0EFA3F0900402E0FE49
:10307200A3E0FF8E9910990280FB8E828F8322102B
:10308200980280FBAE997F008E828F8322740AC0E1
:10309200E0744AC0E07480C0E0123FA81581158137
:1030A200158174BCC0E0744AC0E07480C0E0123F75
:1030B200A815811581158174FDC0E0744AC0E074C1
:1030C20080C0E0123FA81581158115812274AEC01F
:1030D200E0744BC0E07480C0E0123FA815811581F6
:1030E20015817464C0E0744CC0E07480C0E0123F8B
:1030F200A815811581158174A8C0E0744CC0E074D4
:1031020080C0E0123FA8158115811581745CC0E072
:10311200744DC0E07480C0E0123FA815811581157E
:103122008174A0C0E0744DC0E07480C0E0123FA87A
:1031320015811581158174E4C0E0744DC0E074807E
:10314200C0E0123FA81581158115817428C0E07472
:103152004EC0E07480C0E0123FA815811581158130
:10316200746CC0E0744EC0E07480C0E0123FA815D9
:10317200811581158174B0C0E0744EC0E07480C0C6
:10318200E0123FA815811581158174F4C0E0744ED8
:10319200C0E07480C0E0123FA8158115811581221C
:1031A2005390F75390EF12308F1230CF123A4A12E7
:1031B2003081AE828E057F00C006C005C00774A8AC
:1031C200C0E0744FC0E07480C0E0123FA8E58124E3
:1031D200FBF58174B1C0E0744FC0E07480C0E012AE
:1031E2003FA8158115811581D006BE3F030232D258
:1031F200BE48030232F3BE52028076BE57028009F5
:10320200BE58030232D802335D74B4C0E0744FC0BA
:10321200E07480C0E0123FA8158115811581123338
:1032220075AE82AF83900457E0F5F0A3E045F070ED
:103232000C9004577401F0E4A3F00231B1C007C04E
:103242000612358EAD82D006D007900459E0F5F013
:10325200A3E045F0700C9004597401F0E4A3F0026D
:1032620031B190040FEDF08E828F83123707023155
:10327200B17426C0E07450C0E07480C0E0123FA870
:10328200158115811581123375AE82AF8390045773
:10329200E0F5F0A3E045F0700C9004577401F0E4FF
:1032A200A3F00231B1C007C006C006C007749AC0BD
:1032B200E07450C0E07480C0E0123FA8E58124FBB6
:1032C200F581D006D0078E828F831238490231B140
:1032D2001230CF0231B174C6C0E07450C0E07480C5
:1032E200C0E0123FA8158115811581123D560231A9
:1032F200B1742FC0E07451C0E07480C0E0123FA8E6
:10330200158115811581123375AE82AF83900457F2
:10331200E0FCA3E0FD900457E0F5F0A3E045F07077
:103322000C9004577401F0E4A3F00231B1EC4D703B
:103332000C9004577401F0E4A3F00231B1C007C04D
:1033420006123375AC82AD83D006D007900418EC18
:10335200F0EDA3F08E828F83123A5F74A1C0E07405
:1033620051C0E07480C0E0123FA81581158115811B
:103372000231B174B1C0E07451C0E07480C0E01297
:103382003FA8158115811581900404E4F09004058D
:10339200F0900406F0900407F074E2C0E07451C0AB
:1033A200E07480C0E0123FA81581158115817E006E
:1033B2007F00C3EE9403EF64809480505BC007C02B
:1033C20006123081AC82AD83D006D007BC0D0280DC
:1033D20047BC0A028042BC30004005EC24C65014AF
:1033E200BC61004005EC2499500ABC410040C3EC8A
:1033F20024B940BEEE2404F582EF3404F583ECF0E8
:103402007D008C828D83C007C006123062D006D048
:10341200070EBE009D0F809AEE2404F582EF34045D
:10342200F583E4F0900408F0A3F07E007F00EE2420
:1034320004F582EF3404F583E0FD70030234E99071
:103442000408E0FBA3E0C454F0CBC4CB6BCB54F034
:10345200CB6BFC900408EBF0ECA3F0BD30004023F2
:10346200ED24C6401E7C00ED24D0FDEC34FFFC9020
:103472000408E0FAA3E0FB900408ED2AF0EC3BA379
:10348200F0805CEE2404F582EF3404F583E0FDBDA8
:1034920041004025ED24B940208D037C0074C92BE6
:1034A200FB74FF3CFC900408E0F9A3E0FA900408E6
:1034B200EB29F0EC3AA3F08026BD61004021ED2417
:1034C20099401C7C0074A92DFD74FF3CFC900408FB
:1034D200E0FAA3E0FB900408ED2AF0EC3BA3F00E27
:1034E200BE00010F023430900408E0FEA3E0FFC0EA
:1034F20007C006C006C00774E7C0E07451C0E0749C
:1035020080C0E0123FA8E58124FBF581D006D007F8
:10351200C374FF9E74079F505F7407C0E07452C06B
:10352200E07480C0E0123FA8158115811581748E68
:10353200C0E07452C0E07480C0E0123FA81581154B
:1035420081158174BFC0E07452C0E07480C0E01283
:103552003FA815811581158174F0C0E07452C0E056
:103562007480C0E0123FA81581158115819004571F
:10357200E4F0A3F090000022900408EEF0E4A3F03F
:10358200900408E0FEA3E08E82F583227477C0E007
:103592007453C0E07480C0E0123FA81581158115F4
:1035A2008190040AE4F090040BF090040CF0900473
:1035B2000DF074A5C0E07453C0E07480C0E0123F07
:1035C200A81581158115817E007F00C3EE9403EF5B
:1035D20064809480505BC007C006123081AC82AD1B
:1035E20083D006D007BC0D028047BC0A028042BCD1
:1035F20030004005EC24C65014BC61004005EC24A8
:1036020099500ABC410040C3EC24B940BEEE240AE2
:10361200F582EF3404F583ECF07D008C828D83C05B
:1036220007C006123062D006D0070EBE009D0F8082
:103632009AEE240AF582EF3404F583E4F090040E46
:10364200F07E007F00EE240AF582EF3404F583E079
:10365200FD70030236BA90040EE0C454F0FCF0BDD3
:1036620030004012ED24C6400DED24D0FD90040E32
:10367200E0FC2DF0803AEE240AF582EF3404F58363
:10368200E0FDBD41004014ED24B9400F8D0474C922
:103692002CFC90040EE0FB2CF08015BD6100401064
:1036A200ED2499400B74A92DFD90040EE0FC2DF041
:1036B2000EBE00010F02364790040EE0FFFD7E00B1
:1036C200C007C005C00674A8C0E07453C0E074808F
:1036D200C0E0123FA8E58124FBF581D007EF240169
:1036E200502074C5C0E07453C0E07480C0E0123F43
:1036F200A8158115811581900459E4F0A3F0758213
:1037020000228F8222AF83E582900410F0EFA3F0B3
:10371200123A4A90045BE0FEA3E04306A08E8212B6
:10372200395DE5828583F045F0701C74D9C0E07480
:1037320053C0E07480C0E0123FA815811581158145
:10374200123D4990000022900410E0FEA3E0FF8E9B
:10375200058D82C007C00612395DE5828583F0D0EF
:1037620006D00745F0701C7404C0E07454C0E074C5
:1037720080C0E0123FA8158115811581123D499044
:1037820000002290040FE0FDF582C007C006C005CC
:1037920012395DE5828583F0D005D006D00745F069
:1037A200701C7427C0E07454C0E07480C0E0123F03
:1037B200A8158115811581123D4990000022C0078C
:1037C200C006C005123D49D005D006D0077B007C5B
:1037D20000C3EB940AEC64809480501EC007C006BC
:1037E200C005C004C003123D82D003D004D005D06E
:1037F20006D0070BBB00DA0C80D77C00C005C004E2
:10380200C006C0077440C0E07454C0E07480C0E0D9
:10381200123FA8E58124F9F5817475C0E07454C0A3
:10382200E07480C0E0123FA815811581158174AD46
:10383200C0E07454C0E07480C0E0123FA815811546
:1038420081158190000122AF83E582900412F0EF8E
:10385200A3F0123A4A7582A012395DE5828583F09F
:1038620045F0701C7443C0E07455C0E07480C0E041
:10387200123FA8158115811581123D4990FFFF2243
:10388200900412E0FEA3E0FF8E058D82C007C00601
:1038920012395DE5828583F0D006D00745F0701CB1
:1038A2007404C0E07454C0E07480C0E0123FA815F4
:1038B2008115811581123D4990FFFF22C007C00684
:1038C200123A4A7582A112395DE5828583F0D006EB
:1038D200D00745F0701C7473C0E07455C0E074806A
:1038E200C0E0123FA8158115811581123D4990FF54
:1038F200FF22900000C007C0061239C5AC82D00674
:10390200D0077D00C005C004C004C005C006C007C2
:1039120074A2C0E07455C0E07480C0E0123FA8E514
:103922008124F9F58174B7C0E07455C0E07480C099
:10393200E0123FA815811581158174ADC0E0745461
:10394200C0E07480C0E0123FA81581158115811274
:103952003D49D004D0058C828D8322E582900414E7
:10396200F07E007F00900414E0FD23540124FF92B6
:1039720094C007C006C005123D82D293123D82D088
:1039820005D006D007C293ED2D900414F00EBE00B0
:10399200010FC374079EE49F50CBD294D293123D81
:1039A2008230941974E2C0E07455C0E07480C0E0C3
:1039B200123FA815811581158190000022C29390B3
:1039C200000122AF83E582900415F0EFA3F090048A
:1039D20017E4F0C2937E007F00C3EE9408EF648088
:1039E20094805040D293C007C006123D82D006D0C8
:1039F20007A294E433FD8E047407C39CFC8CF0058B
:103A0200F0ED800225E0D5F0FBFC900417E04CF0CD
:103A1200C007C006123D82D006D007C2930EBE0078
:103A2200B80F80B5900415E0FEA3E04EB40100E4A7
:103A32003324FF9294D293123D82C293900417E0F2
:103A4200FF7E008F828E8322123D82D294123D82AB
:103A5200D293123D82C294123D82C29322AF83E579
:103A62008290041AF0EFA3F074F7C0E07455C0E03E
:103A72007480C0E0123FA815811581158174FAC0C7
:103A8200E07455C0E07480C0E0123FA81581158132
:103A92001581743DC0E07456C0E07480C0E0123FEE
:103AA200A81581158115817480C0E07456C0E07438
:103AB20080C0E0123FA815811581158190041AE09B
:103AC200FEA3E0FF90041CEEF0EFA3F0900418E0D8
:103AD200FEA3E0FF90041CE0FCA3E0FDC3EE9CEF1C
:103AE2009D5003023C97C007C006C004C00574C5C0
:103AF200C0E07456C0E07480C0E0123FA8E58124A3
:103B0200FBF581D006D0077C007D00C3EC9410ED5C
:103B1200648094804003023C6090041CE0FAA3E0BD
:103B2200FB8A088B098C008D01E82508F8E9350924
:103B3200F9C3EE98EF995003023C33C007C006C0A8
:103B420005C004C003C002123A4A7582A012395D50
:103B5200E5828583F0D002D003D004D005D006D010
:103B62000745F0701C7443C0E07455C0E07480C017
:103B7200E0123FA8158115811581123D4990FFFF82
:103B8200228A82C007C006C005C00412395DE582E0
:103B92008583F0D004D005D006D00745F0701C74A0
:103BA20004C0E07454C0E07480C0E0123FA81581E4
:103BB20015811581123D4990FFFF22C007C006C042
:103BC20005C004123A4A7582A112395DE5828583E5
:103BD200F0D004D005D006D00745F0701C7473C035
:103BE200E07455C0E07480C0E0123FA815811581D1
:103BF2001581123D4990FFFF22900000C007C006C8
:103C0200C005C0041239C5AA827B00C002C0037479
:103C1200CCC0E07456C0E07480C0E0123FA8E581D9
:103C220024FBF581123D49D004D005D006D007808F
:103C320025C007C006C005C00474D2C0E07456C0D7
:103C4200E07480C0E0123FA8158115811581D0046F
:103C5200D005D006D0070CBC00010D023B0DC007F9
:103C6200C00674F7C0E07455C0E07480C0E0123F33
:103C7200A8158115811581D006D00790041CE0FC9F
:103C8200A3E0FD74102CFCE43DFD90041CECF0ED6F
:103C9200A3F0023AD674F7C0E07455C0E07480C055
:103CA200E0123FA81581158115819000012274D67A
:103CB200C0E07456C0E0123E511581158112337571
:103CC200AE82AF838E048F057E007F00C374FF9C9B
:103CD20074079DE49EE49F50167402C0E07457C0BE
:103CE200E07480C0E0123FA815811581158122C0C1
:103CF20007C006C005C004745AC0E07457C0E01281
:103D02003E5115811581123375AA82AB83D004D03E
:103D120005D006D0078A008B01C374FF98740799F7
:103D220050167484C0E07457C0E07480C0E0123F43
:103D3200A815811581158122900418EAF0EBA3F0F1
:103D42008C828D83023A5FC294123D82D293123DDD
:103D520082D29422123A4AC294D2947E007F00C345
:103D6200EE940AEF64809480500BC293D2930EBEFD
:103D720000ED0F80EA123A4AC294123D49D29422CF
:103D82007E007F00C3EE94F4EF6480948150070EAE
:103D9200BE00F10F80EE22123A4A123D827402C036
:103DA200E0E4C0E07426C0E0E4C0E074DAC0E0748D
:103DB20057C0E07480C0E0123FA8E58124F9F58184
:103DC20090040F7426F0900002123707123D497ECC
:103DD200007F00C3EE9464EF648094805012C007A9
:103DE200C006123D82D006D0070EBE00E60F80E369
:103DF200900002123849AE828E057F00C006C005CF
:103E0200C0077402C0E0E4C0E07402C0E07458C0AD
:103E1200E07480C0E0123FA8E58124F9F581D00664
:103E2200BE2616742AC0E07458C0E07480C0E01246
:103E32003FA815811581158122744BC0E07458C0CA
:0F3E4200E07480C0E0123FA81581158115812220
:104A0A000AE29594E29590E29590E29590E295906B
:104A1A00E29590E29590E29590E29590E29590E287
:104A2A009590E29590E29590E29590E29590E295C4
:104A3A0090E29590E29590E29590E29590E29590B9
:104A4A00E29590E29590E29590E29590E29590E257
:104A5A009590E29590E29590E29590E29590E29594
:104A6A0090E29590E29590E29590E29590E2959089
:104A7A00E29590E29590E29590E29590E29590E227
:104A8A009590E29590E29590E29590E29590E29564
:104A9A0090E29590E29590E29590E29590E2959059
:104AAA00E29590E29590E29590E29590E295970AC8
:104ABA000D00E29591202020202020202020202077
:104ACA00493243204D656D6F7279204D616E616781
:104ADA00656D656E742053797374656D2076312E19
:104AEA0030202020202020202020202020E2959104
:104AFA000A0D00E2959AE29590E29590E29590E28D
:104B0A009590E29590E29590E29590E29590E295E3
:104B1A0090E29590E29590E29590E29590E29590D8
:104B2A00E29590E29590E29590E29590E29590E276
:104B3A009590E29590E29590E29590E29590E295B3
:104B4A0090E29590E29590E29590E29590E29590A8
:104B5A00E29590E29590E29590E29590E29590E246
:104B6A009590E29590E29590E29590E29590E29583
:104B7A0090E29590E29590E29590E29590E2959078
:104B8A00E29590E29590E29590E29590E29590E216
:104B9A009590E29590E29590E29590E29590E29553
:104BAA009D0A0D000A0DE2948CE29480E29480E260
:104BBA009480E29480E29480E29480E29480E29489
:104BCA0080E29480E29480E29480E29480E294AC61
:104BDA00E29480E29480E29480E29480E29480E21B
:104BEA009480E29480E29480E29480E29480E29459
:104BFA0080E29480E29480E29480E29480E294805D
:104C0A00E29480E29480E29480E29480E29480E2EA
:104C1A009480E29480E29480E29480E29480E29428
:104C2A0080E29480E29480E29480E29480E294802C
:104C3A00E29480E29480E29480E29480E29480E2BA
:104C4A009480E29480E29480E29480E29480E294F8
:104C5A0080E29480E294900A0D00E294822020433C
:104C6A006F6D6D616E64202020E2948220202020E6
:104C7A0020202020202020202020204465736372D9
:104C8A00697074696F6E2020202020202020202047
:104C9A002020202020202020E294820A0D00E29485
:104CAA009CE29480E29480E29480E29480E2948090
:104CBA00E29480E29480E29480E29480E29480E23A
:104CCA009480E29480E294BCE29480E29480E2943C
:104CDA0080E29480E29480E29480E29480E294807C
:104CEA00E29480E29480E29480E29480E29480E20A
:104CFA009480E29480E29480E29480E29480E29448
:104D0A0080E29480E29480E29480E29480E294804B
:104D1A00E29480E29480E29480E29480E29480E2D9
:104D2A009480E29480E29480E29480E29480E29417
:104D3A0080E29480E29480E29480E29480E294801B
:104D4A00E29480E29480E29480E29480E294A40A5D
:104D5A000D00E294822020202020522020202020B2
:104D6A0020E2948220526561642066726F6D206130
:104D7A006464726573732020202020202020202064
:104D8A002020202020202020202020202020202019
:104D9A00E294820A0D00E2948220202020205720EB
:104DAA002020202020E294822057726974652064B2
:104DBA0061746120746F206164647265737320206A
:104DCA0020202020202020202020202020202020D9
:104DDA0020202020E294820A0D00E29482202020E2
:104DEA00202048202020202020E294822044697339
:104DFA00706C6179206865782064756D7020202058
:104E0A002020202020202020202020202020202098
:104E1A002020202020202020E294820A0D00E29403
:104E2A0082202020202058202020202020E2948246
:104E3A00205265736574206D656D6F727920737980
:104E4A007374656D2020202020202020202020201F
:104E5A00202020202020202020202020E294820AC6
:104E6A000D00E2948220202020203F2020202020B4
:104E7A0020E2948220446973706C617920746869B5
:104E8A00732068656C70206D656E75202020202067
:104E9A002020202020202020202020202020202008
:104EAA00E294820A0D00E2948220202020205120E0
:104EBA002020202020E2948220517569742070728B
:104ECA006F6772616D202020202020202020202062
:104EDA0020202020202020202020202020202020C8
:104EEA0020202020E294820A0D00E29494E2948029
:104EFA00E29480E29480E29480E29480E29480E2F8
:104F0A009480E29480E29480E29480E29480E29435
:104F1A0080E294B4E29480E29480E29480E2948005
:104F2A00E29480E29480E29480E29480E29480E2C7
:104F3A009480E29480E29480E29480E29480E29405
:104F4A0080E29480E29480E29480E29480E2948009
:104F5A00E29480E29480E29480E29480E29480E297
:104F6A009480E29480E29480E29480E29480E294D5
:104F7A0080E29480E29480E29480E29480E29480D9
:104F8A00E29480E29480E29480E29480E29480E267
:104F9A009480E29480E29480E294980A0D007C2046
:104FAA00242025630A0D000A0D000AE2948CE2947B
:104FBA0080E29480E29480E29480E29480E2948099
:104FCA00E29480E29480E29480E29480E29480E227
:104FDA009480E29480E29480E2948020575249546B
:104FEA0045204F5045524154494F4E20E29480E2A9
:104FFA009480E29480E29480E29480E29480E29445
:10500A0080E29480E29480E29480E29480E2948048
:10501A00E29480E29480E294900A0D000AE2948C71
:10502A00E29480E29480E29480E29480E29480E2C6
:10503A009480E29480E29480E29480E29480E29404
:10504A0080E29480E29480E29480E2948020524547
:10505A004144204F5045524154494F4E20E29480DA
:10506A00E29480E29480E29480E29480E29480E286
:10507A009480E29480E29480E29480E29480E294C4
:10508A0080E29480E29480E29480E294900A0D0097
:10509A007C2052656164696E672066726F6D20417B
:1050AA006464726573732030782530335820202069
:1050BA0020202020202020207C0A0D000AE2948C47
:1050CA00E29480E29480E29480E29480E29480E226
:1050DA009480E29480E29480E29480E29480E29464
:1050EA0080E29480E29480E29480E29480205245A7
:1050FA00534554204F5045524154494F4E20E29453
:10510A0080E29480E29480E29480E29480E2948047
:10511A00E29480E29480E29480E29480E29480E2D5
:10512A0094900A0D000AE2948CE29480E29480E260
:10513A009480E29480E29480E29480E29480E29403
:10514A0080E29480E29480E29480E29480E2948007
:10515A00204845582044554D50204F5045524154FF
:10516A00494F4E20E29480E29480E29480E2948057
:10517A00E29480E29480E29480E29480E29480E275
:10518A009480E29480E29480E29480E29480E294B3
:10519A0080E294900A0D00494E56414C49442049F8
:1051AA004E5055540A0D00E2948220456E74657281
:1051BA00206164647265737320286865782C207591
:1051CA007020746F20332063686172616374657242
:1051DA0073293A200A0D7C007C202420000A0DE263
:1051EA00948220456E746572656420616464726598
:1051FA0073733A203078253033580A0D00E29594BB
:10520A00E29590E29590E29590E29590E29590E28F
:10521A009590E29590E29590E29590E29590E295CC
:10522A0090E29590E29590E29590E29590E29590C1
:10523A00E29590E29590E29590E29590E29590E25F
:10524A009590E29590E29590E29590E29590E2959C
:10525A0090E29590E29590E29590E29590E2959091
:10526A00E29590E29590E29590E29590E29590E22F
:10527A009590E29590E29590E29590E29590E2956C
:10528A00970A0D00E295912020202020202021203D
:10529A0041444452455353204F5554204F462052BF
:1052AA00414E47452021202020202020202020E296
:1052BA0095910A0D00E295912020202020506C65DE
:1052CA0061736520456E7465722056616C6964204D
:1052DA0041646472657373202020202020202020DE
:1052EA00E295910A0D00E2959AE29590E29590E294
:1052FA009590E29590E29590E29590E29590E295EC
:10530A0090E29590E29590E29590E29590E29590E0
:10531A00E29590E29590E29590E29590E29590E27E
:10532A009590E29590E29590E29590E29590E295BB
:10533A0090E29590E29590E29590E29590E29590B0
:10534A00E29590E29590E29590E29590E29590E24E
:10535A009590E29590E29590E29590E29590E2958B
:10536A0090E29590E29590E2959D0A0D00E2948272
:10537A0020456E74657220646174612028686578BE
:10538A002C20757020746F2032206368617261630B
:10539A0074657273293A200A0D7C002420000A0DD4
:1053AA00E2948220456E746572656420646174615A
:1053BA003A203078253032580A0D00446174612051
:1053CA006F7574206F662052616E67650A0D00451D
:1053DA0072726F723A204E6F2041434B20666F7291
:1053EA0020646576696365206164647265737320FD
:1053FA00287772697465290A0D004572726F723ACC
:10540A00204E6F2041434B20666F72206D656D6F91
:10541A00727920616464726573730A0D0045727251
:10542A006F723A204E6F2041434B20666F722064A0
:10543A006174610A0D007C2057726974696E672075
:10544A006174204164647265737320307825303347
:10545A005820446174612030782530325820202049
:10546A00202020202020207C0A0D00E29482205750
:10547A0072697465207375636365737366756C21ED
:10548A002020202020202020202020202020202012
:10549A0020202020202020202020202020E294826A
:1054AA000A0D00E29494E29480E29480E29480E20D
:1054BA009480E29480E29480E29480E29480E29480
:1054CA0080E29480E29480E29480E29480E2948084
:1054DA00E29480E29480E29480E29480E29480E212
:1054EA009480E29480E29480E29480E29480E29450
:1054FA0080E29480E29480E29480E29480E2948054
:10550A00E29480E29480E29480E29480E29480E2E1
:10551A009480E29480E29480E29480E29480E2941F
:10552A0080E29480E29480E29480E29480E2948023
:10553A00E29480E294980A0D004572726F723A20E2
:10554A004E6F2041434B20666F7220646576696313
:10555A006520616464726573732028777269746563
:10556A00206D6F6465290A0D004572726F723A20C8
:10557A004E6F2041434B20666F72206465766963E3
:10558A0065206164647265737320287265616420A2
:10559A006D6F6465290A0D007C20307825303358F8
:1055AA00203A20307825303258200A0D00E29482C1
:1055BA002052656164207375636365737366756CE5
:1055CA0021202020202020202020202020202020D0
:1055DA002020E294820A0D0041434B204449442092
:1055EA004E4F54204152524956450A0D000D0A00A9
:1055FA000D0A2D2D2D2D2D2D2D2D2D2D2D2D2D2D14
:10560A002D2D2D2D2D2D2D2D2D2D2D2D2D2D2D2DC0
:10561A002D2D2D2D2D2D2D2D2D2D2D2D2D2D2D2DB0
:10562A002D2D2D2D2D2D2D2D2D2D2D2D2D2D2D2DA0
:10563A002D2D000D0A20202020202020202020208F
:10564A00202020202020202020454550524F4D2048
:10565A004865782044756D70202020202020202065
:10566A002020202020202020202020202020202030
:10567A002020202020000D0A2D2D2D2D2D2D2D2D01
:10568A002D2D2D2D2D2D2D2D2D2D2D2D2D2D2D2D40
:10569A002D2D2D2D2D2D2D2D2D2D2D2D2D2D2D2D30
:1056AA002D2D2D2D2D2D2D2D2D2D2D2D2D2D2D2D20
:1056BA002D2D2D2D2D2D2D2D0D0A00253033583A47
:1056CA002000253032582000202020001B5B313B6F
:1056DA0033336D0A0D456E746572205374617274AA
:1056EA00204164647265737320666F72204845585E
:1056FA002044756D700D0A001B5B313B33316D0A16
:10570A000D496E76616C696420537461727420412C
:10571A006464726573732052616E676521210A0D94
:10572A0020416464726573732068617320746F200A
:10573A006265206265747765656E20307830303036
:10574A0020746F2030783746461B5B306D0D0A0097
:10575A001B5B313B33336D0A0D456E746572204510
:10576A006E64204164647265737320666F722048A8
:10577A0045582044756D700D0A001B5B313B33316F
:10578A006D0A0D496E76616C696420456E6420412C
:10579A006464726573732052616E676521210A0D14
:1057AA0020416464726573732068617320746F208A
:1057BA006265206265747765656E203078303030B6
:1057CA0020746F2030783746461B5B306D0D0A0017
:1057DA0057726974696E6720646174612030782534
:1057EA0030325820746F206164647265737320309C
:1057FA0078253032580A0D0052656164206261636F
:10580A006B2066726F6D20616464726573732030F9
:10581A0078253032583A203078253032580A0D002F
:10582A004D41544348202D2057726974652F5265A3
:10583A006164207375636365737366756C210A0D01
:10584A00004552524F52202D2044617461206D69E7
:0A585A00736D61746368210A0D008C
:06586F0001000100000031
:06303500E478FFF6D8FD6F
:103013007906E94400601B7A0190586F785775A0D0
:1030230004E493F2A308B8000205A0D9F4DAF27518
:02303300A0FFFC
:103E5100C00A85810AE50A24FDF88683188682183E
:103E6100E493A324DB600C24256005123F3F80F01E
:103E7100023F57D2D5E493A3C083C082B4731486A2
:103E8100F0188683188682181249EA6054A3123FFB
:103E91003F80F5B4630818E618123F3F8043B464CD
:103EA10017E630E74618E6F42401F608E6F4340094
:103EB100F6742D123F3F8033B4782D8683188682A5
:103EC10018E4123F30E583123F2FE583123F30E5BE
:103ED10082123F2FE582123F3030D5057430123FF8
:103EE1003FD082D083023E61B475F6E6FA18E6F956
:103EF100187C107D27123F1AFF7CE87D03123F1AC0
:103F0100C4F5837C647D00123F1A4283E975F00A8F
:103F110084C445F0F582EF80A97B000BC3E99CF9CD
:103F2100EA9DFA50F61BE92CF9EA3DFAEB22C4545A
:103F31000F700320D51FC2D52490D43440D4C08340
:103F4100C082C0F0F582E8C0E0123062D0E0F8D063
:093F5100F0D082D08322D00A22B4
:10303B007800E84400600A790075A004E4F309D82D
:10304B00FC7857E84400600C7901900400E4F0A38D
:04305B00D8FCD9FACA
:103F5A00C00A85810A7E008E83123062D00A22AF9F
:103F6A00F0AE83E58290041FF0EEA3F0EFA3F09089
:103F7A00041FE0FDA3E0FEA3E0FF90041EE0FC9016
:103F8A000433E4F0A3F0A3F0900436EDF0EEA3F0CE
:103F9A00EFA3F0900439ECF0903F5A0240B1C00A06
:103FAA00E581F50A24FBFF900433E4F0A3F0A3F0C3
:103FBA00E50A24FBF8900436E6F008E6A3F008E6E2
:103FCA00A3F0900439EFF0903F5A1240B1D00A2280
:103FDA00E58290042FF0E0FF900425E0C0E0A3E022
:103FEA00C0E0A3E0C0E0123FF5800D900423E0C0DA
:103FFA00E0A3E0C0E08F822215811581158190042B
:10400A002DE02401F0A3E03400F022E58290043090
:10401A00F0E02430FF24C6500D74072FFF900422CD
:10402A00E060034307208F82023FDAE58290043181
:10403A00F0E0FFC4540FF582C007124015D00753B1
:10404A00070F8F82024015E582900432F09004280F
:10405A00E0FCA3E0FDA3E0FEA3E0FF90042CE0FB5C
:10406A00751520900432E0F98B00E828F8EF235404
:10407A000148FBEC2CFCED33FDEE33FEEF33FFC3BE
:10408A00EB994007EBC399FB430401E51514FA8A3F
:10409A001570D5900428ECF0EDA3F0EEA3F0EFA391
:1040AA00F090042CEBF022AF83E58290043AF0EF13
:1040BA00A3F090043AE0FEA3E0FF900423EEF0EFB1
:1040CA00A3F0900433E0FDA3E0FEA3E0FF900425F3
:1040DA00EDF0EEA3F0EFA3F090042DE4F0A3F0903E
:1040EA000436E0FDA3E0FEA3E0FF8D828E838FF00D
:1040FA001249EAFC90043674012DF0E43EA3F0EF75
:10410A00A3F0EC70030249A6BC2502800302499E73
:10411A0090043CE4F090043DF090043EF090043F9B
:10412A00F0900440F0900441F0900442F09004436F
:10413A00F0900445F0900446F0A3F090044814F07F
:10414A00A3F0900436E0FDA3E0FEA3E0FF8D828E8B
:10415A00838FF01249EAFBA3AD82AE83900436ED59
:10416A00F0EEA3F0EFA3F090044CEBF0BB25088B24
:10417A0082123FDA0240E9BB3000500302424AEBA6
:10418A0024C6500302424A900448E0F50BA3E0F526
:10419A000C74FFB50B63B50C60C005C006C0079070
:1041AA000446E0FAA3E0FF900455EAF0EFA3F0908A
:1041BA00000AC005C0031249CAAE82AF83D003D039
:1041CA00058B027D00EA2EFEED3FFFEE24D0FEEFC6
:1041DA0034FFFF900446EEF0EFA3F0D007D006D0EC
:1041EA0005900446E0F5F0A3E045F060030241576C
:1041FA0090043D7401F0024157C005C006C0079003
:10420A000455E50BF0E50CA3F090000AC006C005C2
:10421A00C0031249CAAA82AF83D003D005D0067E52
:10422A0000EB2AFAEE3FFFEA24D0FAEF34FFFF90C0
:10423A000448EAF0EFA3F0D007D006D005024157B0
:10424A0090044CE0FBBB2E2FC005C006C0079004AB
:10425A0048E0FAA3E0FFBAFF05BFFF028009D007D2
:10426A00D006D005024157D007D006D005900448A1
:10427A00E4F0A3F0024157BB61004014EB248540EF
:10428A000F90044C74DF5BF09004227401F08005F7
:10429A00900422E4F090044CE0FBBB20028075BB42
:1042AA002B028067BB2D028059BB4202806FBB4341
:1042BA0002807CBB4403024541BB4603024567BBFF
:1042CA004803024157BB4903024541BB4A03024125
:1042DA0057BB4C028050BB4F0302454FBB500302F1
:1042EA0044AFBB53028077BB5403024157BB55030B
:1042FA00024557BB580302455FBB5A0302415702A6
:10430A00456F90043C7401F002415790043E7401D9
:10431A00F002415790043F7401F002415790044162
:10432A007401F00241579004427401F0024157901F
:10433A000441E0600E900439E014F9F090044CE76F
:10434A00F0800F900439E024FEFFF08F0190044CB6
:10435A00E7F090044CE0F582123FDA02457E9004C1
:10436A0039E024FDFFF08F018705098706098707D1
:10437A001919900428EDF0EEA3F0EFA3F08D828EC8
:10438A00838FF01249B285820B85830C900448E032
:10439A00FAA3E0FDBAFF0DBDFF0A900448E50BF051
:1043AA00E50CA3F090043CE0704B900446E0FAA3BD
:1043BA00E0FDC3E50B9AE50C9D503A900446EAC32A
:1043CA00950BF0ED950CA3F0900446E0FAA3E0FDFE
:1043DA008A068D071ABAFF011DEE4F6010758220FA
:1043EA00C005C002123FDAD002D00580E39004462D
:1043FA00EAF0EDA3F0900448E0F50EA3E0F50F9083
:10440A000428E0FAA3E0FDA3E0FF8A828D838FF0FF
:10441A001249EAF50D603CC3E4950E7480850FF0ED
:10442A0063F08095F0502C150E74FFB50E02150F2F
:10443A00850D82123FDA900428E0FAA3E0FDA3E09A
:10444A00FF0ABA00010D900428EAF0EDA3F0EFA3E9
:10445A00F080AC90043CE0700302457E900446E094
:10446A00FEA3E0FFC3E50B9EE50C9F400302457ED9
:10447A00900446EEC3950BF0EF950CA3F09004461A
:10448A00E0FEA3E0FF8E028F051EBEFF011FEA4D6C
:10449A007003024576758220C007C006123FDAD043
:1044AA0006D00780E0900439E024FDFDF08D0187F5
:1044BA00100987110987121919900428E510F0E5E7
:1044CA0011A3F0E512A3F090042AE0FDBD8000409C
:1044DA000890044C7443F08020BD600040089004AA
:1044EA004C7450F08013BD4000400890044C74494D
:1044FA00F0800690044C7458F090044CE0FDF5826C
:10450A00C005123FDA75823A123FDA758230123FDD
:10451A00DA758278123FDAD005BD4902800EBD50A5
:10452A00028009900429E0F582124035900428E0BF
:10453A00F582124035803D9004407401F0900445A4
:10454A00740AF0802F9004457408F080279004457F
:10455A00740AF0801F9004457410F0801790044389
:10456A007401F0800F8B82123FDA8008900446EEC5
:10457A00F0EFA3F0900443E06071900439E024FC6A
:10458A00FFF08F018703098705098706098707193D
:10459A001919900428EBF0EDA3F0EEA3F0EFA3F0C5
:1045AA009004287464F07458A3F07480A3F0900403
:1045BA0028E0F510A3E0F511A3E0F5127401251027
:1045CA00FAE43511FBAF12900428EAF0EBA3F0EFFE
:1045DA00A3F08510828511838512F01249EAFF70D3
:1045EA00030240E98F82123FDA80C3900445E070EB
:1045FA00030240E9900441E06047900439E014F96D
:10460A00F087077E007D007B00900428EFF0EEA380
:10461A00F0EDA3F0EBA3F0900440E060030246C182
:10462A00900428E0FBA3E0A3E0A3E07D007E007FE6
:10463A0000900428EBF0EDA3F0EEA3F0EFA3F080D6
:10464A0076900442E06028900439E024FCFFF08F61
:10465A000187030987050987060987071919199028
:10466A000428EBF0EDA3F0EEA3F0EFA3F08048905E
:10467A000439E024FEFFF08F01870609870719EF46
:10468A003395E0FDFB900428EEF0EFA3F0EDA3F0E4
:10469A00EBA3F0900440E0701E900428E0FBA3E036
:1046AA00FDA3E0A3E07E007F00900428EBF0EDA3D9
:1046BA00F0EEA3F0EFA3F0900440E06041900428EC
:1046CA00E0FBA3E0FDA3E0FEA3E0FF30E72B9004AC
:1046DA0028E0FBA3E0FDA3E0FEA3E0FFC3E49BFB0D
:1046EA00E49DFDE49EFEE49FFF900428EBF0EDA319
:1046FA00F0EEA3F0EFA3F08005900440E4F09004FC
:10470A00447401F0900445E0F50E751352751404D3
:10471A00E4F50BF50C90042CE4F0850E821240515E
:10472A00900444E0702690042CE0C4F510851382AE
:10473A00851483E0FFE5104207851382851483EF11
:10474A00F0151374FFB513021514800C90042CE0B5
:10475A00FF851382851483F0050BE4B50B02050C63
:10476A00900444E0B40100E433F0900428E0FAA392
:10477A00E0FBA3E0FEA3E0FFEA4B4E4F70979004E4
:10478A0053E513F0E514A3F090044AE50BF0E50CA9
:10479A00A3F0900446E0F5F0A3E045F07009900418
:1047AA00467401F0E4A3F090043DE0FFE070479006
:1047BA00043CE07041850B13850C14900446E0FA22
:1047CA00A3E0FBC007AF130F8F067F00C3EE9AEF7B
:1047DA009BD0075019758220C007C003C002123F40
:1047EA00DAD002D003D0071ABAFF011B80D5900491
:1047FA0046EAF0EBA3F0900440E0602075822DC0F9
:10480A0007123FDAD007900446E024FFFDA3E03404
:10481A00FFFE900446EDF0EEA3F0805690044AE0C5
:10482A00F5F0A3E045F0604A90043EE0602075820E
:10483A002BC007123FDAD007900446E024FFFDA3FD
:10484A00E034FFFE900446EDF0EEA3F080249004DD
:10485A003FE0601E758220C007123FDAD00790043D
:10486A0046E024FFFDA3E034FFFE900446EDF0EE9F
:10487A00A3F090043CE0704890044AE0F513A3E0EA
:10488A00F514900446E0FAA3E0FBC0078A068B07FA
:10489A001ABAFF011BC3E5139EE5149FD0075053B4
:1048AA00EF60067D307E0080047D207E008D82C010
:1048BA0007C003C002123FDAD002D003D00780CA71
:1048CA00900446E0FEA3E0FF90044AE0F513A3E05B
:1048DA00F514C3E5139EE5149F500F900446EEC3EA
:1048EA009513F0EF9514A3F08011900446E4F0A319
:1048FA00F08008900446EAF0EBA3F0900453E0FE3F
:10490A00A3E0FF90044AE0F513A3E0F514AA13AD5F
:10491A0014151374FFB513021514EA4D604590047B
:10492A0044E0B40100E433F0900444E070140EBE95
:10493A0000010F8E828F83E0C4540FFD90042CF087
:10494A00800E8E828F83E0FD53050F90042CEDF0CC
:10495A0090042CE0F582C007C006124015D006D09C
:10496A000780AA90043CE070030240E9900446E004
:10497A00FEA3E0FF8E038F051EBEFF011FEB4D70E5
:10498A00030240E9758220C007C006123FDAD0064A
:10499A00D00780E08C82123FDA0240E990042DE0D1
:0849AA00FEA3E08E82F58322DA
:0B5864003C4E4F20464C4F41543E008C
:1049B200AA82AB831249EA6003A380F8C3E5829A14
:1049C200F582E5839BF58322AA83AB828BF0900468
:1049D20055E0A4F8A9F08AF0E0A429F98BF0A3E04D
:0849E200A429F583888222223A
:0D300600758115124A06E582600302300351
:1049EA0020F71430F6148883A88220F507E6A883F6
:1049FA0075830022E280F7E49322E0227582002286
:00000001FF
