:0330000002300695
:03305F0002300339
:0330030002308F09
:10306200AF83E582900400F0EFA3F0900400E0FE4D
:10307200A3E0FF8E9910990280FB8E828F8322102B
:10308200980280FBAE997F008E828F832290040487
:103092007420F075824812315890004812311CAEEB
:1030A20082AF83900048C007C00612311CAC82D0A8
:1030B20006D007C004C006C00774F0C0E0743CC06C
:1030C200E07480C0E012328EE58124FBF5817F003E
:1030D200C0077411C0E0743DC0E07480C0E01232D9
:1030E2008EE58124FBF5819004047420F075820042
:1030F20012315890000012311CAE82AF83C006C05C
:10310200077433C0E0743DC0E07480C0E012328EB8
:10311200E58124FBF58190000022AF83E5829004D3
:1031220002F0EFA3F012321E7582A01231809004D9
:1031320002E0FEA3E08E8212318012321E7582A15D
:103142001231801231BDAE82C00612322DD0067FFE
:10315200008E828F8322E582900405F012321E7562
:1031620082A0123180900405E0F582123180900431
:1031720004E0F58212318012322D90000022E582A5
:10318200900406F07E007F00900406E0FD235401C7
:1031920024FF9294D293C007C006C00512323AD0DF
:1031A20005D006D007C293ED2D900406F00EBE00A6
:1031B200010FC374079EE49F50CE22900407E4F0EF
:1031C2007E007F00C3EE9408EF648094805041D269
:1031D20094D293C007C00612323AD006D0079004A8
:1031E20007E025E0F030941F8EF005F07C80E4FDCE
:1031F2003392D28008A2D2ED13FDEC13FCD5F0F588
:10320200900407E0FB4CF0C2930EBE00B70F80B4EF
:10321200900407E0FF7E008F828E8322D294D293A5
:1032220012323AC29412323AC29322C29412323AFF
:0E323200D29312323AD294227F0500DFFD22A1
:103CF0006164647265737320307834382072656152
:103D0000645F76616C75655F696E742025640A0D69
:103D10000061646472657373203078343820726592
:103D200061645F76616C75655F63686172202563AD
:103D30000A0D00616464726573732030302072650F
:0E3D400061645F76616C75652025640A0D0074
:06303500E478FFF6D8FD6F
:103013007900E94400601B7A00903D59784175A01E
:1030230004E493F2A308B8000205A0D9F4DAF27518
:02303300A0FFFC
:10303B007800E84400600A790075A004E4F309D82D
:10304B00FC7841E84400600C7901900400E4F0A3A3
:04305B00D8FCD9FACA
:10324000C0128581127E008E83123062D01222AFAE
:10325000F0AE83E582900409F0EEA3F0EFA3F090C6
:103260000409E0FDA3E0FEA3E0FF900408E0FC9069
:10327000041DE4F0A3F0A3F0900420EDF0EEA3F021
:10328000EFA3F0900423ECF0903240023397C01289
:10329000E581F51224FBFF90041DE4F0A3F0A3F0F8
:1032A000E51224FBF8900420E6F008E6A3F008E617
:1032B000A3F0900423EFF0903240123397D0122203
:1032C000E582900419F0E0FF90040FE0C0E0A3E075
:1032D000C0E0A3E0C0E01232DB800D90040DE0C03E
:1032E000E0A3E0C0E08F8222158115811581900452
:1032F00017E02401F0A3E03400F022E58290041AE4
:10330000F0E02430FF24C6500D74072FFF90040C0A
:10331000E060034307208F820232C0E58290041BE5
:10332000F0E0FFC4540FF582C0071232FBD0075300
:10333000070F8F820232FBE58290041CF09004128A
:10334000E0FCA3E0FDA3E0FEA3E0FF900416E0FB99
:1033500075132090041CE0F98B00E828F8EF235443
:103360000148FBEC2CFCED33FDEE33FEEF33FFC3E5
:10337000EB994007EBC399FB430401E51314FA8A68
:103380001370D5900412ECF0EDA3F0EEA3F0EFA3D0
:10339000F0900416EBF022AF83E582900424F0EF66
:1033A000A3F0900424E0FEA3E0FF90040DEEF0EF04
:1033B000A3F090041DE0FDA3E0FEA3E0FF90040F46
:1033C000EDF0EEA3F0EFA3F0900417E4F0A3F0907B
:1033D0000420E0FDA3E0FEA3E0FF8D828E838FF04A
:1033E000123CD0FC90042074012DF0E43EA3F0EFD9
:1033F000A3F0EC7003023C8CBC25028003023C84E9
:10340000900426E4F0900427F0900428F09004291A
:10341000F090042AF090042BF090042CF090042DEE
:10342000F090042FF0900430F0A3F090043214F0E8
:10343000A3F0900420E0FDA3E0FEA3E0FF8D828EC8
:10344000838FF0123CD0FBA3AD82AE83900420EDBD
:10345000F0EEA3F0EFA3F0900436EBF0BB25088B61
:10346000821232C00233CFBB30005003023530EB42
:1034700024C65003023530900432E0F508A3E0F58D
:103480000974FFB50863B50960C005C006C00790A0
:103490000430E0FAA3E0FF90043FEAF0EFA3F090DD
:1034A000000AC005C003123CB0AE82AF83D003D087
:1034B000058B027D00EA2EFEED3FFFEE24D0FEEFED
:1034C00034FFFF900430EEF0EFA3F0D007D006D029
:1034D00005900430E0F5F0A3E045F0600302343DD0
:1034E0009004277401F002343DC005C006C0079067
:1034F000043FE508F0E509A3F090000AC006C00506
:10350000C003123CB0AA82AF83D003D005D0067EA0
:1035100000EB2AFAEE3FFFEA24D0FAEF34FFFF90E7
:103520000432EAF0EFA3F0D007D006D00502343D14
:10353000900436E0FBBB2E2FC005C006C0079004E8
:1035400032E0FAA3E0FFBAFF05BFFF028009D0070F
:10355000D006D00502343DD007D006D00590043205
:10356000E4F0A3F002343DBB61004014EB2485403D
:103570000F90043674DF5BF090040C7401F080054A
:1035800090040CE4F0900436E0FBBB20028075BB95
:103590002B028067BB2D028059BB4202806FBB4368
:1035A00002807CBB4403023827BB460302384DBB74
:1035B000480302343DBB4903023827BB4A030234A7
:1035C0003DBB4C028050BB4F03023835BB50030259
:1035D0003795BB53028077BB540302343DBB550380
:1035E00002383DBB5803023845BB5A0302343D0242
:1035F00038559004267401F002343D90042874017B
:10360000F002343D9004297401F002343D90042B03
:103610007401F002343D90042C7401F002343D90AA
:10362000042BE0600E900423E014F9F0900436E7D8
:10363000F0800F900423E024FEFFF08F0190043609
:10364000E7F0900436E0F5821232C002386490044C
:1036500023E024FDFFF08F0187050987060987070E
:103660001919900412EDF0EEA3F0EFA3F08D828E05
:10367000838FF0123C98858208858309900432E09C
:10368000FAA3E0FDBAFF0DBDFF0A900432E508F091
:10369000E509A3F0900426E0704B900430E0FAA313
:1036A000E0FDC3E5089AE5099D503A900430EAC36D
:1036B0009508F0ED9509A3F0900430E0FAA3E0FD41
:1036C0008A068D071ABAFF011DEE4F601075822021
:1036D000C005C0021232C0D002D00580E390043091
:1036E000EAF0EDA3F0900432E0F50BA3E0F50C90C6
:1036F0000412E0FAA3E0FDA3E0FF8A828D838FF03D
:10370000123CD0F50A603CC3E4950B7480850CF044
:1037100063F08095F0502C150B74FFB50B02150C5F
:10372000850A821232C0900412E0FAA3E0FDA3E001
:10373000FF0ABA00010D900412EAF0EDA3F0EFA326
:10374000F080AC900426E07003023864900430E00E
:10375000FEA3E0FFC3E5089EE5099F40030238642D
:10376000900430EEC39508F0EF9509A3F090043073
:10377000E0FEA3E0FF8E028F051EBEFF011FEA4D93
:10378000700302385C758220C007C0061232C0D0B8
:1037900006D00780E0900423E024FDFDF08D018732
:1037A0000D09870E09870F1919900412E50DF0E530
:1037B0000EA3F0E50FA3F0900414E0FDBD800040DF
:1037C000089004367443F08020BD600040089004E7
:1037D000367450F08013BD400040089004367449A0
:1037E000F080069004367458F0900436E0FDF582BF
:1037F000C0051232C075823A1232C0758230123260
:10380000C07582781232C0D005BD4902800EBD500D
:10381000028009900413E0F58212331B900412E039
:10382000F58212331B803D90042A7401F090042F1E
:10383000740AF0802F90042F7408F0802790042FD2
:10384000740AF0801F90042F7410F0801790042DDC
:103850007401F0800F8B821232C08008900430EE29
:10386000F0EFA3F090042DE06071900423E024FCBD
:10387000FFF08F0187030987050987060987071964
:103880001919900412EBF0EDA3F0EEA3F0EFA3F002
:10389000900412744EF0743DA3F07480A3F0900471
:1038A00012E0F50DA3E0F50EA3E0F50F7401250D70
:1038B000FAE4350EFBAF0F900412EAF0EBA3F0EF41
:1038C000A3F0850D82850E83850FF0123CD0FF702A
:1038D000030233CF8F821232C080C390042FE07076
:1038E000030233CF90042BE06047900423E014F9E7
:1038F000F087077E007D007B00900412EFF0EEA3BE
:10390000F0EDA3F0EBA3F090042AE060030239A7E6
:10391000900412E0FBA3E0A3E0A3E07D007E007F23
:1039200000900412EBF0EDA3F0EEA3F0EFA3F08013
:103930007690042CE06028900423E024FCFFF08FB4
:10394000018703098705098706098707191919904F
:103950000412EBF0EDA3F0EEA3F0EFA3F08048909B
:103960000423E024FEFFF08F01870609870719EF83
:103970003395E0FDFB900412EEF0EFA3F0EDA3F021
:10398000EBA3F090042AE0701E900412E0FBA3E089
:10399000FDA3E0A3E07E007F00900412EBF0EDA316
:1039A000F0EEA3F0EFA3F090042AE060419004123F
:1039B000E0FBA3E0FDA3E0FEA3E0FF30E72B9004D3
:1039C00012E0FBA3E0FDA3E0FEA3E0FFC3E49BFB4A
:1039D000E49DFDE49EFEE49FFF900412EBF0EDA356
:1039E000F0EEA3F0EFA3F0800590042AE4F0900439
:1039F0002E7401F090042FE0F50B75103C75110446
:103A0000E4F508F509900416E4F0850B82123337CB
:103A100090042EE07026900416E0C4F50D85108207
:103A2000851183E0FFE50D4207851082851183EF44
:103A3000F0151074FFB510021511800C900416E0FB
:103A4000FF851082851183F00508E4B50802050999
:103A500090042EE0B40100E433F0900412E0FAA3E5
:103A6000E0FBA3E0FEA3E0FFEA4B4E4F709790040B
:103A70003DE510F0E511A3F0900434E508F0E50908
:103A8000A3F0900430E0F5F0A3E045F07009900455
:103A9000307401F0E4A3F0900427E0FFE070479059
:103AA0000426E07041850810850911900430E0FA81
:103AB000A3E0FBC007AF100F8F067F00C3EE9AEFA5
:103AC0009BD0075019758220C007C003C002123274
:103AD000C0D002D003D0071ABAFF011B80D59004D2
:103AE00030EAF0EBA3F090042AE0602075822DC04C
:103AF000071232C0D007900430E024FFFDA3E03469
:103B0000FFFE900430EDF0EEA3F08056900434E018
:103B1000F5F0A3E045F0604A900428E0602075824B
:103B20002BC0071232C0D007900430E024FFFDA361
:103B3000E034FFFE900430EDF0EEA3F0802490041A
:103B400029E0601E758220C0071232C0D0079004A1
:103B500030E024FFFDA3E034FFFE900430EDF0EEF2
:103B6000A3F0900426E07048900434E0F510A3E040
:103B7000F511900430E0FAA3E0FBC0078A068B073A
:103B80001ABAFF011BC3E5109EE5119FD0075053E1
:103B9000EF60067D307E0080047D207E008D82C037
:103BA00007C003C0021232C0D002D003D00780CABF
:103BB000900430E0FEA3E0FF900434E0F510A3E0B1
:103BC000F511C3E5109EE5119F500F900430EEC330
:103BD0009510F0EF9511A3F08011900430E4F0A35C
:103BE000F08008900430EAF0EBA3F090043DE0FE92
:103BF000A3E0FF900434E0F510A3E0F511AA10ADA6
:103C000011151074FFB510021511EA4D60459004AE
:103C10002EE0B40100E433F090042EE070140EBEE8
:103C200000010F8E828F83E0C4540FFD900416F0C4
:103C3000800E8E828F83E0FD53050F900416EDF009
:103C4000900416E0F582C007C0061232FBD006D001
:103C50000780AA900426E070030233CF900430E07E
:103C6000FEA3E0FF8E038F051EBEFF011FEB4D700C
:103C7000030233CF758220C007C0061232C0D006BF
:103C8000D00780E08C821232C00233CF900417E05C
:083C9000FEA3E08E82F5832201
:0B3D4E003C4E4F20464C4F41543E00BD
:103C9800AA82AB83123CD06003A380F8C3E5829A62
:103CA800F582E5839BF58322AA83AB828BF090048F
:103CB8003FE0A4F8A9F08AF0E0A429F98BF0A3E08A
:083CC800A429F5838882222261
:0D300600758113123CECE58260030230037B
:103CD00020F71430F6148883A88220F507E6A8831D
:103CE00075830022E280F7E49322E02275820022AD
:00000001FF
