:0330000002300695
:03305F0002300339
:033003000231A2F5
:10306200AF83E582900402F0EFA3F0900402E0FE49
:10307200A3E0FF8E9910990280FB8E828F8322102B
:10308200980280FBAE997F008E828F83227451C09A
:10309200E07445C0E07480C0E0123AEF15811581FA
:1030A20015817403C0E07446C0E07480C0E0123A37
:1030B200EF1581158115817445C0E07446C0E07436
:1030C20080C0E0123AEF1581158115812274F6C095
:1030D200E07446C0E07480C0E0123AEF15811581B9
:1030E200158174ACC0E07447C0E07480C0E0123A4D
:1030F200EF15811581158174F1C0E07447C0E07449
:1031020080C0E0123AEF15811581158174A5C0E0E7
:103112007448C0E07480C0E0123AEF158115811541
:103122008174E9C0E07448C0E07480C0E0123AEFF4
:10313200158115811581742DC0E07449C0E0748039
:10314200C0E0123AEF1581158115817471C0E074E7
:1031520049C0E07480C0E0123AEF158115811581F3
:1031620074B5C0E07449C0E07480C0E0123AEF1553
:10317200811581158174F9C0E07449C0E07480C082
:10318200E0123AEF158115811581743CC0E0744A52
:10319200C0E07480C0E0123AEF15811581158122DA
:1031A2005390F75390EF12308F1230CF1239B01282
:1031B2003081AE828E057F00C006C005C00774F064
:1031C200C0E0744AC0E07480C0E0123AEFE58124A6
:1031D200FBF581D006BE3F03023296BE5202806DDD
:1031E200BE5702800302329C74F7C0E0744AC0E00A
:1031F2007480C0E0123AEF1581158115811232B444
:10320200AE82AF83C007C0061234CEAD82D006D0E4
:10321200078D037C00C007C006C005C003C004C000
:1032220006C0077469C0E0744BC0E07480C0E0124D
:103232003AEFE58124F9F581D005D006D007900454
:103242000FEDF08E828F831236400231B1749DC031
:10325200E0744BC0E07480C0E0123AEF1581158132
:1032620015811232B4AE82AF83C007C006C006C059
:10327200077411C0E0744CC0E07480C0E0123AEFF1
:10328200E58124FBF581D006D0078E828F83123729
:10329200820231B11230CF0231B1743CC0E0744CC1
:1032A200C0E07480C0E0123AEF15811581158102E9
:1032B20031B1744CC0E0744CC0E07480C0E0123A8A
:1032C200EF158115811581900404E4F0900405F056
:1032D200900406F0900407F0747DC0E0744CC0E0E6
:1032E2007480C0E0123AEF1581158115817E007F4E
:1032F20000C3EE9403EF64809480505BC007C00665
:10330200123081AC82AD83D006D007BC0D0280475B
:10331200BC0A028042BC30004005EC24C65014BCFA
:1033220061004005EC2499500ABC410040C3EC24E2
:10333200B940BEEE2404F582EF3404F583ECF07D4F
:10334200008C828D83C007C006123062D006D0077F
:103352000EBE009D0F809AEE2404F582EF3404F530
:1033620083E4F0900408F0A3F07E007F00EE2404D2
:10337200F582EF3404F583E0FD70030234289004F3
:1033820008E0FBA3E0C454F0CBC4CB6BCB54F0CB2E
:103392006BFC900408EBF0ECA3F0BD30004023ED91
:1033A20024C6401E7C00ED24D0FDEC34FFFC9004CA
:1033B20008E0FAA3E0FB900408ED2AF0EC3BA3F04E
:1033C200805CEE2404F582EF3404F583E0FDBD4118
:1033D200004025ED24B940208D037C0074C92BFBED
:1033E20074FF3CFC900408E0F9A3E0FA900408EBB7
:1033F20029F0EC3AA3F08026BD61004021ED24992A
:10340200401C7C0074A92DFD74FF3CFC900408E074
:10341200FAA3E0FB900408ED2AF0EC3BA3F00EBE09
:1034220000010F02336F900408E0FEA3E0FFC00723
:10343200C006C006C0077480C0E0744CC0E074804F
:10344200C0E0123AEFE58124FBF581D006D007C334
:1034520074FF9E74079F501974A0C0E0744CC0E0C2
:103462007480C0E0123AEF15811581158190000039
:10347200228F047D00C007C006C004C00574B7C017
:10348200E0744CC0E07480C0E0123AEFE58124FBA6
:10349200F581D006D007900408EEF0E4A3F0900482
:1034A20008E0FEA3E0FFC007C006C006C00774C95B
:1034B200C0E0744CC0E07480C0E0123AEFE58124B1
:1034C200FBF581D006D0078E828F832274DFC0E0A5
:1034D200744CC0E07480C0E0123AEF15811581157A
:1034E2008190040AE4F090040BF090040CF0900434
:1034F2000DF0747DC0E0744CC0E07480C0E0123AFC
:10350200EF1581158115817E007F00C3EE9403EFD4
:1035120064809480505BC007C006123081AC82ADDB
:1035220083D006D007BC0D028047BC0A028042BC91
:1035320030004005EC24C65014BC61004005EC2468
:1035420099500ABC410040C3EC24B940BEEE240AA3
:10355200F582EF3404F583ECF07D008C828D83C01C
:1035620007C006123062D006D0070EBE009D0F8043
:103572009AEE240AF582EF3404F583E4F090040E07
:10358200F07E007F00EE240AF582EF3404F583E03A
:10359200FD70030235FA90040EE0C454F0FCF0BD55
:1035A20030004012ED24C6400DED24D0FD90040EF3
:1035B200E0FC2DF0803AEE240AF582EF3404F58324
:1035C200E0FDBD41004014ED24B9400F8D0474C9E3
:1035D2002CFC90040EE0FB2CF08015BD6100401025
:1035E200ED2499400B74A92DFD90040EE0FC2DF002
:1035F2000EBE00010F02358790040EE0FFFD7E0033
:10360200C007C005C006740DC0E0744DC0E07480F0
:10361200C0E0123AEFE58124FBF581D007EF2401E7
:103622005019742AC0E0744DC0E07480C0E0123AB0
:10363200EF158115811581758200228F8222AF8359
:10364200E582900410F0EFA3F01239B0900451E03B
:10365200FEA3E04306A08E821238C3E5828583F082
:1036620045F0701C743EC0E0744DC0E07480C0E050
:10367200123AEF1581158115811239C59000002289
:10368200900410E0FEA3E0FF8E058D82C007C00605
:103692001238C3E5828583F0D006D00745F0701C4E
:1036A2007469C0E0744DC0E07480C0E0123AEF1556
:1036B20081158115811239C59000002290040FE016
:1036C200FDF582C007C006C0051238C3E5828583B6
:1036D200F0D005D006D00745F0701C748CC0E074A1
:1036E2004DC0E07480C0E0123AEF1581158115815A
:1036F2001239C590000022C007C006C0051239C5A4
:10370200D005D006D0077B007C00C3EB9464EC6448
:10371200809480501EC007C006C005C004C00312BA
:1037220039D2D003D004D005D006D0070BBB00DAC3
:103732000C80D77C00C005C004C006C00774A5C0B9
:10374200E0744DC0E07480C0E0123AEFE58124F9E4
:10375200F58174DAC0E0744DC0E07480C0E0123AC2
:10376200EF1581158115817412C0E0744EC0E074AA
:1037720080C0E0123AEF1581158115819000012277
:10378200AF83E582900412F0EFA3F01239B0758294
:10379200A01238C3E5828583F045F0701C74A8C07E
:1037A200E0744EC0E07480C0E0123AEF15811581DA
:1037B20015811239C590FFFF22900412E0FEA3E0AA
:1037C200FF8E058D82C007C0061238C3E58285834D
:1037D200F0D006D00745F0701C7469C0E0744DC08B
:1037E200E07480C0E0123AEF15811581158112391B
:1037F200C590FFFF22C007C0061239B07582A11220
:1038020038C3E5828583F0D006D00745F0701C747A
:10381200D8C0E0744EC0E07480C0E0123AEF158167
:10382200158115811239C590FFFF22900000C00753
:10383200C00612392BAC82D006D0077D00C007C06B
:1038420006C005C004C004C005C006C0077407C096
:10385200E0744FC0E07480C0E0123AEFE58124F9D1
:10386200F581D004D005D006D007C005C004C0043D
:10387200C005C006C007744AC0E0744FC0E074803F
:10388200C0E0123AEFE58124F9F581745FC0E0747B
:103892004FC0E07480C0E0123AEF158115811581A6
:1038A2007412C0E0744EC0E07480C0E0123AEF15AA
:1038B20081158115811239C5D004D0058C828D8382
:1038C20022E582900414F07E007F00900414E0FD53
:1038D20023540124FF9294C007C006C0051239D2B6
:1038E200D2931239D2D005D006D007C293ED2D90D3
:1038F2000414F00EBE00010FC374079EE49F50CB68
:10390200D294D2931239D2309419748AC0E0744F8F
:10391200C0E07480C0E0123AEF15811581158190E4
:10392200000022C29390000122AF83E58290041529
:10393200F0EFA3F0900417E4F0C2937E007F00C37F
:10394200EE9408EF648094805040D293C007C00682
:103952001239D2D006D007A294E433FD8E04740744
:10396200C39CFC8CF005F0ED800225E0D5F0FBFC59
:10397200900417E04CF0C007C0061239D2D006D02E
:1039820007C2930EBE00B80F80B5900415E0FEA3E7
:10399200E04EB40100E43324FF9294D2931239D260
:1039A200C293900417E0FF7E008F828E8322123929
:1039B200D2D2941239D2D2931239D2C2941239D2BB
:1039C200C29322C2941239D2D2931239D2D2942201
:1039D2007E007F00C3EE94F4EF6480948150070E62
:1039E200BE00F10F80EE221239B01239D27402C039
:1039F200E0E4C0E07426C0E0E4C0E0749FC0E0747C
:103A02004FC0E07480C0E0123AEFE58124F9F581FD
:103A120090040F7426F09000021236401239C57ECF
:103A2200007F00C3EE9464EF648094805012C0075C
:103A3200C0061239D2D006D0070EBE00E60F80E3D0
:103A4200900002123782AE828E057F00C006C0054A
:103A5200C0077402C0E0E4C0E074C7C0E0744FC0A5
:103A6200E07480C0E0123AEFE58124F9F581D006D6
:103A7200BE261674EFC0E0744FC0E07480C0E0123E
:103A82003AEF158115811581227410C0E07450C07F
:0F3A9200E07480C0E0123AEF1581158115812292
:104551000AE29594E29590E29590E29590E2959029
:10456100E29590E29590E29590E29590E29590E245
:104571009590E29590E29590E29590E29590E29582
:1045810090E29590E29590E29590E29590E2959077
:10459100E29590E29590E29590E29590E29590E215
:1045A1009590E29590E29590E29590E29590E29552
:1045B10090E29590E29590E29590E29590E2959047
:1045C100E29590E29590E29590E29590E29590E2E5
:1045D1009590E29590E29590E29590E29590E29522
:1045E10090E29590E29590E29590E29590E2959017
:1045F100E29590E29590E29590E29590E295970A86
:104601000D00E29591202020202020202020202034
:10461100493243204D656D6F7279204D616E61673E
:10462100656D656E742053797374656D2076312ED6
:104631003020202020202020202020202020E29532
:10464100910A0D00E2959AE29590E29590E295909B
:10465100E29590E29590E29590E29590E29590E254
:104661009590E29590E29590E29590E29590E29591
:1046710090E29590E29590E29590E29590E2959086
:10468100E29590E29590E29590E29590E29590E224
:104691009590E29590E29590E29590E29590E29561
:1046A10090E29590E29590E29590E29590E2959056
:1046B100E29590E29590E29590E29590E29590E2F4
:1046C1009590E29590E29590E29590E29590E29531
:1046D10090E29590E29590E29590E29590E2959026
:1046E100E29590E29590E29590E29590E29590E2C4
:1046F100959D0A0D000A0DE2948CE29480E294806B
:10470100E29480E29480E29480E29480E29480E2F8
:104711009480E29480E29480E29480E29480E29436
:10472100ACE29480E29480E29480E29480E294800E
:10473100E29480E29480E29480E29480E29480E2C8
:104741009480E29480E29480E29480E29480E29406
:1047510080E29480E29480E29480E29480E294800A
:10476100E29480E29480E29480E29480E29480E298
:104771009480E29480E29480E29480E29480E294D6
:1047810080E29480E29480E29480E29480E29480DA
:10479100E29480E29480E29480E29480E29480E268
:1047A1009480E29480E294900A0D00E294822020A9
:1047B100436F6D6D616E64202020E2948220202081
:1047C10020202020202020202020202044657363E9
:1047D10072697074696F6E202020202020202020B3
:1047E10020202020202020202020E294820A0D0079
:1047F100E2949CE29480E29480E29480E29480E2EC
:104801009480E29480E29480E29480E29480E29445
:1048110080E29480E29480E294BCE29480E294800D
:10482100E29480E29480E29480E29480E29480E2D7
:104831009480E29480E29480E29480E29480E29415
:1048410080E29480E29480E29480E29480E2948019
:10485100E29480E29480E29480E29480E29480E2A7
:104861009480E29480E29480E29480E29480E294E5
:1048710080E29480E29480E29480E29480E29480E9
:10488100E29480E29480E29480E29480E29480E277
:104891009480E29480E29480E29480E29480E294B5
:1048A100A40A0D00E2948220202020205220202002
:1048B100202020E2948220526561642066726F6D2F
:1048C10020616464726573732020202020202020E1
:1048D10020202020202020202020202020202020D7
:1048E1002020E294820A0D00E294822020202020E0
:1048F10057202020202020E294822057726974657D
:10490100206461746120746F2061646472657373E3
:104911002020202020202020202020202020202096
:10492100202020202020E294820A0D00E29482209F
:104931002020202048202020202020E29482204492
:104941006973706C6179206865782064756D702079
:104951002020202020202020202020202020202056
:1049610020202020202020202020E294820A0D00F7
:10497100E29482202020202058202020202020E2A4
:104981009482205265736574206D656D6F72792014
:1049910073797374656D2020202020202020202031
:1049A1002020202020202020202020202020E294D0
:1049B100820A0D00E2948220202020203F20202026
:1049C100202020E2948220446973706C6179207404
:1049D1006869732068656C70206D656E7520202094
:1049E10020202020202020202020202020202020C6
:1049F1002020E294820A0D00E294822020202020CF
:104A010051202020202020E29482205175697420B9
:104A110070726F6772616D2020202020202020207D
:104A21002020202020202020202020202020202085
:104A31002020202020E294820A0D00E29494E29446
:104A410080E29480E29480E29480E29480E2948017
:104A5100E29480E29480E29480E29480E29480E2A5
:104A61009480E294B4E29480E29480E29480E294AF
:104A710080E29480E29480E29480E29480E29480E7
:104A8100E29480E29480E29480E29480E29480E275
:104A91009480E29480E29480E29480E29480E294B3
:104AA10080E29480E29480E29480E29480E29480B7
:104AB100E29480E29480E29480E29480E29480E245
:104AC1009480E29480E29480E29480E29480E29483
:104AD10080E29480E29480E29480E29480E2948087
:104AE100E29480E29480E29480E294980A0D00249A
:104AF1002025630A0D000AE2948CE29480E29480FE
:104B0100E29480E29480E29480E29480E29480E2F4
:104B11009480E29480E29480E29480E29480E29432
:104B210080E29480E29480205752495445204F50AE
:104B310045524154494F4E20E29480E29480E294E0
:104B410080E29480E29480E29480E29480E2948016
:104B5100E29480E29480E29480E29480E29480E2A4
:104B61009480E294900A0D007C57726974696E67B3
:104B7100206174204164647265737320307825303C
:104B81003358204461746120307825303258202018
:104B910020202020202020207C0A0D000AE2948C75
:104BA100E29480E29480E29480E29480E29480E254
:104BB1009480E29480E29480E29480E29480E29492
:104BC10080E29480E29480E29480E29480205245D5
:104BD1004144204F5045524154494F4E20E2948068
:104BE100E29480E29480E29480E29480E29480E214
:104BF1009480E29480E29480E29480E29480E29452
:104C010080E29480E29480E29480E294900A0D0024
:104C11007C52656164696E672066726F6D204164C4
:104C2100647265737320307825303358202020203A
:104C3100202020202020207C0A0D00494E56414C86
:104C4100494420494E5055540A0D00E294822045B2
:104C51006E7465722061646472657373202868657F
:104C6100782C20757020746F203320636861726125
:104C71006374657273293A200A0D7C002420000AAE
:104C81000DE2948220456E746572656420616464EE
:104C9100726573733A203078253033580A0D00411C
:104CA100646472657373206F7574206F662052613E
:104CB1006E67650A0D00426C6F636B206E756D62E5
:104CC10065722025640A0D00616464726573732046
:104CD1006E6F7720203078253033580A0D00E2942A
:104CE1008220456E74657220646174612028686554
:104CF100782C20757020746F203220636861726196
:104D01006374657273293A200A0D7C000A0DE294DE
:104D11008220456E746572656420646174613A2015
:104D21003078253032580A0D0044617461206F7566
:104D310074206F662052616E67650A0D00457272BC
:104D41006F723A204E6F2041434B20666F72206490
:104D51006576696365206164647265737320287781
:104D610072697465290A0D004572726F723A204E9C
:104D71006F2041434B20666F72206D656D6F7279B4
:104D810020616464726573730A0D004572726F72FB
:104D91003A204E6F2041434B20666F72206461744C
:104DA100610A0D007C2057726974696E6720617415
:104DB1002041646472657373203078253033582044
:104DC1004461746120307825303258202020202021
:104DD10020202020207C0A0D00E294822057726955
:104DE1007465207375636365737366756C21202028
:104DF10020202020202020202020202020202020B2
:104E01002020202020202020202020E294820A0D32
:104E110000E29494E29480E29480E29480E29480AF
:104E2100E29480E29480E29480E29480E29480E2D1
:104E31009480E29480E29480E29480E29480E2940F
:104E410080E29480E29480E29480E29480E2948013
:104E5100E29480E29480E29480E29480E29480E2A1
:104E61009480E29480E29480E29480E29480E294DF
:104E710080E29480E29480E29480E29480E29480E3
:104E8100E29480E29480E29480E29480E29480E271
:104E91009480E29480E29480E29480E29480E294AF
:104EA10080E294980A0D004572726F723A204E6F3B
:104EB1002041434B20666F722064657669636520EB
:104EC1006164647265737320287772697465206DFB
:104ED1006F6465290A0D004572726F723A204E6F38
:104EE1002041434B20666F722064657669636520BB
:104EF10061646472657373202872656164206D6FEB
:104F01006465290A0D00E294822052656164696E2C
:104F1100672066726F6D204164726573733A203049
:104F2100782530335820446174613A203078253037
:104F31003258202020202020202020202020202026
:104F41002020202020200A0D007C203078253033BD
:104F510058203A20307825303258200A0D00E2944A
:104F6100822052656164207375636365737366752E
:104F71006C212020202020202020202020202020E3
:104F8100202020E294820A0D0041434B20444944F1
:104F9100204E4F54204152524956450A0D00577236
:104FA1006974696E672064617461203078253032DC
:104FB1005820746F206164647265737320307825A2
:104FC1003032580A0D0052656164206261636B20C2
:104FD10066726F6D20616464726573732030782529
:104FE1003032583A203078253032580A0D004D4180
:104FF100544348202D2057726974652F52656164AE
:10500100207375636365737366756C210A0D0045C2
:1050110052524F52202D2044617461206D69736D8D
:0850210061746368210A0D00AF
:0250340000007A
:06303500E478FFF6D8FD6F
:103013007902E94400601B7A01905034785175A01D
:1030230004E493F2A308B8000205A0D9F4DAF27518
:02303300A0FFFC
:10303B007800E84400600A790075A004E4F309D82D
:10304B00FC7851E84400600C7901900400E4F0A393
:04305B00D8FCD9FACA
:103AA100C0128581127E008E83123062D01222AF45
:103AB100F0AE83E582900419F0EEA3F0EFA3F0904D
:103AC1000419E0FDA3E0FEA3E0FF900418E0FC90E0
:103AD100042DE4F0A3F0A3F0900430EDF0EEA3F098
:103AE100EFA3F0900433ECF0903AA1023BF8C0123E
:103AF100E581F51224FBFF90042DE4F0A3F0A3F07F
:103B0100E51224FBF8900430E6F008E6A3F008E69D
:103B1100A3F0900433EFF0903AA1123BF8D01222B7
:103B2100E582900429F0E0FF90041FE0C0E0A3E0EB
:103B3100C0E0A3E0C0E0123B3C800D90041DE0C05A
:103B4100E0A3E0C0E08F82221581158115819004E8
:103B510027E02401F0A3E03400F022E58290042A5A
:103B6100F0E02430FF24C6500D74072FFF90041C91
:103B7100E060034307208F82023B21E58290042B02
:103B8100F0E0FFC4540FF582C007123B5CD007532D
:103B9100070F8F82023B5CE58290042CF090042297
:103BA100E0FCA3E0FDA3E0FEA3E0FF900426E0FB20
:103BB10075132090042CE0F98B00E828F8EF2354CA
:103BC1000148FBEC2CFCED33FDEE33FEEF33FFC37C
:103BD100EB994007EBC399FB430401E51314FA8AFF
:103BE1001370D5900422ECF0EDA3F0EEA3F0EFA357
:103BF100F0900426EBF022AF83E582900434F0EFDD
:103C0100A3F0900434E0FEA3E0FF90041DEEF0EF7A
:103C1100A3F090042DE0FDA3E0FEA3E0FF90041FBC
:103C2100EDF0EEA3F0EFA3F0900427E4F0A3F09001
:103C31000430E0FDA3E0FEA3E0FF8D828E838FF0D0
:103C4100124531FC90043074012DF0E43EA3F0EFF5
:103C5100A3F0EC70030244EDBC250280030244E5AD
:103C6100900436E4F0900437F0900438F090043971
:103C7100F090043AF090043BF090043CF090043D45
:103C8100F090043FF0900440F0A3F090044214F04F
:103C9100A3F0900430E0FDA3E0FEA3E0FF8D828E4F
:103CA100838FF0124531FBA3AD82AE83900430EDDA
:103CB100F0EEA3F0EFA3F0900446EBF0BB25088BE8
:103CC10082123B21023C30BB30005003023D91EB9C
:103CD10024C65003023D91900442E0F508A3E0F5AB
:103CE1000974FFB50863B50960C005C006C0079037
:103CF1000440E0FAA3E0FF90044FEAF0EFA3F09054
:103D0100000AC005C003124511AE82AF83D003D0B3
:103D1100058B027D00EA2EFEED3FFFEE24D0FEEF83
:103D210034FFFF900440EEF0EFA3F0D007D006D0AF
:103D310005900440E0F5F0A3E045F06003023C9EED
:103D41009004377401F0023C9EC005C006C0079084
:103D5100044FE508F0E509A3F090000AC006C0058C
:103D6100C003124511AA82AF83D003D005D0067ECD
:103D710000EB2AFAEE3FFFEA24D0FAEF34FFFF907E
:103D81000442EAF0EFA3F0D007D006D005023C9E32
:103D9100900446E0FBBB2E2FC005C006C00790046F
:103DA10042E0FAA3E0FFBAFF05BFFF028009D00796
:103DB100D006D005023C9ED007D006D00590044223
:103DC100E4F0A3F0023C9EBB61004014EB2485406B
:103DD1000F90044674DF5BF090041C7401F08005C1
:103DE10090041CE4F0900446E0FBBB20028075BB0C
:103DF1002B028067BB2D028059BB4202806FBB43FF
:103E010002807CBB4403024088BB46030240AEBB38
:103E11004803023C9EBB4903024088BB4A03023C63
:103E21009EBB4C028050BB4F03024096BB50030225
:103E31003FF6BB53028077BB5403023C9EBB550344
:103E410002409EBB58030240A6BB5A03023C9E029D
:103E510040B69004367401F0023C9E90043874011F
:103E6100F0023C9E9004397401F0023C9E90043BA8
:103E71007401F0023C9E90043C7401F0023C9E905F
:103E8100043BE0600E900433E014F9F0900446E73F
:103E9100F0800F900433E024FEFFF08F0190044680
:103EA100E7F0900446E0F582123B210240C5900400
:103EB10033E024FDFFF08F01870509870609870795
:103EC1001919900422EDF0EEA3F0EFA3F08D828E8C
:103ED100838FF01244F9858208858309900442E0BA
:103EE100FAA3E0FDBAFF0DBDFF0A900442E508F018
:103EF100E509A3F0900436E0704B900440E0FAA38A
:103F0100E0FDC3E5089AE5099D503A900440EAC3F3
:103F11009508F0ED9509A3F0900440E0FAA3E0FDC7
:103F21008A068D071ABAFF011DEE4F6010758220B7
:103F3100C005C002123B21D002D00580E3900440AD
:103F4100EAF0EDA3F0900442E0F50BA3E0F50C904C
:103F51000422E0FAA3E0FDA3E0FF8A828D838FF0C3
:103F6100124531F50A603CC3E4950B7480850CF071
:103F710063F08095F0502C150B74FFB50B02150CF6
:103F8100850A82123B21900422E0FAA3E0FDA3E01E
:103F9100FF0ABA00010D900422EAF0EDA3F0EFA3AD
:103FA100F080AC900436E070030240C5900440E01C
:103FB100FEA3E0FFC3E5089EE5099F40030240C55B
:103FC100900440EEC39508F0EF9509A3F0900440EA
:103FD100E0FEA3E0FF8E028F051EBEFF011FEA4D2A
:103FE10070030240BD758220C007C006123B21D07C
:103FF10006D00780E0900433E024FDFDF08D0187B9
:104001000D09870E09870F1919900422E50DF0E5B6
:104011000EA3F0E50FA3F0900424E0FDBD80004065
:10402100089004467443F08020BD6000400890046D
:10403100467450F08013BD40004008900446744916
:10404100F080069004467458F0900446E0FDF58235
:10405100C005123B2175823A123B21758230123B19
:1040610021758278123B21D005BD4902800EBD50D9
:10407100028009900423E0F582123B7C900422E047
:10408100F582123B7C803D90043A7401F090043F2C
:10409100740AF0802F90043F7408F0802790043F49
:1040A100740AF0801F90043F7410F0801790043D53
:1040B1007401F0800F8B82123B218008900440EE46
:1040C100F0EFA3F090043DE06071900433E024FC34
:1040D100FFF08F01870309870509870609870719FB
:1040E1001919900422EBF0EDA3F0EEA3F0EFA3F089
:1040F1009004227429F07450A3F07480A3F090040A
:1041010022E0F50DA3E0F50EA3E0F50F7401250DF6
:10411100FAE4350EFBAF0F900422EAF0EBA3F0EFC7
:10412100A3F0850D82850E83850FF0124531FF7056
:1041310003023C308F82123B2180C390043FE07028
:1041410003023C3090043BE06047900433E014F9F3
:10415100F087077E007D007B00900422EFF0EEA344
:10416100F0EDA3F0EBA3F090043AE0600302420803
:10417100900422E0FBA3E0A3E0A3E07D007E007FAA
:1041810000900422EBF0EDA3F0EEA3F0EFA3F0809A
:104191007690043CE06028900433E024FCFFF08F2B
:1041A10001870309870509870609870719191990E6
:1041B1000422EBF0EDA3F0EEA3F0EFA3F080489022
:1041C1000433E024FEFFF08F01870609870719EF0A
:1041D1003395E0FDFB900422EEF0EFA3F0EDA3F0A8
:1041E100EBA3F090043AE0701E900422E0FBA3E000
:1041F100FDA3E0A3E07E007F00900422EBF0EDA39D
:10420100F0EEA3F0EFA3F090043AE06041900422B5
:10421100E0FBA3E0FDA3E0FEA3E0FF30E72B900469
:1042210022E0FBA3E0FDA3E0FEA3E0FFC3E49BFBD0
:10423100E49DFDE49EFEE49FFF900422EBF0EDA3DC
:10424100F0EEA3F0EFA3F0800590043AE4F09004BF
:104251003E7401F090043FE0F50B75104C751104AC
:10426100E4F508F509900426E4F0850B82123B98E9
:1042710090043EE07026900426E0C4F50D8510827E
:10428100851183E0FFE50D4207851082851183EFDB
:10429100F0151074FFB510021511800C900426E082
:1042A100FF851082851183F00508E4B50802050930
:1042B10090043EE0B40100E433F0900422E0FAA35C
:1042C100E0FBA3E0FEA3E0FFEA4B4E4F70979004A2
:1042D1004DE510F0E511A3F0900444E508F0E5097F
:1042E100A3F0900440E0F5F0A3E045F070099004DC
:1042F100407401F0E4A3F0900437E0FFE0704790D0
:104301000436E07041850810850911900440E0FAF7
:10431100A3E0FBC007AF100F8F067F00C3EE9AEF3B
:104321009BD0075019758220C007C003C002123B01
:1043310021D002D003D0071ABAFF011B80D5900407
:1043410040EAF0EBA3F090043AE0602075822DC0C2
:1043510007123B21D007900440E024FFFDA3E03485
:10436100FFFE900440EDF0EEA3F08056900444E08F
:10437100F5F0A3E045F0604A900438E060207582D2
:104381002BC007123B21D007900440E024FFFDA37E
:10439100E034FFFE900440EDF0EEA3F080249004A1
:1043A10039E0601E758220C007123B21D0079004BE
:1043B10040E024FFFDA3E034FFFE900440EDF0EE69
:1043C100A3F0900436E07048900444E0F510A3E0B7
:1043D100F511900440E0FAA3E0FBC0078A068B07C1
:1043E1001ABAFF011BC3E5109EE5119FD007505378
:1043F100EF60067D307E0080047D207E008D82C0CE
:1044010007C003C002123B21D002D003D00780CAEB
:10441100900440E0FEA3E0FF900444E0F510A3E027
:10442100F511C3E5109EE5119F500F900440EEC3B6
:104431009510F0EF9511A3F08011900440E4F0A3E2
:10444100F08008900440EAF0EBA3F090044DE0FE08
:10445100A3E0FF900444E0F510A3E0F511AA10AD2C
:1044610011151074FFB510021511EA4D6045900445
:104471003EE0B40100E433F090043EE070140EBE5F
:1044810000010F8E828F83E0C4540FFD900426F04B
:10449100800E8E828F83E0FD53050F900426EDF090
:1044A100900426E0F582C007C006123B5CD006D01E
:1044B1000780AA900436E07003023C30900440E08B
:1044C100FEA3E0FF8E038F051EBEFF011FEB4D70A3
:1044D10003023C30758220C007C006123B21D00682
:1044E100D00780E08C82123B21023C30900427E00F
:0844F100FEA3E08E82F5832298
:0B5029003C4E4F20464C4F41543E00CF
:1044F900AA82AB831245316003A380F8C3E5829A8F
:10450900F582E5839BF58322AA83AB828BF0900425
:104519004FE0A4F8A9F08AF0E0A429F98BF0A3E010
:08452900A429F58388822222F7
:0D30060075811312454DE582600302300311
:1045310020F71430F6148883A88220F507E6A883B3
:1045410075830022E280F7E49322E0227582002243
:00000001FF
