:0330000002300695
:03305F0002300339
:0330030002308F09
:10306200AF83E582900402F0EFA3F0900402E0FE49
:10307200A3E0FF8E9910990280FB8E828F8322102B
:10308200980280FBAE997F008E828F83225390F745
:103092005390EF1233401233627402C0E0E4C0E096
:1030A2007426C0E0E4C0E07429C0E0743EC0E0745D
:1030B20080C0E01233C7E58124F9F58190040474DD
:1030C20026F09000021230D112335590000022AF48
:1030D20083E582900405F0EFA3F01233407582A0DD
:1030E20012323FE5828583F045F0701C7451C0E0D6
:1030F200743EC0E07480C0E01233C715811581159B
:103102008112335590000022900405E0FEA3E08E68
:103112008212323FE5828583F045F0701C747CC0D8
:10312200E0743EC0E07480C0E01233C7158115819F
:10313200158112335590000022900404E0F58212AA
:10314200323FE5828583F045F0701C749FC0E074C5
:103152003EC0E07480C0E01233C71581158115812D
:10316200123355900000221233557E007F00C3EEC9
:103172009464EF648094805012C007C006123362D8
:10318200D006D0070EBE00E60F80E390000122AF0A
:1031920083E582900407F0EFA3F01233407582A01A
:1031A20012323FE5828583F045F0701C74B8C0E0AE
:1031B200743EC0E07480C0E01233C71581158115DA
:1031C2008112335590FFFF22900407E0FEA3E08EA8
:1031D2008212323FE5828583F045F0701C747CC018
:1031E200E0743EC0E07480C0E01233C715811581DF
:1031F200158112335590FFFF221233407582A112BE
:10320200323FE5828583F045F0701C74E8C0E074BB
:103212003EC0E07480C0E01233C71581158115816C
:1032220012335590FFFF229000001232BCAE82C0D2
:1032320006123355D0067F008E828F8322E582905C
:103242000409F07E007F00900409E0FD235401246C
:10325200FF9294C007C006C005123362D2931233A4
:1032620062D005D006D007C293ED2D900409F00E6E
:10327200BE00010FC374079EE49F50CBD294D29339
:103282001233623094197417C0E0743FC0E0748046
:10329200C0E01233C715811581158190000022C24A
:1032A20093742CC0E0743FC0E07480C0E01233C756
:1032B20015811581158190000122AF83E58290046A
:1032C2000AF0EFA3F090040CE4F07E007F00C3EE5E
:1032D2009408EF648094805041D294D293C007C086
:1032E20006123362D006D00790040CE025E0F030DD
:1032F200941F8EF005F07C80E4FD3392D28008A208
:10330200D2ED13FDEC13FCD5F0F590040CE0FB4C70
:10331200F0C2930EBE00B70F80B490040AE0FEA381
:10332200E04EB40100E43324FF9294D2931233624C
:10333200C29390040CE0FF7E008F828E83221233B0
:1033420062D294123362D293123362C29412336203
:10335200C29322C294123362D293123362D2942263
:103362007E007F00C3EE94F4EF6480948150070ED8
:07337200BE00F10F80EE2206
:103E290057726974696E67206461746120307825FE
:103E390030325820746F2061646472657373203066
:103E490078253032580A0D004572726F723A204E49
:103E59006F2041434B20666F722064657669636504
:103E690020616464726573732028777269746529A7
:103E79000A0D004572726F723A204E6F2041434B12
:103E890020666F72206D656D6F727920616464724E
:103E99006573730A0D004572726F723A204E6F2076
:103EA90041434B20666F7220646174610A0D0045BD
:103EB90072726F723A204E6F2041434B20666F72C7
:103EC9002064657669636520616464726573732033
:103ED900287772697465206D6F6465290A0D00453C
:103EE90072726F723A204E6F2041434B20666F7297
:103EF9002064657669636520616464726573732003
:103F09002872656164206D6F6465290A0D0041435B
:103F19004B20444944204E4F542041525249564562
:103F29000A0D005472616E736D697373696F6E2047
:0E3F39007375636365737366756C6C0A0D00B7
:06303500E478FFF6D8FD6F
:103013007900E94400601B7A00903F52784675A01E
:1030230004E493F2A308B8000205A0D9F4DAF27518
:02303300A0FFFC
:10303B007800E84400600A790075A004E4F309D82D
:10304B00FC7846E84400600C7901900400E4F0A39E
:04305B00D8FCD9FACA
:10337900C0128581127E008E83123062D01222AF74
:10338900F0AE83E58290040EF0EEA3F0EFA3F09087
:10339900040EE0FDA3E0FEA3E0FF90040DE0FC9025
:1033A9000422E4F0A3F0A3F0900425EDF0EEA3F0DD
:1033B900EFA3F0900428ECF09033790234D0C012D6
:1033C900E581F51224FBFF900422E4F0A3F0A3F0B9
:1033D900E51224FBF8900425E6F008E6A3F008E6D8
:1033E900A3F0900428EFF09033791234D0D0122250
:1033F900E58290041EF0E0FF900414E0C0E0A3E031
:10340900C0E0A3E0C0E0123414800D900412E0C0C3
:10341900E0A3E0C0E08F8222158115811581900417
:103429001CE02401F0A3E03400F022E58290041F9F
:10343900F0E02430FF24C6500D74072FFF900411CB
:10344900E060034307208F820233F9E5829004206C
:10345900F0E0FFC4540FF582C007123434D007538B
:10346900070F8F82023434E582900421F09004170B
:10347900E0FCA3E0FDA3E0FEA3E0FF90041BE0FB5A
:10348900751320900421E0F98B00E828F8EF235404
:103499000148FBEC2CFCED33FDEE33FEEF33FFC3AB
:1034A900EB994007EBC399FB430401E51314FA8A2E
:1034B9001370D5900417ECF0EDA3F0EEA3F0EFA391
:1034C900F090041BEBF022AF83E582900429F0EF22
:1034D900A3F0900429E0FEA3E0FF900412EEF0EFC0
:1034E900A3F0900422E0FDA3E0FEA3E0FF90041402
:1034F900EDF0EEA3F0EFA3F090041CE4F0A3F0903C
:103509000425E0FDA3E0FEA3E0FF8D828E838FF00A
:10351900123E09FC90042574012DF0E43EA3F0EF5E
:10352900A3F0EC7003023DC5BC25028003023DBD3A
:1035390090042BE4F090042CF090042DF090042ECC
:10354900F090042FF0900430F0900431F0900432A0
:10355900F0900434F0900435F0A3F090043714F09F
:10356900A3F0900425E0FDA3E0FEA3E0FF8D828E89
:10357900838FF0123E09FBA3AD82AE83900425ED43
:10358900F0EEA3F0EFA3F090043BEBF0BB25088B22
:10359900821233F9023508BB30005003023669EB59
:1035A90024C65003023669900437E0F508A3E0F514
:1035B9000974FFB50863B50960C005C006C0079066
:1035C9000435E0FAA3E0FF900444EAF0EFA3F09099
:1035D900000AC005C003123DE9AE82AF83D003D013
:1035E900058B027D00EA2EFEED3FFFEE24D0FEEFB3
:1035F90034FFFF900435EEF0EFA3F0D007D006D0EA
:1036090005900435E0F5F0A3E045F0600302357656
:1036190090042C7401F0023576C005C006C00790ED
:103629000444E508F0E509A3F090000AC006C005C6
:10363900C003123DE9AA82AF83D003D005D0067E2C
:1036490000EB2AFAEE3FFFEA24D0FAEF34FFFF90AD
:103659000437EAF0EFA3F0D007D006D0050235769B
:1036690090043BE0FBBB2E2FC005C006C0079004A9
:1036790037E0FAA3E0FFBAFF05BFFF028009D007D0
:10368900D006D005023576D007D006D0059004378C
:10369900E4F0A3F0023576BB61004014EB248540C9
:1036A9000F90043B74DF5BF09004117401F0800506
:1036B900900411E4F090043BE0FBBB20028075BB51
:1036C9002B028067BB2D028059BB4202806FBB432E
:1036D90002807CBB4403023960BB4603023986BBC6
:1036E9004803023576BB4903023960BB4A030235F8
:1036F90076BB4C028050BB4F0302396EBB500302AC
:1037090038CEBB53028077BB5403023576BB5503D1
:10371900023976BB580302397EBB5A030235760259
:10372900398E90042B7401F002357690042D7401C2
:10373900F002357690042E7401F00235769004304B
:103749007401F00235769004317401F002357690F7
:103759000430E0600E900428E014F9F090043BE78F
:10376900F0800F900428E024FEFFF08F0190043BC5
:10377900E7F090043BE0F5821233F902399D900499
:1037890028E024FDFFF08F018705098706098707CF
:103799001919900417EDF0EEA3F0EFA3F08D828EC6
:1037A900838FF0123DD1858208858309900437E023
:1037B900FAA3E0FDBAFF0DBDFF0A900437E508F052
:1037C900E509A3F090042BE0704B900435E0FAA3CF
:1037D900E0FDC3E5089AE5099D503A900435EAC32E
:1037E9009508F0ED9509A3F0900435E0FAA3E0FD02
:1037F9008A068D071ABAFF011DEE4F6010758220E7
:10380900C005C0021233F9D002D00580E390043517
:10381900EAF0EDA3F0900437E0F50BA3E0F50C9086
:103829000417E0FAA3E0FDA3E0FF8A828D838FF0FD
:10383900123E09F50A603CC3E4950B7480850CF0CF
:1038490063F08095F0502C150B74FFB50B02150C25
:10385900850A821233F9900417E0FAA3E0FDA3E088
:10386900FF0ABA00010D900417EAF0EDA3F0EFA3E7
:10387900F080AC90042BE0700302399D900435E090
:10388900FEA3E0FFC3E5089EE5099F400302399DB9
:10389900900435EEC39508F0EF9509A3F09004352F
:1038A900E0FEA3E0FF8E028F051EBEFF011FEA4D59
:1038B9007003023995758220C007C0061233F9D00A
:1038C90006D00780E0900428E024FDFDF08D0187F3
:1038D9000D09870E09870F1919900417E50DF0E5F1
:1038E9000EA3F0E50FA3F0900419E0FDBD800040A0
:1038F9000890043B7443F08020BD600040089004A8
:103909003B7450F08013BD4000400890043B74495B
:10391900F0800690043B7458F090043BE0FDF5827A
:10392900C0051233F975823A1233F97582301233B0
:10393900F97582781233F9D005BD4902800EBD5060
:10394900028009900418E0F582123454900417E0BB
:10395900F582123454803D90042F7401F0900434A0
:10396900740AF0802F9004347408F080279004348E
:10397900740AF0801F9004347410F0801790043298
:103989007401F0800F8B821233F98008900435EEB0
:10399900F0EFA3F0900432E06071900428E024FC79
:1039A900FFF08F018703098705098706098707192A
:1039B9001919900417EBF0EDA3F0EEA3F0EFA3F0C3
:1039C9009004177447F0743FA3F07480A3F0900437
:1039D90017E0F50DA3E0F50EA3E0F50F7401250D31
:1039E900FAE4350EFBAF0F900417EAF0EBA3F0EF02
:1039F900A3F0850D82850E83850FF0123E09FF70B5
:103A0900030235088F821233F980C3900434E070C1
:103A190003023508900430E06047900428E014F967
:103A2900F087077E007D007B00900417EFF0EEA37E
:103A3900F0EDA3F0EBA3F090042FE06003023AE06D
:103A4900900417E0FBA3E0A3E0A3E07D007E007FE4
:103A590000900417EBF0EDA3F0EEA3F0EFA3F080D4
:103A690076900431E06028900428E024FCFFF08F70
:103A79000187030987050987060987071919199015
:103A89000417EBF0EDA3F0EEA3F0EFA3F08048905C
:103A99000428E024FEFFF08F01870609870719EF44
:103AA9003395E0FDFB900417EEF0EFA3F0EDA3F0E2
:103AB900EBA3F090042FE0701E900417E0FBA3E045
:103AC900FDA3E0A3E07E007F00900417EBF0EDA3D7
:103AD900F0EEA3F0EFA3F090042FE06041900417FB
:103AE900E0FBA3E0FDA3E0FEA3E0FF30E72B900499
:103AF90017E0FBA3E0FDA3E0FEA3E0FFC3E49BFB0B
:103B0900E49DFDE49EFEE49FFF900417EBF0EDA316
:103B1900F0EEA3F0EFA3F0800590042FE4F09004F9
:103B2900337401F0900434E0F50B751041751104FC
:103B3900E4F508F50990041BE4F0850B8212347052
:103B4900900433E0702690041BE0C4F50D851082C3
:103B5900851183E0FFE50D4207851082851183EF0A
:103B6900F0151074FFB510021511800C90041BE0BC
:103B7900FF851082851183F00508E4B5080205095F
:103B8900900433E0B40100E433F0900417E0FAA3A1
:103B9900E0FBA3E0FEA3E0FFEA4B4E4F70979004D1
:103BA90042E510F0E511A3F0900439E508F0E509C4
:103BB900A3F0900435E0F5F0A3E045F07009900416
:103BC900357401F0E4A3F090042CE0FFE070479015
:103BD900042BE07041850810850911900435E0FA3D
:103BE900A3E0FBC007AF100F8F067F00C3EE9AEF6B
:103BF9009BD0075019758220C007C003C002123339
:103C0900F9D002D003D0071ABAFF011B80D590045E
:103C190035EAF0EBA3F090042FE0602075822DC007
:103C2900071233F9D007900435E024FFFDA3E034EF
:103C3900FFFE900435EDF0EEA3F08056900439E0D4
:103C4900F5F0A3E045F0604A90042DE0602075820C
:103C59002BC0071233F9D007900435E024FFFDA3E8
:103C6900E034FFFE900435EDF0EEA3F080249004DB
:103C79002EE0601E758220C0071233F9D007900428
:103C890035E024FFFDA3E034FFFE900435EDF0EEAE
:103C9900A3F090042BE07048900439E0F510A3E0FC
:103CA900F511900435E0FAA3E0FBC0078A068B07FB
:103CB9001ABAFF011BC3E5109EE5119FD0075053A7
:103CC900EF60067D307E0080047D207E008D82C0FD
:103CD90007C003C0021233F9D002D003D00780CA4B
:103CE900900435E0FEA3E0FF900439E0F510A3E06D
:103CF900F511C3E5109EE5119F500F900435EEC3F1
:103D09009510F0EF9511A3F08011900435E4F0A31C
:103D1900F08008900435EAF0EBA3F0900442E0FE4D
:103D2900A3E0FF900439E0F510A3E0F511AA10AD66
:103D390011151074FFB510021511EA4D6045900474
:103D490033E0B40100E433F0900433E070140EBEA4
:103D590000010F8E828F83E0C4540FFD90041BF085
:103D6900800E8E828F83E0FD53050F90041BEDF0CA
:103D790090041BE0F582C007C006123434D006D087
:103D89000780AA90042BE07003023508900435E0FF
:103D9900FEA3E0FF8E038F051EBEFF011FEB4D70D2
:103DA90003023508758220C007C0061233F9D00610
:103DB900D00780E08C821233F902350890041CE0A8
:083DC900FEA3E08E82F58322C7
:0B3F47003C4E4F20464C4F41543E00C2
:103DD100AA82AB83123E096003A380F8C3E5829AED
:103DE100F582E5839BF58322AA83AB828BF0900455
:103DF10044E0A4F8A9F08AF0E0A429F98BF0A3E04B
:083E0100A429F5838882222226
:0D300600758113123E25E582600302300340
:103E090020F71430F6148883A88220F507E6A883E2
:103E190075830022E280F7E49322E0227582002272
:00000001FF
