:03200000022006B5
:03205F0002200359
:032003000220C2F6
:10206200AF83E582900400F0EFA3F0900400E0FE5D
:10207200A3E0FF8E9910990280FB8E828F8322103B
:10208200980280FBAE997F008E828F8322AF83E518
:1020920082900402F0EFA3F0900402E0FEA3E0FFBE
:1020A2007C007D00C3EC9EED9F50147A7B7B001A6E
:1020B200BAFF011BEA4B70F70CBC00E80D80E52269
:1020C200D291740CC0E0742CC0E07480C0E0122184
:1020D200AA15811581158175821F1221107582182A
:1020E20012211090000512208F758200122110908B
:1020F200000512208F7428C0E0742CC0E07480C0E8
:10210200E01221AA15811581158190000022E58235
:10211200900404F0C2917E007F00900404E0FD234D
:10212200540124FF9297D296C296ED2D900404F0AA
:102132000EBE00010FC374079EE49F50DDD2919042
:102142000001227E007F00C3EE94F4EF648094814C
:0A21520050070EBE00F10F80EE22D0
:102C0C002020535049204249542042414E47494EBE
:102C1C00472050524F4752414D0A0D002020495435
:092C2C005320444F4E450A0D00EF
:06203500E478FFF6D8FD7F
:102013007900E94400601B7A00902C40783E75A05B
:1020230004E493F2A308B8000205A0D9F4DAF27528
:02203300A0FF0C
:10203B007800E84400600A790075A004E4F309D83D
:10204B00FC783EE84400600C7901900400E4F0A3B6
:04205B00D8FCD9FADA
:10215C00C0128581127E008E83122062D01222AFB3
:10216C00F0AE83E582900406F0EEA3F0EFA3F090BE
:10217C000406E0FDA3E0FEA3E0FF900405E0FC9064
:10218C00041AE4F0A3F0A3F090041DEDF0EEA3F01C
:10219C00EFA3F0900420ECF090215C0222B3C0126B
:1021AC00E581F51224FBFF90041AE4F0A3F0A3F0F0
:1021BC00E51224FBF890041DE6F008E6A3F008E60F
:1021CC00A3F0900420EFF090215C1222B3D01222E5
:1021DC00E582900416F0E0FF90040CE0C0E0A3E070
:1021EC00C0E0A3E0C0E01221F7800D90040AE0C02B
:1021FC00E0A3E0C0E08F8222158115811581900447
:10220C0014E02401F0A3E03400F022E582900417DE
:10221C00F0E02430FF24C6500D74072FFF90040902
:10222C00E060034307208F820221DCE582900418D2
:10223C00F0E0FFC4540FF582C007122217D00753E9
:10224C00070F8F82022217E582900419F090040F79
:10225C00E0FCA3E0FDA3E0FEA3E0FF900413E0FB91
:10226C00751320900419E0F98B00E828F8EF23543B
:10227C000148FBEC2CFCED33FDEE33FEEF33FFC3DA
:10228C00EB994007EBC399FB430401E51314FA8A5D
:10229C001370D590040FECF0EDA3F0EEA3F0EFA3C8
:1022AC00F0900413EBF022AF83E582900421F0EF61
:1022BC00A3F0900421E0FEA3E0FF90040AEEF0EFFF
:1022CC00A3F090041AE0FDA3E0FEA3E0FF90040C41
:1022DC00EDF0EEA3F0EFA3F0900414E4F0A3F09073
:1022EC00041DE0FDA3E0FEA3E0FF8D828E838FF042
:1022FC00122BECFC90041D74012DF0E43EA3F0EFC6
:10230C00A3F0EC7003022BA8BC25028003022BA0C7
:10231C00900423E4F0900424F0900425F09004261B
:10232C00F0900427F0900428F0900429F090042AEF
:10233C00F090042CF090042DF0A3F090042F14F0E6
:10234C00A3F090041DE0FDA3E0FEA3E0FF8D828EC0
:10235C00838FF0122BECFBA3AD82AE8390041DEDAA
:10236C00F0EEA3F0EFA3F0900433EBF0BB25088B59
:10237C00821221DC0222EBBB3000500302244CEB16
:10238C0024C6500302244C90042FE0F508A3E0F57A
:10239C000974FFB50863B50960C005C006C0079095
:1023AC00042DE0FAA3E0FF90043CEAF0EFA3F090D8
:1023BC00000AC005C003122BCCAE82AF83D003D071
:1023CC00058B027D00EA2EFEED3FFFEE24D0FEEFE2
:1023DC0034FFFF90042DEEF0EFA3F0D007D006D021
:1023EC000590042DE0F5F0A3E045F06003022359BD
:1023FC009004247401F0022359C005C006C0079054
:10240C00043CE508F0E509A3F090000AC006C005FD
:10241C00C003122BCCAA82AF83D003D005D0067E8A
:10242C0000EB2AFAEE3FFFEA24D0FAEF34FFFF90DC
:10243C00042FEAF0EFA3F0D007D006D00502235901
:10244C00900433E0FBBB2E2FC005C006C0079004E0
:10245C002FE0FAA3E0FFBAFF05BFFF028009D00707
:10246C00D006D005022359D007D006D00590042FF2
:10247C00E4F0A3F0022359BB61004014EB24854027
:10248C000F90043374DF5BF09004097401F0800545
:10249C00900409E4F0900433E0FBBB20028075BB90
:1024AC002B028067BB2D028059BB4202806FBB435D
:1024BC0002807CBB4403022743BB4603022769BB53
:1024CC004803022359BB4903022743BB4A03022397
:1024DC0059BB4C028050BB4F03022751BB50030227
:1024EC0026B1BB53028077BB5403022359BB55035F
:1024FC00022759BB5803022761BB5A030223590216
:10250C0027719004237401F002235990042574015F
:10251C00F00223599004267401F0022359900428E8
:10252C007401F00223599004297401F0022359908C
:10253C000428E0600E900420E014F9F0900433E7D6
:10254C00F0800F900420E024FEFFF08F0190043304
:10255C00E7F0900433E0F5821221DC02278090042E
:10256C0020E024FDFFF08F01870509870609870706
:10257C00191990040FEDF0EEA3F0EFA3F08D828EFD
:10258C00838FF0122BB485820885830990042FE089
:10259C00FAA3E0FDBAFF0DBDFF0A90042FE508F089
:1025AC00E509A3F0900423E0704B90042DE0FAA30E
:1025BC00E0FDC3E5089AE5099D503A90042DEAC365
:1025CC009508F0ED9509A3F090042DE0FAA3E0FD39
:1025DC008A068D071ABAFF011DEE4F601075822016
:1025EC00C005C0021221DCD002D00580E390042D7E
:1025FC00EAF0EDA3F090042FE0F50BA3E0F50C90BE
:10260C00040FE0FAA3E0FDA3E0FF8A828D838FF034
:10261C00122BECF50A603CC3E4950B7480850CF02E
:10262C0063F08095F0502C150B74FFB50B02150C54
:10263C00850A821221DC90040FE0FAA3E0FDA3E0EE
:10264C00FF0ABA00010D90040FEAF0EDA3F0EFA31E
:10265C00F080AC900423E0700302278090042DE0FE
:10266C00FEA3E0FFC3E5089EE5099F400302278017
:10267C0090042DEEC39508F0EF9509A3F090042D6E
:10268C00E0FEA3E0FF8E028F051EBEFF011FEA4D88
:10269C007003022778758220C007C0061221DCD097
:1026AC0006D00780E0900420E024FDFDF08D01872A
:1026BC000D09870E09870F191990040FE50DF0E528
:1026CC000EA3F0E50FA3F0900411E0FDBD800040D7
:1026DC00089004337443F08020BD600040089004DF
:1026EC00337450F08013BD4000400890043374499B
:1026FC00F080069004337458F0900433E0FDF582BA
:10270C00C0051221DC75823A1221DC75823012214F
:10271C00DC7582781221DCD005BD4902800EBD50DB
:10272C00028009900410E0F58212223790040FE029
:10273C00F582122237803D9004277401F090042C0E
:10274C00740AF0802F90042C7408F0802790042CCD
:10275C00740AF0801F90042C7410F0801790042AD7
:10276C007401F0800F8B821221DC800890042DEE16
:10277C00F0EFA3F090042AE06071900420E024FCB8
:10278C00FFF08F0187030987050987060987071959
:10279C00191990040FEBF0EDA3F0EEA3F0EFA3F0FA
:1027AC0090040F7435F0742CA3F07480A3F0900493
:1027BC000FE0F50DA3E0F50EA3E0F50F7401250D68
:1027CC00FAE4350EFBAF0F90040FEAF0EBA3F0EF39
:1027DC00A3F0850D82850E83850FF0122BECFF7014
:1027EC00030222EB8F821221DC80C390042CE07058
:1027FC00030222EB900428E06047900420E014F9D7
:10280C00F087077E007D007B0090040FEFF0EEA3B5
:10281C00F0EDA3F0EBA3F0900427E060030228C3D3
:10282C0090040FE0FBA3E0A3E0A3E07D007E007F1B
:10283C000090040FEBF0EDA3F0EEA3F0EFA3F0800B
:10284C0076900429E06028900420E024FCFFF08FAF
:10285C000187030987050987060987071919199044
:10286C00040FEBF0EDA3F0EEA3F0EFA3F080489093
:10287C000420E024FEFFF08F01870609870719EF7B
:10288C003395E0FDFB90040FEEF0EFA3F0EDA3F019
:10289C00EBA3F0900427E0701E90040FE0FBA3E084
:1028AC00FDA3E0A3E07E007F0090040FEBF0EDA30E
:1028BC00F0EEA3F0EFA3F0900427E0604190040F3A
:1028CC00E0FBA3E0FDA3E0FEA3E0FF30E72B9004C8
:1028DC000FE0FBA3E0FDA3E0FEA3E0FFC3E49BFB42
:1028EC00E49DFDE49EFEE49FFF90040FEBF0EDA34E
:1028FC00F0EEA3F0EFA3F08005900427E4F0900431
:10290C002B7401F090042CE0F50B75103975110443
:10291C00E4F508F509900413E4F0850B82122253B8
:10292C0090042BE07026900413E0C4F50D85108202
:10293C00851183E0FFE50D4207851082851183EF39
:10294C00F0151074FFB510021511800C900413E0F3
:10295C00FF851082851183F00508E4B5080205098E
:10296C0090042BE0B40100E433F090040FE0FAA3E0
:10297C00E0FBA3E0FEA3E0FFEA4B4E4F7097900400
:10298C003AE510F0E511A3F0900431E508F0E50903
:10299C00A3F090042DE0F5F0A3E045F0700990044D
:1029AC002D7401F0E4A3F0900424E0FFE070479054
:1029BC000423E0704185081085091190042DE0FA7C
:1029CC00A3E0FBC007AF100F8F067F00C3EE9AEF9A
:1029DC009BD0075019758220C007C003C00212217A
:1029EC00DCD002D003D0071ABAFF011B80D59004AB
:1029FC002DEAF0EBA3F0900427E0602075822DC047
:102A0C00071221DCD00790042DE024FFFDA3E03455
:102A1C00FFFE90042DEDF0EEA3F08056900431E013
:102A2C00F5F0A3E045F0604A900425E06020758243
:102A3C002BC0071221DCD00790042DE024FFFDA34E
:102A4C00E034FFFE90042DEDF0EEA3F08024900412
:102A5C0026E0601E758220C0071221DCD00790048E
:102A6C002DE024FFFDA3E034FFFE90042DEDF0EEED
:102A7C00A3F0900423E07048900431E0F510A3E03B
:102A8C00F51190042DE0FAA3E0FBC0078A068B0732
:102A9C001ABAFF011BC3E5109EE5119FD0075053D6
:102AAC00EF60067D307E0080047D207E008D82C02C
:102ABC0007C003C0021221DCD002D003D00780CAA9
:102ACC0090042DE0FEA3E0FF900431E0F510A3E0AC
:102ADC00F511C3E5109EE5119F500F90042DEEC328
:102AEC009510F0EF9511A3F0801190042DE4F0A354
:102AFC00F0800890042DEAF0EBA3F090043AE0FE8D
:102B0C00A3E0FF900431E0F510A3E0F511AA10AD9D
:102B1C0011151074FFB510021511EA4D60459004A3
:102B2C002BE0B40100E433F090042BE070140EBEE3
:102B3C0000010F8E828F83E0C4540FFD900413F0BC
:102B4C00800E8E828F83E0FD53050F900413EDF001
:102B5C00900413E0F582C007C006122217D006D0ED
:102B6C000780AA900423E070030222EB90042DE06E
:102B7C00FEA3E0FF8E038F051EBEFF011FEB4D7001
:102B8C00030222EB758220C007C0061221DCD0069E
:102B9C00D00780E08C821221DC0222EB900414E03E
:082BAC00FEA3E08E82F58322F6
:0B2C35003C4E4F20464C4F41543E00E7
:102BB400AA82AB83122BEC6003A380F8C3E5829A4C
:102BC400F582E5839BF58322AA83AB828BF0900484
:102BD4003CE0A4F8A9F08AF0E0A429F98BF0A3E082
:082BE400A429F5838882222256
:0D200600758113122C08E58260030220038F
:102BEC0020F71430F6148883A88220F507E6A88312
:102BFC0075830022E280F7E49322E02275820022A2
:00000001FF
