:03200000022006B5
:03205F0002200359
:0320030002208F29
:10206200AF83E582900400F0EFA3F0900400E0FE5D
:10207200A3E0FF8E9910990280FB8E828F8322103B
:10208200980280FBAE997F008E828F832274D7C024
:10209200E0742BC0E07480C0E012217515811581B7
:1020A200158175821F1220C97582F01220C974F140
:1020B200C0E0742BC0E07480C0E012217515811558
:1020C20081158190000022E582900402F0C2917E87
:1020D200007F00900402E0FD23540124FF9297C088
:1020E20007C006C005122110D296122110D005D0C9
:1020F20006D007C296ED2D900402F00EBE00010F2D
:10210200C374079EE49F50CBD291900001227E00BF
:102112007F00C3EE94F4EF6480948150070EBE00FA
:05212200F10F80EE2228
:102BD700535049204249542042414E47494E4720CD
:102BE70050524F4752414D0A0D0049545320444F0C
:052BF7004E450A0D002F
:06203500E478FFF6D8FD7F
:102013007900E94400601B7A00902C07783C75A096
:1020230004E493F2A308B8000205A0D9F4DAF27528
:02203300A0FF0C
:10203B007800E84400600A790075A004E4F309D83D
:10204B00FC783CE84400600C7901900400E4F0A3B8
:04205B00D8FCD9FADA
:10212700C0128581127E008E83122062D01222AFE8
:10213700F0AE83E582900404F0EEA3F0EFA3F090F5
:102147000404E0FDA3E0FEA3E0FF900403E0FC909D
:102157000418E4F0A3F0A3F090041BEDF0EEA3F055
:10216700EFA3F090041EECF090212702227EC0120C
:10217700E581F51224FBFF900418E4F0A3F0A3F027
:10218700E51224FBF890041BE6F008E6A3F008E646
:10219700A3F090041EEFF090212712227ED0122286
:1021A700E582900414F0E0FF90040AE0C0E0A3E0A9
:1021B700C0E0A3E0C0E01221C2800D900408E0C097
:1021C700E0A3E0C0E08F822215811581158190047C
:1021D70012E02401F0A3E03400F022E58290041518
:1021E700F0E02430FF24C6500D74072FFF9004073A
:1021F700E060034307208F820221A7E5829004163F
:10220700F0E0FFC4540FF582C0071221E2D0075354
:10221700070F8F820221E2E582900417F090040DE8
:10222700E0FCA3E0FDA3E0FEA3E0FF900411E0FBC8
:10223700751320900417E0F98B00E828F8EF235472
:102247000148FBEC2CFCED33FDEE33FEEF33FFC30F
:10225700EB994007EBC399FB430401E51314FA8A92
:102267001370D590040DECF0EDA3F0EEA3F0EFA3FF
:10227700F0900411EBF022AF83E58290041FF0EF9A
:10228700A3F090041FE0FEA3E0FF900408EEF0EF38
:10229700A3F0900418E0FDA3E0FEA3E0FF90040A7A
:1022A700EDF0EEA3F0EFA3F0900412E4F0A3F090AA
:1022B700041BE0FDA3E0FEA3E0FF8D828E838FF079
:1022C700122BB7FC90041B74012DF0E43EA3F0EF32
:1022D700A3F0EC7003022B73BC25028003022B6B67
:1022E700900421E4F0900422F0900423F090042459
:1022F700F0900425F0900426F0900427F09004282D
:10230700F090042AF090042BF0A3F090042D14F021
:10231700A3F090041BE0FDA3E0FEA3E0FF8D828EF7
:10232700838FF0122BB7FBA3AD82AE8390041BED16
:10233700F0EEA3F0EFA3F0900431EBF0BB25088B90
:10234700821221A70222B6BB30005003022417EBEA
:1023570024C6500302241790042DE0F508A3E0F5E6
:102367000974FFB50863B50960C005C006C00790CA
:10237700042BE0FAA3E0FF90043AEAF0EFA3F09011
:10238700000AC005C003122B97AE82AF83D003D0DB
:10239700058B027D00EA2EFEED3FFFEE24D0FEEF17
:1023A70034FFFF90042BEEF0EFA3F0D007D006D058
:1023B7000590042BE0F5F0A3E045F0600302232429
:1023C7009004227401F0022324C005C006C00790C0
:1023D700043AE508F0E509A3F090000AC006C00535
:1023E700C003122B97AA82AF83D003D005D0067EF5
:1023F70000EB2AFAEE3FFFEA24D0FAEF34FFFF9012
:10240700042DEAF0EFA3F0D007D006D0050223246D
:10241700900431E0FBBB2E2FC005C006C007900417
:102427002DE0FAA3E0FFBAFF05BFFF028009D0073E
:10243700D006D005022324D007D006D00590042D5E
:10244700E4F0A3F0022324BB61004014EB24854091
:102457000F90043174DF5BF09004077401F080057E
:10246700900407E4F0900431E0FBBB20028075BBC9
:102477002B028067BB2D028059BB4202806FBB4392
:1024870002807CBB440302270EBB4603022734BBF2
:102497004803022324BB490302270EBB4A03022336
:1024A70024BB4C028050BB4F0302271CBB500302C6
:1024B700267CBB53028077BB5403022324BB5503FE
:1024C700022724BB580302272CBB5A0302232402EA
:1024D700273C9004217401F0022324900423740103
:1024E700F00223249004247401F00223249004268C
:1024F7007401F00223249004277401F0022324902E
:102507000426E0600E90041EE014F9F0900431E711
:10251700F0800F90041EE024FEFFF08F019004313D
:10252700E7F0900431E0F5821221A702274B9004CF
:102537001EE024FDFFF08F0187050987060987073D
:10254700191990040DEDF0EEA3F0EFA3F08D828E34
:10255700838FF0122B7F85820885830990042DE0F5
:10256700FAA3E0FDBAFF0DBDFF0A90042DE508F0C0
:10257700E509A3F0900421E0704B90042BE0FAA347
:10258700E0FDC3E5089AE5099D503A90042BEAC39C
:102597009508F0ED9509A3F090042BE0FAA3E0FD70
:1025A7008A068D071ABAFF011DEE4F60107582204B
:1025B700C005C0021221A7D002D00580E390042BEA
:1025C700EAF0EDA3F090042DE0F50BA3E0F50C90F5
:1025D700040DE0FAA3E0FDA3E0FF8A828D838FF06C
:1025E700122BB7F50A603CC3E4950B7480850CF099
:1025F70063F08095F0502C150B74FFB50B02150C8A
:10260700850A821221A790040DE0FAA3E0FDA3E05A
:10261700FF0ABA00010D90040DEAF0EDA3F0EFA355
:10262700F080AC900421E0700302274B90042BE06C
:10263700FEA3E0FFC3E5089EE5099F400302274B81
:1026470090042BEEC39508F0EF9509A3F090042BA7
:10265700E0FEA3E0FF8E028F051EBEFF011FEA4DBD
:102667007003022743758220C007C0061221A7D036
:1026770006D00780E090041EE024FDFDF08D018761
:102687000D09870E09870F191990040DE50DF0E55F
:102697000EA3F0E50FA3F090040FE0FDBD8000400E
:1026A700089004317443F08020BD60004008900416
:1026B700317450F08013BD400040089004317449D4
:1026C700F080069004317458F0900431E0FDF582F3
:1026D700C0051221A775823A1221A77582301221EF
:1026E700A77582781221A7D005BD4902800EBD507B
:1026F70002800990040EE0F58212220290040DE098
:10270700F582122202803D9004257401F090042A7C
:10271700740AF0802F90042A7408F0802790042A06
:10272700740AF0801F90042A7410F0801790042810
:102737007401F0800F8B821221A7800890042BEE82
:10274700F0EFA3F0900428E0607190041EE024FCF1
:10275700FFF08F018703098705098706098707198E
:10276700191990040DEBF0EDA3F0EEA3F0EFA3F031
:1027770090040D74FCF0742BA3F07480A3F0900404
:102787000DE0F50DA3E0F50EA3E0F50F7401250D9F
:10279700FAE4350EFBAF0F90040DEAF0EBA3F0EF70
:1027A700A3F0850D82850E83850FF0122BB7FF707E
:1027B700030222B68F821221A780C390042AE070F9
:1027C700030222B6900426E0604790041EE014F945
:1027D700F087077E007D007B0090040DEFF0EEA3ED
:1027E700F0EDA3F0EBA3F0900425E0600302288E40
:1027F70090040DE0FBA3E0A3E0A3E07D007E007F53
:102807000090040DEBF0EDA3F0EEA3F0EFA3F08042
:1028170076900427E0602890041EE024FCFFF08FE8
:102827000187030987050987060987071919199079
:10283700040DEBF0EDA3F0EEA3F0EFA3F0804890CA
:10284700041EE024FEFFF08F01870609870719EFB2
:102857003395E0FDFB90040DEEF0EFA3F0EDA3F050
:10286700EBA3F0900425E0701E90040DE0FBA3E0BD
:10287700FDA3E0A3E07E007F0090040DEBF0EDA345
:10288700F0EEA3F0EFA3F0900425E0604190040D73
:10289700E0FBA3E0FDA3E0FEA3E0FF30E72B9004FD
:1028A7000DE0FBA3E0FDA3E0FEA3E0FFC3E49BFB79
:1028B700E49DFDE49EFEE49FFF90040DEBF0EDA385
:1028C700F0EEA3F0EFA3F08005900425E4F0900468
:1028D700297401F090042AE0F50B7510377511047F
:1028E700E4F508F509900411E4F0850B8212221E25
:1028F700900429E07026900411E0C4F50D8510823C
:10290700851183E0FFE50D4207851082851183EF6E
:10291700F0151074FFB510021511800C900411E02A
:10292700FF851082851183F00508E4B508020509C3
:10293700900429E0B40100E433F090040DE0FAA319
:10294700E0FBA3E0FEA3E0FFEA4B4E4F7097900435
:1029570038E510F0E511A3F090042FE508F0E5093C
:10296700A3F090042BE0F5F0A3E045F07009900484
:102977002B7401F0E4A3F0900422E0FFE07047908D
:102987000421E0704185081085091190042BE0FAB5
:10299700A3E0FBC007AF100F8F067F00C3EE9AEFCF
:1029A7009BD0075019758220C007C003C0021221AF
:1029B700A7D002D003D0071ABAFF011B80D5900415
:1029C7002BEAF0EBA3F0900425E0602075822DC080
:1029D700071221A7D00790042BE024FFFDA3E034C2
:1029E700FFFE90042BEDF0EEA3F0805690042FE04D
:1029F700F5F0A3E045F0604A900423E0602075827B
:102A07002BC0071221A7D00790042BE024FFFDA3BA
:102A1700E034FFFE90042BEDF0EEA3F08024900449
:102A270024E0601E758220C0071221A7D0079004FA
:102A37002BE024FFFDA3E034FFFE90042BEDF0EE26
:102A4700A3F0900421E0704890042FE0F510A3E074
:102A5700F51190042BE0FAA3E0FBC0078A068B0769
:102A67001ABAFF011BC3E5109EE5119FD00750530B
:102A7700EF60067D307E0080047D207E008D82C061
:102A870007C003C0021221A7D002D003D00780CA13
:102A970090042BE0FEA3E0FF90042FE0F510A3E0E5
:102AA700F511C3E5109EE5119F500F90042BEEC35F
:102AB7009510F0EF9511A3F0801190042BE4F0A38B
:102AC700F0800890042BEAF0EBA3F0900438E0FEC6
:102AD700A3E0FF90042FE0F510A3E0F511AA10ADD5
:102AE70011151074FFB510021511EA4D60459004D9
:102AF70029E0B40100E433F0900429E070140EBE1D
:102B070000010F8E828F83E0C4540FFD900411F0F3
:102B1700800E8E828F83E0FD53050F900411EDF038
:102B2700900411E0F582C007C0061221E2D006D05A
:102B37000780AA900421E070030222B690042BE0DC
:102B4700FEA3E0FF8E038F051EBEFF011FEB4D7036
:102B5700030222B6758220C007C0061221A7D0063D
:102B6700D00780E08C821221A70222B6900412E0DF
:082B7700FEA3E08E82F583222B
:0B2BFC003C4E4F20464C4F41543E0021
:102B7F00AA82AB83122BB76003A380F8C3E5829AB6
:102B8F00F582E5839BF58322AA83AB828BF09004B9
:102B9F003AE0A4F8A9F08AF0E0A429F98BF0A3E0B9
:082BAF00A429F583888222228B
:0D200600758113122BD3E5826003022003C5
:102BB70020F71430F6148883A88220F507E6A88347
:102BC70075830022E280F7E49322E02275820022D7
:00000001FF
