:03200000022006B5
:03205F0002200359
:0320030002208F29
:20206200AF83E582900400F0EFA3F0900400E0FEA3E0FF8E9910990280FB8E828F8322102A
:20208200980280FBAE997F008E828F8322D29174DFC0E0742BC0E07480C0E012217D1581B0
:2020A2001581158175821F1220D17582181220D17582001220D174FBC0E0742BC0E074808B
:2020C200C0E012217D15811581158190000022E582900402F0C2917E007F00900402E0FD8A
:2020E20023540124FF9297C007C006C005122118D296122118D005D006D007C296ED2D9046
:202102000402F00EBE00010FC374079EE49F50CBD291900001227E007F00C3EE94F4EF64D2
:0D21220080948150070EBE00F10F80EE2268
:202BDF002020535049204249542042414E47494E472050524F4752414D0A0D002020495469
:092BFF005320444F4E450A0D001D
:06203500E478FFF6D8FD7F
:202013007900E94400601B7A00902C13783C75A004E493F2A308B8000205A0D9F4DAF275F5
:02203300A0FF0C
:20203B007800E84400600A790075A004E4F309D8FC783CE84400600C7901900400E4F0A360
:04205B00D8FCD9FADA
:20212F00C0128581127E008E83122062D01222AFF0AE83E582900404F0EEA3F0EFA3F0902D
:20214F000404E0FDA3E0FEA3E0FF900403E0FC900418E4F0A3F0A3F090041BEDF0EEA3F062
:20216F00EFA3F090041EECF090212F022286C012E581F51224FBFF900418E4F0A3F0A3F0B3
:20218F00E51224FBF890041BE6F008E6A3F008E6A3F090041EEFF090212F122286D012226C
:2021AF00E582900414F0E0FF90040AE0C0E0A3E0C0E0A3E0C0E01221CA800D900408E0C008
:2021CF00E0A3E0C0E08F8222158115811581900412E02401F0A3E03400F022E58290041584
:2021EF00F0E02430FF24C6500D74072FFF900407E060034307208F820221AFE58290041681
:20220F00F0E0FFC4540FF582C0071221EAD00753070F8F820221EAE582900417F090040D5D
:20222F00E0FCA3E0FDA3E0FEA3E0FF900411E0FB751320900417E0F98B00E828F8EF23548B
:20224F000148FBEC2CFCED33FDEE33FEEF33FFC3EB994007EBC399FB430401E51314FA8A12
:20226F001370D590040DECF0EDA3F0EEA3F0EFA3F0900411EBF022AF83E58290041FF0EF2A
:20228F00A3F090041FE0FEA3E0FF900408EEF0EFA3F0900418E0FDA3E0FEA3E0FF90040A63
:2022AF00EDF0EEA3F0EFA3F0900412E4F0A3F090041BE0FDA3E0FEA3E0FF8D828E838FF0F4
:2022CF00122BBFFC90041B74012DF0E43EA3F0EFA3F0EC7003022B7BBC25028003022B7372
:2022EF00900421E4F0900422F0900423F0900424F0900425F0900426F0900427F090042897
:20230F00F090042AF090042BF0A3F090042D14F0A3F090041BE0FDA3E0FEA3E0FF8D828E4A
:20232F00838FF0122BBFFBA3AD82AE8390041BEDF0EEA3F0EFA3F0900431EBF0BB25088BF0
:20234F00821221AF0222BEBB3000500302241FEB24C6500302241F90042DE0F508A3E0F522
:20236F000974FFB50863B50960C005C006C00790042BE0FAA3E0FF90043AEAF0EFA3F0906D
:20238F00000AC005C003122B9FAE82AF83D003D0058B027D00EA2EFEED3FFFEE24D0FEEF9C
:2023AF0034FFFF90042BEEF0EFA3F0D007D006D00590042BE0F5F0A3E045F0600302232C4B
:2023CF009004227401F002232CC005C006C00790043AE508F0E509A3F090000AC006C005DF
:2023EF00C003122B9FAA82AF83D003D005D0067E00EB2AFAEE3FFFEA24D0FAEF34FFFF9011
:20240F00042DEAF0EFA3F0D007D006D00502232C900431E0FBBB2E2FC005C006C0079004AF
:20242F002DE0FAA3E0FFBAFF05BFFF028009D007D006D00502232CD007D006D00590042DE7
:20244F00E4F0A3F002232CBB61004014EB2485400F90043174DF5BF09004077401F080057A
:20246F00900407E4F0900431E0FBBB20028075BB2B028067BB2D028059BB4202806FBB43EE
:20248F0002807CBB4403022716BB460302273CBB480302232CBB4903022716BB4A030223BB
:2024AF002CBB4C028050BB4F03022724BB5003022684BB53028077BB540302232CBB550377
:2024CF0002272CBB5803022734BB5A0302232C0227449004217401F002232C9004237401B8
:2024EF00F002232C9004247401F002232C9004267401F002232C9004277401F002232C90AD
:20250F000426E0600E90041EE014F9F0900431E7F0800F90041EE024FEFFF08F0190043182
:20252F00E7F0900431E0F5821221AF02275390041EE024FDFFF08F01870509870609870750
:20254F00191990040DEDF0EEA3F0EFA3F08D828E838FF0122B8785820885830990042DE095
:20256F00FAA3E0FDBAFF0DBDFF0A90042DE508F0E509A3F0900421E0704B90042BE0FAA39B
:20258F00E0FDC3E5089AE5099D503A90042BEAC39508F0ED9509A3F090042BE0FAA3E0FDC0
:2025AF008A068D071ABAFF011DEE4F6010758220C005C0021221AFD002D00580E390042B01
:2025CF00EAF0EDA3F090042DE0F50BA3E0F50C90040DE0FAA3E0FDA3E0FF8A828D838FF055
:2025EF00122BBFF50A603CC3E4950B7480850CF063F08095F0502C150B74FFB50B02150C2F
:20260F00850A821221AF90040DE0FAA3E0FDA3E0FF0ABA00010D90040DEAF0EDA3F0EFA3DC
:20262F00F080AC900421E0700302275390042BE0FEA3E0FFC3E5089EE5099F400302275332
:20264F0090042BEEC39508F0EF9509A3F090042BE0FEA3E0FF8E028F051EBEFF011FEA4DD9
:20266F00700302274B758220C007C0061221AFD006D00780E090041EE024FDFDF08D01871C
:20268F000D09870E09870F191990040DE50DF0E50EA3F0E50FA3F090040FE0FDBD80004022
:2026AF00089004317443F08020BD600040089004317450F08013BD400040089004317449BF
:2026CF00F080069004317458F0900431E0FDF582C0051221AF75823A1221AF7582301221C7
:2026EF00AF7582781221AFD005BD4902800EBD5002800990040EE0F58212220A90040DE010
:20270F00F58212220A803D9004257401F090042A740AF0802F90042A7408F0802790042AB0
:20272F00740AF0801F90042A7410F080179004287401F0800F8B821221AF800890042BEEE0
:20274F00F0EFA3F0900428E0607190041EE024FCFFF08F01870309870509870609870719F5
:20276F00191990040DEBF0EDA3F0EEA3F0EFA3F090040D7408F0742CA3F07480A3F09004BE
:20278F000DE0F50DA3E0F50EA3E0F50F7401250DFAE4350EFBAF0F90040DEAF0EBA3F0EFC5
:2027AF00A3F0850D82850E83850FF0122BBFFF70030222BE8F821221AF80C390042AE07035
:2027CF00030222BE900426E0604790041EE014F9F087077E007D007B0090040DEFF0EEA320
:2027EF00F0EDA3F0EBA3F0900425E0600302289690040DE0FBA3E0A3E0A3E07D007E007FA1
:20280F000090040DEBF0EDA3F0EEA3F0EFA3F08076900427E0602890041EE024FCFFF08F61
:20282F0001870309870509870609870719191990040DEBF0EDA3F0EEA3F0EFA3F08048909A
:20284F00041EE024FEFFF08F01870609870719EF3395E0FDFB90040DEEF0EFA3F0EDA3F079
:20286F00EBA3F0900425E0701E90040DE0FBA3E0FDA3E0A3E07E007F0090040DEBF0EDA399
:20288F00F0EEA3F0EFA3F0900425E0604190040DE0FBA3E0FDA3E0FEA3E0FF30E72B900427
:2028AF000DE0FBA3E0FDA3E0FEA3E0FFC3E49BFBE49DFDE49EFEE49FFF90040DEBF0EDA3D5
:2028CF00F0EEA3F0EFA3F08005900425E4F09004297401F090042AE0F50B751037751104DE
:2028EF00E4F508F509900411E4F0850B82122226900429E07026900411E0C4F50D85108270
:20290F00851183E0FFE50D4207851082851183EFF0151074FFB510021511800C900411E0D0
:20292F00FF851082851183F00508E4B508020509900429E0B40100E433F090040DE0FAA334
:20294F00E0FBA3E0FEA3E0FFEA4B4E4F7097900438E510F0E511A3F090042FE508F0E509E9
:20296F00A3F090042BE0F5F0A3E045F0700990042B7401F0E4A3F0900422E0FFE0704790A9
:20298F000421E0704185081085091190042BE0FAA3E0FBC007AF100F8F067F00C3EE9AEF3C
:2029AF009BD0075019758220C007C003C0021221AFD002D003D0071ABAFF011B80D5900494
:2029CF002BEAF0EBA3F0900425E0602075822DC0071221AFD00790042BE024FFFDA3E03432
:2029EF00FFFE90042BEDF0EEA3F0805690042FE0F5F0A3E045F0604A900423E060207582E0
:202A0F002BC0071221AFD00790042BE024FFFDA3E034FFFE90042BEDF0EEA3F08024900434
:202A2F0024E0601E758220C0071221AFD00790042BE024FFFDA3E034FFFE90042BEDF0EE71
:202A4F00A3F0900421E0704890042FE0F510A3E0F51190042BE0FAA3E0FBC0078A068B0756
:202A6F001ABAFF011BC3E5109EE5119FD0075053EF60067D307E0080047D207E008D82C005
:202A8F0007C003C0021221AFD002D003D00780CA90042BE0FEA3E0FF90042FE0F510A3E0A9
:202AAF00F511C3E5109EE5119F500F90042BEEC39510F0EF9511A3F0801190042BE4F0A3C3
:202ACF00F0800890042BEAF0EBA3F0900438E0FEA3E0FF90042FE0F510A3E0F511AA10AD94
:202AEF0011151074FFB510021511EA4D6045900429E0B40100E433F0900429E070140EBE0F
:202B0F0000010F8E828F83E0C4540FFD900411F0800E8E828F83E0FD53050F900411EDF065
:202B2F00900411E0F582C007C0061221EAD006D00780AA900421E070030222BE90042BE080
:202B4F00FEA3E0FF8E038F051EBEFF011FEB4D70030222BE758220C007C0061221AFD006DD
:182B6F00D00780E08C821221AF0222BE900412E0FEA3E08E82F5832294
:0B2C08003C4E4F20464C4F41543E0014
:182B8700AA82AB83122BBF6003A380F8C3E5829AF582E5839BF583228A
:202B9F00AA83AB828BF090043AE0A4F8A9F08AF0E0A429F98BF0A3E0A429F58388822222AD
:0D200600758113122BDBE5826003022003BD
:1C2BBF0020F71430F6148883A88220F507E6A88375830022E280F7E49322E02225
:042BDB0075820022DD
:00000001FF
