:042000000220513237
:03200B0002227F2F
:01201300329A
:01201B003292
:01202300328A
:01202B003282
:01203300327A
:01203B003272
:01204300326A
:03204B000222DC92
:0320AA0002204EC3
:03204E0002210D5F
:1020AD00AF83E582900400F0EFA3F0900400E0FE12
:1020BD00A3E0FF8E9910990280FB8E828F832210F0
:1020CD00980280FBAE997F008E828F8322AF83E5CD
:1020DD0082900402F0EFA3F0900402E0FEA3E0FF73
:1020ED007C007D00C3EC9EED9F50147A7B7B001A23
:1020FD00BAFF011BEA4B70F70CBC00E80D80E5221E
:10210D0074FFC0E0742FC0E07480C0E012239D15F1
:10211D008115811581900404E4F0A3F0900406F07C
:10212D00A3F012233B7412C0E07430C0E07480C081
:10213D00E012239D158115811581742DC0E0743039
:10214D00C0E07480C0E012239D158115811581902A
:10215D000404E0FEA3E0FFC3648094815021EE2EC1
:10216D00FEEF33FFEE24FFF582EF342DF583E4937C
:10217D00FEA3E493FF900406EEF0EFA3F08007902A
:10218D000404E4F0A3F0900406E0FEA3E08E04C482
:10219D00CCC4540F6CCC540FCC6CCC30E30244F057
:1021AD0053040F7D0043041053060FE4CEC4CE6ECE
:1021BD00CE54F0CE6EFF90000AC007C006C005C019
:1021CD00041220DAD004D005D006D007C007C0060F
:1021DD00C005C004C006C0077431C0E07430C0E053
:1021ED007480C0E012239DE58124FBF581D004D0DD
:1021FD0005C005C004C004C005743FC0E07430C004
:10220D00E07480C0E012239DE58124FBF581D004AC
:10221D00D005D006D007C2918CC5E5C430E7FB8E42
:10222D00C5E5C430E7FBD291744EC0E07430C0E018
:10223D007480C0E012239D1581158115817452C0E3
:10224D00E07430C0E07480C0E012239D15811581CB
:10225D001581900404E02401F0A3E03400F0022184
:10226D00475389F0438901758CFC758A66D2A9D2D2
:10227D008C22C020C0E0C0F0C082C083C007C00661
:10228D00C005C004C003C002C001C000C0D075D0DD
:10229D0000758C4B758A1C9004417401F07455C007
:1022AD00E07430C0E07480C0E012239D158115816B
:1022BD001581D0D0D000D001D002D003D004D005EC
:1022CD00D006D007D083D082D0F0D0E0D02032C05D
:1022DD0020C0E0C0F0C082C083C007C006C005C0EA
:1022ED0004C003C002C001C000C0D075D00074800E
:1022FD00B5C41E9004427401F0E4A3F0745AC0E01A
:10230D007430C0E07480C0E012239D1581158115D5
:10231D0081D0D0D000D001D002D003D004D005D0D0
:10232D0006D007D083D082D0F0D0E0D0203243C386
:10233D001043C32043C3402243C340C2912253C321
:02234D00BF22AD
:102DFF0000000100020003000400050006000700A8
:102E0F00080009000A000B000C000D000E000F0057
:102E1F001000110012001300140015001600170007
:102E2F00180019001A001B001C001D001E001F00B7
:102E3F002000210022002300240025002600270067
:102E4F00280029002A002B002C002D002E002F0017
:102E5F0030003100320033003400350036003700C7
:102E6F00380039003A003B003C003D003E003F0077
:102E7F004000410042004300440045004600470027
:102E8F00480049004A004B004C004D004E004F00D7
:102E9F005000510052005300540055005600570087
:102EAF00580059005A005B005C005D005E005F0037
:102EBF0060006100620063006400650066006700E7
:102ECF00680069006A006B006C006D006E006F0097
:102EDF007000710072007300740075007600770047
:102EEF00780079007A007B007C007D007E007F00F7
:102EFF0080008100820083008400850086008700A7
:102F0F00880089008A008B008C008D008E008F0056
:102F1F009000910092009300940095009600970006
:102F2F00980099009A009B009C009D009E009F00B6
:102F3F00A000A100A200A300A400A500A600A70066
:102F4F00A800A900AA00AB00AC00AD00AE00AF0016
:102F5F00B000B100B200B300B400B500B600B700C6
:102F6F00B800B900BA00BB00BC00BD00BE00BF0076
:102F7F00C000C100C200C300C400C500C600C70026
:102F8F00C800C900CA00CB00CC00CD00CE00CF00D6
:102F9F00D000D100D200D300D400D500D600D70086
:102FAF00D800D900DA00DB00DC00DD00DE00DF0036
:102FBF00E000E100E200E300E400E500E600E700E6
:102FCF00E800E900EA00EB00EC00ED00EE00EF0096
:102FDF00F000F100F200F300F400F500F600F70046
:102FEF00F800F900FA00FB00FC00FD00FE00FF00F6
:102FFF0020535049204441432050524F4752414D96
:10300F000A0D00535049205452414E534D495353CA
:10301F00494F4E20535441525445440A0D00770AEC
:10302F000D004C6F7720627974652025640A0D00BE
:10303F004869676820627974652025640A0D004528
:10304F000A0D000A0D0054200A0D007370692069E3
:06305F007372200A0D004F
:033070000000005D
:06208000E478FFF6D8FD34
:10205E007903E94400601B7A01903070784175A0D5
:10206E0004E493F2A308B8000205A0D9F4DAF275DD
:02207E00A0FFC1
:102086007800E84400600A790075A004E4F309D8F2
:10209600FC7841E84400600C7901900400E4F0A368
:0420A600D8FCD9FA8F
:10234F00C0128581127E008E831220ADD01222AF73
:10235F00F0AE83E582900409F0EEA3F0EFA3F090C6
:10236F000409E0FDA3E0FEA3E0FF900408E0FC9069
:10237F00041DE4F0A3F0A3F0900420EDF0EEA3F021
:10238F00EFA3F0900423ECF090234F0224A6C01289
:10239F00E581F51224FBFF90041DE4F0A3F0A3F0F8
:1023AF00E51224FBF8900420E6F008E6A3F008E617
:1023BF00A3F0900423EFF090234F1224A6D0122203
:1023CF00E582900419F0E0FF90040FE0C0E0A3E075
:1023DF00C0E0A3E0C0E01223EA800D90040DE0C03E
:1023EF00E0A3E0C0E08F8222158115811581900452
:1023FF0017E02401F0A3E03400F022E58290041AE4
:10240F00F0E02430FF24C6500D74072FFF90040C0A
:10241F00E060034307208F820223CFE58290041BE5
:10242F00F0E0FFC4540FF582C00712240AD00753FF
:10243F00070F8F8202240AE58290041CF090041289
:10244F00E0FCA3E0FDA3E0FEA3E0FF900416E0FB99
:10245F0075132090041CE0F98B00E828F8EF235443
:10246F000148FBEC2CFCED33FDEE33FEEF33FFC3E5
:10247F00EB994007EBC399FB430401E51314FA8A68
:10248F001370D5900412ECF0EDA3F0EEA3F0EFA3D0
:10249F00F0900416EBF022AF83E582900424F0EF66
:1024AF00A3F0900424E0FEA3E0FF90040DEEF0EF04
:1024BF00A3F090041DE0FDA3E0FEA3E0FF90040F46
:1024CF00EDF0EEA3F0EFA3F0900417E4F0A3F0907B
:1024DF000420E0FDA3E0FEA3E0FF8D828E838FF04A
:1024EF00122DDFFC90042074012DF0E43EA3F0EFD9
:1024FF00A3F0EC7003022D9BBC25028003022D93E9
:10250F00900426E4F0900427F0900428F09004291A
:10251F00F090042AF090042BF090042CF090042DEE
:10252F00F090042FF0900430F0A3F090043214F0E8
:10253F00A3F0900420E0FDA3E0FEA3E0FF8D828EC8
:10254F00838FF0122DDFFBA3AD82AE83900420EDBD
:10255F00F0EEA3F0EFA3F0900436EBF0BB25088B61
:10256F00821223CF0224DEBB3000500302263FEB42
:10257F0024C6500302263F900432E0F508A3E0F58D
:10258F000974FFB50863B50960C005C006C00790A0
:10259F000430E0FAA3E0FF90043FEAF0EFA3F090DD
:1025AF00000AC005C003122DBFAE82AF83D003D087
:1025BF00058B027D00EA2EFEED3FFFEE24D0FEEFED
:1025CF0034FFFF900430EEF0EFA3F0D007D006D029
:1025DF0005900430E0F5F0A3E045F0600302254CD0
:1025EF009004277401F002254CC005C006C0079067
:1025FF00043FE508F0E509A3F090000AC006C00506
:10260F00C003122DBFAA82AF83D003D005D0067EA0
:10261F0000EB2AFAEE3FFFEA24D0FAEF34FFFF90E7
:10262F000432EAF0EFA3F0D007D006D00502254C14
:10263F00900436E0FBBB2E2FC005C006C0079004E8
:10264F0032E0FAA3E0FFBAFF05BFFF028009D0070F
:10265F00D006D00502254CD007D006D00590043205
:10266F00E4F0A3F002254CBB61004014EB2485403D
:10267F000F90043674DF5BF090040C7401F080054A
:10268F0090040CE4F0900436E0FBBB20028075BB95
:10269F002B028067BB2D028059BB4202806FBB4368
:1026AF0002807CBB4403022936BB460302295CBB74
:1026BF00480302254CBB4903022936BB4A030225B6
:1026CF004CBB4C028050BB4F03022944BB5003024A
:1026DF0028A4BB53028077BB540302254CBB550380
:1026EF0002294CBB5803022954BB5A0302254C0242
:1026FF0029649004267401F002254C90042874017B
:10270F00F002254C9004297401F002254C90042B03
:10271F007401F002254C90042C7401F002254C90AA
:10272F00042BE0600E900423E014F9F0900436E7D8
:10273F00F0800F900423E024FEFFF08F0190043609
:10274F00E7F0900436E0F5821223CF02297390044C
:10275F0023E024FDFFF08F0187050987060987070E
:10276F001919900412EDF0EEA3F0EFA3F08D828E05
:10277F00838FF0122DA7858208858309900432E09C
:10278F00FAA3E0FDBAFF0DBDFF0A900432E508F091
:10279F00E509A3F0900426E0704B900430E0FAA313
:1027AF00E0FDC3E5089AE5099D503A900430EAC36D
:1027BF009508F0ED9509A3F0900430E0FAA3E0FD41
:1027CF008A068D071ABAFF011DEE4F601075822021
:1027DF00C005C0021223CFD002D00580E390043091
:1027EF00EAF0EDA3F0900432E0F50BA3E0F50C90C6
:1027FF000412E0FAA3E0FDA3E0FF8A828D838FF03D
:10280F00122DDFF50A603CC3E4950B7480850CF044
:10281F0063F08095F0502C150B74FFB50B02150C5F
:10282F00850A821223CF900412E0FAA3E0FDA3E001
:10283F00FF0ABA00010D900412EAF0EDA3F0EFA326
:10284F00F080AC900426E07003022973900430E00E
:10285F00FEA3E0FFC3E5089EE5099F40030229732D
:10286F00900430EEC39508F0EF9509A3F090043073
:10287F00E0FEA3E0FF8E028F051EBEFF011FEA4D93
:10288F00700302296B758220C007C0061223CFD0B8
:10289F0006D00780E0900423E024FDFDF08D018732
:1028AF000D09870E09870F1919900412E50DF0E530
:1028BF000EA3F0E50FA3F0900414E0FDBD800040DF
:1028CF00089004367443F08020BD600040089004E7
:1028DF00367450F08013BD400040089004367449A0
:1028EF00F080069004367458F0900436E0FDF582BF
:1028FF00C0051223CF75823A1223CF75823012236F
:10290F00CF7582781223CFD005BD4902800EBD50FE
:10291F00028009900413E0F58212242A900412E039
:10292F00F58212242A803D90042A7401F090042F1E
:10293F00740AF0802F90042F7408F0802790042FD2
:10294F00740AF0801F90042F7410F0801790042DDC
:10295F007401F0800F8B821223CF8008900430EE29
:10296F00F0EFA3F090042DE06071900423E024FCBD
:10297F00FFF08F0187030987050987060987071964
:10298F001919900412EBF0EDA3F0EEA3F0EFA3F002
:10299F009004127465F07430A3F07480A3F0900467
:1029AF0012E0F50DA3E0F50EA3E0F50F7401250D70
:1029BF00FAE4350EFBAF0F900412EAF0EBA3F0EF41
:1029CF00A3F0850D82850E83850FF0122DDFFF702A
:1029DF00030224DE8F821223CF80C390042FE07076
:1029EF00030224DE90042BE06047900423E014F9E7
:1029FF00F087077E007D007B00900412EFF0EEA3BE
:102A0F00F0EDA3F0EBA3F090042AE06003022AB6E6
:102A1F00900412E0FBA3E0A3E0A3E07D007E007F23
:102A2F0000900412EBF0EDA3F0EEA3F0EFA3F08013
:102A3F007690042CE06028900423E024FCFFF08FB4
:102A4F00018703098705098706098707191919904F
:102A5F000412EBF0EDA3F0EEA3F0EFA3F08048909B
:102A6F000423E024FEFFF08F01870609870719EF83
:102A7F003395E0FDFB900412EEF0EFA3F0EDA3F021
:102A8F00EBA3F090042AE0701E900412E0FBA3E089
:102A9F00FDA3E0A3E07E007F00900412EBF0EDA316
:102AAF00F0EEA3F0EFA3F090042AE060419004123F
:102ABF00E0FBA3E0FDA3E0FEA3E0FF30E72B9004D3
:102ACF0012E0FBA3E0FDA3E0FEA3E0FFC3E49BFB4A
:102ADF00E49DFDE49EFEE49FFF900412EBF0EDA356
:102AEF00F0EEA3F0EFA3F0800590042AE4F0900439
:102AFF002E7401F090042FE0F50B75103C75110446
:102B0F00E4F508F509900416E4F0850B82122446CB
:102B1F0090042EE07026900416E0C4F50D85108207
:102B2F00851183E0FFE50D4207851082851183EF44
:102B3F00F0151074FFB510021511800C900416E0FB
:102B4F00FF851082851183F00508E4B50802050999
:102B5F0090042EE0B40100E433F0900412E0FAA3E5
:102B6F00E0FBA3E0FEA3E0FFEA4B4E4F709790040B
:102B7F003DE510F0E511A3F0900434E508F0E50908
:102B8F00A3F0900430E0F5F0A3E045F07009900455
:102B9F00307401F0E4A3F0900427E0FFE070479059
:102BAF000426E07041850810850911900430E0FA81
:102BBF00A3E0FBC007AF100F8F067F00C3EE9AEFA5
:102BCF009BD0075019758220C007C003C002122383
:102BDF00CFD002D003D0071ABAFF011B80D59004C3
:102BEF0030EAF0EBA3F090042AE0602075822DC04C
:102BFF00071223CFD007900430E024FFFDA3E03469
:102C0F00FFFE900430EDF0EEA3F08056900434E018
:102C1F00F5F0A3E045F0604A900428E0602075824B
:102C2F002BC0071223CFD007900430E024FFFDA361
:102C3F00E034FFFE900430EDF0EEA3F0802490041A
:102C4F0029E0601E758220C0071223CFD0079004A1
:102C5F0030E024FFFDA3E034FFFE900430EDF0EEF2
:102C6F00A3F0900426E07048900434E0F510A3E040
:102C7F00F511900430E0FAA3E0FBC0078A068B073A
:102C8F001ABAFF011BC3E5109EE5119FD0075053E1
:102C9F00EF60067D307E0080047D207E008D82C037
:102CAF0007C003C0021223CFD002D003D00780CABF
:102CBF00900430E0FEA3E0FF900434E0F510A3E0B1
:102CCF00F511C3E5109EE5119F500F900430EEC330
:102CDF009510F0EF9511A3F08011900430E4F0A35C
:102CEF00F08008900430EAF0EBA3F090043DE0FE92
:102CFF00A3E0FF900434E0F510A3E0F511AA10ADA6
:102D0F0011151074FFB510021511EA4D60459004AE
:102D1F002EE0B40100E433F090042EE070140EBEE8
:102D2F0000010F8E828F83E0C4540FFD900416F0C4
:102D3F00800E8E828F83E0FD53050F900416EDF009
:102D4F00900416E0F582C007C00612240AD006D000
:102D5F000780AA900426E070030224DE900430E07E
:102D6F00FEA3E0FF8E038F051EBEFF011FEB4D700C
:102D7F00030224DE758220C007C0061223CFD006BF
:102D8F00D00780E08C821223CF0224DE900417E05C
:082D9F00FEA3E08E82F5832201
:0B3065003C4E4F20464C4F41543E00B3
:102DA700AA82AB83122DDF6003A380F8C3E5829A62
:102DB700F582E5839BF58322AA83AB828BF090048F
:102DC7003FE0A4F8A9F08AF0E0A429F98BF0A3E08A
:082DD700A429F5838882222261
:0D205100758120122DFBE582600302204EF8
:102DDF0020F71430F6148883A88220F507E6A8831D
:102DEF0075830022E280F7E49322E02275820022AD
:00000001FF
