:042000000220513237
:03200B0002226D41
:01201300329A
:01201B003292
:01202300328A
:01202B003282
:01203300327A
:01203B003272
:01204300326A
:03204B000222CAA4
:0320AA0002204EC3
:03204E0002210D5F
:1020AD00AF83E582900400F0EFA3F0900400E0FE12
:1020BD00A3E0FF8E9910990280FB8E828F832210F0
:1020CD00980280FBAE997F008E828F8322AF83E5CD
:1020DD0082900402F0EFA3F0900402E0FEA3E0FF73
:1020ED007C007D00C3EC9EED9F50147A7B7B001A23
:1020FD00BAFF011BEA4B70F70CBC00E80D80E5221E
:10210D007451C0E0742EC0E07480C0E012238B15B2
:10211D008115811581900404E4F0A3F0900406F07C
:10212D00A3F01223297464C0E0742EC0E07480C043
:10213D00E012238B158115811581747FC0E0742EFB
:10214D00C0E07480C0E012238B158115811581903C
:10215D000404E0FEA3E0FFC3EE9431EF64809480AD
:10216D005021EE2EFEEF33FFEE24EDF582EF342DF0
:10217D00F583E493FEA3E493FF900406EEF0EFA342
:10218D00F08007900404E4F0A3F0900406E0FEA3B1
:10219D00E08E04C4CCC4540F6CCC540FCC6CCC303A
:1021AD00E30244F053040F7D0043041053060FE483
:1021BD00CEC4CE6ECE54F0CE6EFFC007C006C005A5
:1021CD00C004C006C0077483C0E0742EC0E07480E4
:1021DD00C0E012238BE58124FBF581D004D005C02E
:1021ED0005C004C004C0057491C0E0742EC0E07435
:1021FD0080C0E012238BE58124FBF581D004D0054E
:10220D00D006D007C2918CC5E5C430E7FB8EC5E57D
:10221D00C430E7FBD29174A0C0E0742EC0E074808E
:10222D00C0E012238B15811581158174A4C0E07453
:10223D002EC0E07480C0E012238B158115811581AD
:10224D00900404E02401F0A3E03400F00221475390
:10225D0089F0438901758CFC758A66D2A9D28C22CE
:10226D00C020C0E0C0F0C082C083C007C006C0055A
:10227D00C004C003C002C001C000C0D075D000753D
:10228D008C4B758A1C9004417401F074A7C0E074E6
:10229D002EC0E07480C0E012238B1581158115814D
:1022AD00D0D0D000D001D002D003D004D005D006BC
:1022BD00D007D083D082D0F0D0E0D02032C020C063
:1022CD00E0C0F0C082C083C007C006C005C004C016
:1022DD0003C002C001C000C0D075D0007480B5C469
:1022ED001E9004427401F0E4A3F074ACC0E0742EAF
:1022FD00C0E07480C0E012238B158115811581D04B
:10230D00D0D000D001D002D003D004D005D006D05B
:10231D0007D083D082D0F0D0E0D0203243C3104319
:10232D00C32043C3402243C340C2912253C3BF22A3
:102DED0080008F009F00AE00BD00CA00D700E2003A
:102DFD00EB00F300F900FD00FF00FF00FD00F900FE
:102E0D00F300EB00E200D700CA00BD00AE009F004A
:102E1D008F008000700060005100420035002800D6
:102E2D001D0014000C00060002000000000002004E
:102E3D0006000C0014001D00280035004200510052
:102E4D006000700020535049204441432050524FA0
:102E5D004752414D0A0D00535049205452414E5393
:102E6D004D495353494F4E20535441525445440AF2
:102E7D000D00770A0D004C6F77206279746520255F
:102E8D00640A0D00486967682062797465202564BD
:102E9D000A0D00450A0D000A0D0054200A0D00739D
:0A2EAD00706920697372200A0D009D
:032EC2000000000D
:06208000E478FFF6D8FD34
:10205E007903E94400601B7A01902EC2784175A085
:10206E0004E493F2A308B8000205A0D9F4DAF275DD
:02207E00A0FFC1
:102086007800E84400600A790075A004E4F309D8F2
:10209600FC7841E84400600C7901900400E4F0A368
:0420A600D8FCD9FA8F
:10233D00C0128581127E008E831220ADD01222AF85
:10234D00F0AE83E582900409F0EEA3F0EFA3F090D8
:10235D000409E0FDA3E0FEA3E0FF900408E0FC907B
:10236D00041DE4F0A3F0A3F0900420EDF0EEA3F033
:10237D00EFA3F0900423ECF090233D022494C012BF
:10238D00E581F51224FBFF90041DE4F0A3F0A3F00A
:10239D00E51224FBF8900420E6F008E6A3F008E629
:1023AD00A3F0900423EFF090233D122494D0122239
:1023BD00E582900419F0E0FF90040FE0C0E0A3E087
:1023CD00C0E0A3E0C0E01223D8800D90040DE0C062
:1023DD00E0A3E0C0E08F8222158115811581900464
:1023ED0017E02401F0A3E03400F022E58290041AF6
:1023FD00F0E02430FF24C6500D74072FFF90040C1D
:10240D00E060034307208F820223BDE58290041B09
:10241D00F0E0FFC4540FF582C0071223F8D0075324
:10242D00070F8F820223F8E58290041CF0900412AE
:10243D00E0FCA3E0FDA3E0FEA3E0FF900416E0FBAB
:10244D0075132090041CE0F98B00E828F8EF235455
:10245D000148FBEC2CFCED33FDEE33FEEF33FFC3F7
:10246D00EB994007EBC399FB430401E51314FA8A7A
:10247D001370D5900412ECF0EDA3F0EEA3F0EFA3E2
:10248D00F0900416EBF022AF83E582900424F0EF78
:10249D00A3F0900424E0FEA3E0FF90040DEEF0EF16
:1024AD00A3F090041DE0FDA3E0FEA3E0FF90040F58
:1024BD00EDF0EEA3F0EFA3F0900417E4F0A3F0908D
:1024CD000420E0FDA3E0FEA3E0FF8D828E838FF05C
:1024DD00122DCDFC90042074012DF0E43EA3F0EFFD
:1024ED00A3F0EC7003022D89BC25028003022D811F
:1024FD00900426E4F0900427F0900428F09004292D
:10250D00F090042AF090042BF090042CF090042D00
:10251D00F090042FF0900430F0A3F090043214F0FA
:10252D00A3F0900420E0FDA3E0FEA3E0FF8D828EDA
:10253D00838FF0122DCDFBA3AD82AE83900420EDE1
:10254D00F0EEA3F0EFA3F0900436EBF0BB25088B73
:10255D00821223BD0224CCBB3000500302262DEB8A
:10256D0024C6500302262D900432E0F508A3E0F5B1
:10257D000974FFB50863B50960C005C006C00790B2
:10258D000430E0FAA3E0FF90043FEAF0EFA3F090EF
:10259D00000AC005C003122DADAE82AF83D003D0AB
:1025AD00058B027D00EA2EFEED3FFFEE24D0FEEFFF
:1025BD0034FFFF900430EEF0EFA3F0D007D006D03B
:1025CD0005900430E0F5F0A3E045F0600302253AF4
:1025DD009004277401F002253AC005C006C007908B
:1025ED00043FE508F0E509A3F090000AC006C00518
:1025FD00C003122DADAA82AF83D003D005D0067EC5
:10260D0000EB2AFAEE3FFFEA24D0FAEF34FFFF90F9
:10261D000432EAF0EFA3F0D007D006D00502253A38
:10262D00900436E0FBBB2E2FC005C006C0079004FA
:10263D0032E0FAA3E0FFBAFF05BFFF028009D00721
:10264D00D006D00502253AD007D006D00590043229
:10265D00E4F0A3F002253ABB61004014EB24854061
:10266D000F90043674DF5BF090040C7401F080055C
:10267D0090040CE4F0900436E0FBBB20028075BBA7
:10268D002B028067BB2D028059BB4202806FBB437A
:10269D0002807CBB4403022924BB460302294ABBAA
:1026AD00480302253ABB4903022924BB4A030225EC
:1026BD003ABB4C028050BB4F03022932BB50030280
:1026CD002892BB53028077BB540302253ABB5503B6
:1026DD0002293ABB5803022942BB5A0302253A028A
:1026ED0029529004267401F002253A9004287401B1
:1026FD00F002253A9004297401F002253A90042B3A
:10270D007401F002253A90042C7401F002253A90E0
:10271D00042BE0600E900423E014F9F0900436E7EA
:10272D00F0800F900423E024FEFFF08F019004361B
:10273D00E7F0900436E0F5821223BD022961900482
:10274D0023E024FDFFF08F01870509870609870720
:10275D001919900412EDF0EEA3F0EFA3F08D828E17
:10276D00838FF0122D95858208858309900432E0C0
:10277D00FAA3E0FDBAFF0DBDFF0A900432E508F0A3
:10278D00E509A3F0900426E0704B900430E0FAA325
:10279D00E0FDC3E5089AE5099D503A900430EAC37F
:1027AD009508F0ED9509A3F0900430E0FAA3E0FD53
:1027BD008A068D071ABAFF011DEE4F601075822033
:1027CD00C005C0021223BDD002D00580E3900430B5
:1027DD00EAF0EDA3F0900432E0F50BA3E0F50C90D8
:1027ED000412E0FAA3E0FDA3E0FF8A828D838FF04F
:1027FD00122DCDF50A603CC3E4950B7480850CF069
:10280D0063F08095F0502C150B74FFB50B02150C71
:10281D00850A821223BD900412E0FAA3E0FDA3E025
:10282D00FF0ABA00010D900412EAF0EDA3F0EFA338
:10283D00F080AC900426E07003022961900430E032
:10284D00FEA3E0FFC3E5089EE5099F400302296151
:10285D00900430EEC39508F0EF9509A3F090043085
:10286D00E0FEA3E0FF8E028F051EBEFF011FEA4DA5
:10287D007003022959758220C007C0061223BDD0EE
:10288D0006D00780E0900423E024FDFDF08D018744
:10289D000D09870E09870F1919900412E50DF0E542
:1028AD000EA3F0E50FA3F0900414E0FDBD800040F1
:1028BD00089004367443F08020BD600040089004F9
:1028CD00367450F08013BD400040089004367449B2
:1028DD00F080069004367458F0900436E0FDF582D1
:1028ED00C0051223BD75823A1223BD7582301223A5
:1028FD00BD7582781223BDD005BD4902800EBD5035
:10290D00028009900413E0F582122418900412E05D
:10291D00F582122418803D90042A7401F090042F42
:10292D00740AF0802F90042F7408F0802790042FE4
:10293D00740AF0801F90042F7410F0801790042DEE
:10294D007401F0800F8B821223BD8008900430EE4D
:10295D00F0EFA3F090042DE06071900423E024FCCF
:10296D00FFF08F0187030987050987060987071976
:10297D001919900412EBF0EDA3F0EEA3F0EFA3F014
:10298D0090041274B7F0742EA3F07480A3F0900429
:10299D0012E0F50DA3E0F50EA3E0F50F7401250D82
:1029AD00FAE4350EFBAF0F900412EAF0EBA3F0EF53
:1029BD00A3F0850D82850E83850FF0122DCDFF704E
:1029CD00030224CC8F821223BD80C390042FE070AC
:1029DD00030224CC90042BE06047900423E014F90B
:1029ED00F087077E007D007B00900412EFF0EEA3D0
:1029FD00F0EDA3F0EBA3F090042AE06003022AA40B
:102A0D00900412E0FBA3E0A3E0A3E07D007E007F35
:102A1D0000900412EBF0EDA3F0EEA3F0EFA3F08025
:102A2D007690042CE06028900423E024FCFFF08FC6
:102A3D000187030987050987060987071919199061
:102A4D000412EBF0EDA3F0EEA3F0EFA3F0804890AD
:102A5D000423E024FEFFF08F01870609870719EF95
:102A6D003395E0FDFB900412EEF0EFA3F0EDA3F033
:102A7D00EBA3F090042AE0701E900412E0FBA3E09B
:102A8D00FDA3E0A3E07E007F00900412EBF0EDA328
:102A9D00F0EEA3F0EFA3F090042AE0604190041251
:102AAD00E0FBA3E0FDA3E0FEA3E0FF30E72B9004E5
:102ABD0012E0FBA3E0FDA3E0FEA3E0FFC3E49BFB5C
:102ACD00E49DFDE49EFEE49FFF900412EBF0EDA368
:102ADD00F0EEA3F0EFA3F0800590042AE4F090044B
:102AED002E7401F090042FE0F50B75103C75110458
:102AFD00E4F508F509900416E4F0850B82122434F0
:102B0D0090042EE07026900416E0C4F50D85108219
:102B1D00851183E0FFE50D4207851082851183EF56
:102B2D00F0151074FFB510021511800C900416E00D
:102B3D00FF851082851183F00508E4B508020509AB
:102B4D0090042EE0B40100E433F0900412E0FAA3F7
:102B5D00E0FBA3E0FEA3E0FFEA4B4E4F709790041D
:102B6D003DE510F0E511A3F0900434E508F0E5091A
:102B7D00A3F0900430E0F5F0A3E045F07009900467
:102B8D00307401F0E4A3F0900427E0FFE07047906B
:102B9D000426E07041850810850911900430E0FA93
:102BAD00A3E0FBC007AF100F8F067F00C3EE9AEFB7
:102BBD009BD0075019758220C007C003C002122395
:102BCD00BDD002D003D0071ABAFF011B80D59004E7
:102BDD0030EAF0EBA3F090042AE0602075822DC05E
:102BED00071223BDD007900430E024FFFDA3E0348D
:102BFD00FFFE900430EDF0EEA3F08056900434E02B
:102C0D00F5F0A3E045F0604A900428E0602075825D
:102C1D002BC0071223BDD007900430E024FFFDA385
:102C2D00E034FFFE900430EDF0EEA3F0802490042C
:102C3D0029E0601E758220C0071223BDD0079004C5
:102C4D0030E024FFFDA3E034FFFE900430EDF0EE04
:102C5D00A3F0900426E07048900434E0F510A3E052
:102C6D00F511900430E0FAA3E0FBC0078A068B074C
:102C7D001ABAFF011BC3E5109EE5119FD0075053F3
:102C8D00EF60067D307E0080047D207E008D82C049
:102C9D0007C003C0021223BDD002D003D00780CAE3
:102CAD00900430E0FEA3E0FF900434E0F510A3E0C3
:102CBD00F511C3E5109EE5119F500F900430EEC342
:102CCD009510F0EF9511A3F08011900430E4F0A36E
:102CDD00F08008900430EAF0EBA3F090043DE0FEA4
:102CED00A3E0FF900434E0F510A3E0F511AA10ADB8
:102CFD0011151074FFB510021511EA4D60459004C1
:102D0D002EE0B40100E433F090042EE070140EBEFA
:102D1D0000010F8E828F83E0C4540FFD900416F0D6
:102D2D00800E8E828F83E0FD53050F900416EDF01B
:102D3D00900416E0F582C007C0061223F8D006D025
:102D4D000780AA900426E070030224CC900430E0A2
:102D5D00FEA3E0FF8E038F051EBEFF011FEB4D701E
:102D6D00030224CC758220C007C0061223BDD006F5
:102D7D00D00780E08C821223BD0224CC900417E092
:082D8D00FEA3E08E82F5832213
:0B2EB7003C4E4F20464C4F41543E0063
:102D9500AA82AB83122DCD6003A380F8C3E5829A86
:102DA500F582E5839BF58322AA83AB828BF09004A1
:102DB5003FE0A4F8A9F08AF0E0A429F98BF0A3E09C
:082DC500A429F5838882222273
:0D205100758120122DE9E582600302204E0A
:102DCD0020F71430F6148883A88220F507E6A8832F
:102DDD0075830022E280F7E49322E02275820022BF
:00000001FF
