:043000000230513217
:03300B0002322E60
:01301300328A
:01301B003282
:01302300327A
:01302B003272
:01303300326A
:01303B003262
:01304300325A
:03304B0002324905
:0330AA0002304EA3
:03304E000230DA73
:2030AD00AF83E582900400F0EFA3F0900400E0FEA3E0FF8E9910990280FB8E828F832210CF
:2030CD00980280FBAE997F008E828F8322900402E4F0A3F0900404F0A3F07497C0E0743D50
:2030ED00C0E07480C0E01232D1158115811581D2AF12326812327B74A9C0E0743DC0E0744A
:20310D0080C0E01232D115811581158112321D900402E0FEA3E0FFC3EE9431EF64809480F7
:20312D005021EE2EFEEF33FFEE2433F582EF343DF583E493FEA3E493FF900404EEF0EFA3AC
:20314D00F08007900402E4F0A3F0900404E0FEA3E08E04C4CCC4540F6CCC540FCC6CCC30DD
:20316D00E30244F0740F5C4430FD53060FEEC454F0FF90043FE060FA90043FE4F0C2918FE6
:20318D00067C00C007C005C006C00474C4C0E0743DC0E07480C0E01232D1E58124FBF581BD
:2031AD00D0058D047E00C005C004C00674D1C0E0743DC0E07480C0E01232D1E58124FBF576
:2031CD0081D005D0078DC5900440E0FDA3E0FE4D60F5900440E4F0A3F08FC5900440E0FE4E
:2031ED00A3E0FF4E60F5900440E4F0A3F0D291900440E0FEA3E0FF4E60F5900440E4F0A3DD
:20320D00F0900402E02401F0A3E03400F002311C5389F0438901758CFC758A18D2A9D28CAA
:20322D0022C0E0C082C083758CFC758A1890043F7401F0B290D083D082D0E032C0E0C08243
:20324D00C083C0D07480B5C4099004407401F0E4A3F0D0D0D083D082D0E03275C30085C3C1
:16326D00C343C31043C30853C3FB43B1082243C3402253C3BF22D6
:203D330080008F009F00AE00BD00CA00D700E200EB00F300F900FD00FF00FF00FD00F9000C
:203D5300F300EB00E200D700CA00BD00AE009F008F00800070006000510042003500280016
:203D73001D0014000C000600020000000000020006000C0014001D002800350042005100B6
:203D930060007000535049204441432050524F4752414D0A0D00535049205452414E534D3C
:203DB300495353494F4E20535441525445440A0D004C6F7720627974652025640A00486963
:0C3DD300676820627974652025640A008E
:033DEA00000000D6
:06308000E478FFF6D8FD24
:20305E007903E94400601B7A01903DEA783F75A004E493F2A308B8000205A0D9F4DAF275AB
:02307E00A0FFB1
:203086007800E84400600A790075A004E4F309D8FC783FE84400600C7901900400E4F0A302
:0430A600D8FCD9FA7F
:20328300C0128581127E008E831230ADD01222AFF0AE83E582900407F0EEA3F0EFA3F0906A
:2032A3000407E0FDA3E0FEA3E0FF900406E0FC90041BE4F0A3F0A3F090041EEDF0EEA3F0F1
:2032C300EFA3F0900421ECF09032830233DAC012E581F51224FBFF90041BE4F0A3F0A3F07E
:2032E300E51224FBF890041EE6F008E6A3F008E6A3F0900421EFF09032831233DAD0122237
:20330300E582900417F0E0FF90040DE0C0E0A3E0C0E0A3E0C0E012331E800D90040BE0C033
:20332300E0A3E0C0E08F8222158115811581900415E02401F0A3E03400F022E58290041818
:20334300F0E02430FF24C6500D74072FFF90040AE060034307208F82023303E582900419AF
:20336300F0E0FFC4540FF582C00712333ED00753070F8F8202333EE58290041AF090041026
:20338300E0FCA3E0FDA3E0FEA3E0FF900414E0FB75132090041AE0F98B00E828F8EF235420
:2033A3000148FBEC2CFCED33FDEE33FEEF33FFC3EB994007EBC399FB430401E51314FA8AAD
:2033C3001370D5900410ECF0EDA3F0EEA3F0EFA3F0900414EBF022AF83E582900422F0EFBC
:2033E300A3F0900422E0FEA3E0FF90040BEEF0EFA3F090041BE0FDA3E0FEA3E0FF90040DF2
:20340300EDF0EEA3F0EFA3F0900415E4F0A3F090041EE0FDA3E0FEA3E0FF8D828E838FF088
:20342300123D13FC90041E74012DF0E43EA3F0EFA3F0EC7003023CCFBC25028003023CC7D9
:20344300900424E4F0900425F0900426F0900427F0900428F0900429F090042AF090042B19
:20346300F090042DF090042EF0A3F090043014F0A3F090041EE0FDA3E0FEA3E0FF8D828ED9
:20348300838FF0123D13FBA3AD82AE8390041EEDF0EEA3F0EFA3F0900434EBF0BB25088B1F
:2034A30082123303023412BB30005003023573EB24C65003023573900430E0F508A3E0F524
:2034C3000974FFB50863B50960C005C006C00790042EE0FAA3E0FF90043DEAF0EFA3F09002
:2034E300000AC005C003123CF3AE82AF83D003D0058B027D00EA2EFEED3FFFEE24D0FEEFD2
:2035030034FFFF90042EEEF0EFA3F0D007D006D00590042EE0F5F0A3E045F060030234807A
:203523009004257401F0023480C005C006C00790043DE508F0E509A3F090000AC006C0050E
:20354300C003123CF3AA82AF83D003D005D0067E00EB2AFAEE3FFFEA24D0FAEF34FFFF9046
:203563000430EAF0EFA3F0D007D006D005023480900434E0FBBB2E2FC005C006C0079004DF
:2035830030E0FAA3E0FFBAFF05BFFF028009D007D006D005023480D007D006D00590043017
:2035A300E4F0A3F0023480BB61004014EB2485400F90043474DF5BF090040A7401F08005AA
:2035C30090040AE4F0900434E0FBBB20028075BB2B028067BB2D028059BB4202806FBB4383
:2035E30002807CBB440302386ABB4603023890BB4803023480BB490302386ABB4A030234B1
:2036030080BB4C028050BB4F03023878BB50030237D8BB53028077BB5403023480BB55038E
:20362300023880BB5803023888BB5A030234800238989004247401F0023480900426740153
:20364300F00234809004277401F00234809004297401F002348090042A7401F002348090AA
:203663000429E0600E900421E014F9F0900434E7F0800F900421E024FEFFF08F019004340E
:20368300E7F0900434E0F5821233030238A7900421E024FDFFF08F0187050987060987071A
:2036A3001919900410EDF0EEA3F0EFA3F08D828E838FF0123CDB858208858309900430E0C5
:2036C300FAA3E0FDBAFF0DBDFF0A900430E508F0E509A3F0900424E0704B90042EE0FAA32D
:2036E300E0FDC3E5089AE5099D503A90042EEAC39508F0ED9509A3F090042EE0FAA3E0FD55
:203703008A068D071ABAFF011DEE4F6010758220C005C002123303D002D00580E390042E32
:20372300EAF0EDA3F0900430E0F50BA3E0F50C900410E0FAA3E0FDA3E0FF8A828D838FF0E9
:20374300123D13F50A603CC3E4950B7480850CF063F08095F0502C150B74FFB50B02150C63
:20376300850A82123303900410E0FAA3E0FDA3E0FF0ABA00010D900410EAF0EDA3F0EFA30B
:20378300F080AC900424E070030238A790042EE0FEA3E0FFC3E5089EE5099F40030238A7FD
:2037A30090042EEEC39508F0EF9509A3F090042EE0FEA3E0FF8E028F051EBEFF011FEA4D6E
:2037C300700302389F758220C007C006123303D006D00780E0900421E024FDFDF08D0187E9
:2037E3000D09870E09870F1919900410E50DF0E50EA3F0E50FA3F0900412E0FDBD800040B7
:20380300089004347443F08020BD600040089004347450F08013BD40004008900434744950
:20382300F080069004347458F0900434E0FDF582C00512330375823A12330375823012337D
:2038430003758278123303D005BD4902800EBD50028009900411E0F58212335E900410E085
:20386300F58212335E803D9004287401F090042D740AF0802F90042D7408F0802790042DDA
:20388300740AF0801F90042D7410F0801790042B7401F0800F8B82123303800890042EEE0C
:2038A300F0EFA3F090042BE06071900421E024FCFFF08F018703098705098706098707198A
:2038C3001919900410EBF0EDA3F0EEA3F0EFA3F090041074DFF0743DA3F07480A3F090046B
:2038E30010E0F50DA3E0F50EA3E0F50F7401250DFAE4350EFBAF0F900410EAF0EBA3F0EF5A
:20390300A3F0850D82850E83850FF0123D13FF70030234128F8212330380C390042DE0709A
:2039230003023412900429E06047900421E014F9F087077E007D007B00900410EFF0EEA34B
:20394300F0EDA3F0EBA3F0900428E060030239EA900410E0FBA3E0A3E0A3E07D007E007FD0
:2039630000900410EBF0EDA3F0EEA3F0EFA3F0807690042AE06028900421E024FCFFF08FF3
:20398300018703098705098706098707191919900410EBF0EDA3F0EEA3F0EFA3F080489032
:2039A3000421E024FEFFF08F01870609870719EF3395E0FDFB900410EEF0EFA3F0EDA3F00E
:2039C300EBA3F0900428E0701E900410E0FBA3E0FDA3E0A3E07E007F00900410EBF0EDA32B
:2039E300F0EEA3F0EFA3F0900428E06041900410E0FBA3E0FDA3E0FEA3E0FF30E72B9004BC
:203A030010E0FBA3E0FDA3E0FEA3E0FFC3E49BFBE49DFDE49EFEE49FFF900410EBF0EDA369
:203A2300F0EEA3F0EFA3F08005900428E4F090042C7401F090042DE0F50B75103A7511046C
:203A4300E4F508F509900414E4F0850B8212337A90042CE07026900414E0C4F50D8510829C
:203A6300851183E0FFE50D4207851082851183EFF0151074FFB510021511800C900414E068
:203A8300FF851082851183F00508E4B50802050990042CE0B40100E433F0900410E0FAA3C9
:203AA300E0FBA3E0FEA3E0FFEA4B4E4F709790043BE510F0E511A3F0900432E508F0E5097E
:203AC300A3F090042EE0F5F0A3E045F0700990042E7401F0E4A3F0900425E0FFE07047903B
:203AE3000424E0704185081085091190042EE0FAA3E0FBC007AF100F8F067F00C3EE9AEFD1
:203B03009BD0075019758220C007C003C002123303D002D003D0071ABAFF011B80D59004C8
:203B23002EEAF0EBA3F0900428E0602075822DC007123303D00790042EE024FFFDA3E0345D
:203B4300FFFE90042EEDF0EEA3F08056900432E0F5F0A3E045F0604A900426E06020758271
:203B63002BC007123303D00790042EE024FFFDA3E034FFFE90042EEDF0EEA3F08024900463
:203B830027E0601E758220C007123303D00790042EE024FFFDA3E034FFFE90042EEDF0EE9D
:203BA300A3F0900424E07048900432E0F510A3E0F51190042EE0FAA3E0FBC0078A068B07E8
:203BC3001ABAFF011BC3E5109EE5119FD0075053EF60067D307E0080047D207E008D82C0A0
:203BE30007C003C002123303D002D003D00780CA90042EE0FEA3E0FF900432E0F510A3E0D8
:203C0300F511C3E5109EE5119F500F90042EEEC39510F0EF9511A3F0801190042EE4F0A357
:203C2300F0800890042EEAF0EBA3F090043BE0FEA3E0FF900432E0F510A3E0F511AA10AD25
:203C430011151074FFB510021511EA4D604590042CE0B40100E433F090042CE070140EBEA3
:203C630000010F8E828F83E0C4540FFD900414F0800E8E828F83E0FD53050F900414EDF0FA
:203C8300900414E0F582C007C00612333ED006D00780AA900424E0700302341290042EE046
:203CA300FEA3E0FF8E038F051EBEFF011FEB4D7003023412758220C007C006123303D006AC
:183CC300D00780E08C82123303023412900415E0FEA3E08E82F5832260
:0B3DDF003C4E4F20464C4F41543E002C
:183CDB00AA82AB83123D136003A380F8C3E5829AF582E5839BF58322BF
:203CF300AA83AB828BF090043DE0A4F8A9F08AF0E0A429F98BF0A3E0A429F5838882222245
:0D305100758113123D2FE582600302304EA1
:1C3D130020F71430F6148883A88220F507E6A88375830022E280F7E49322E022BF
:043D2F007582002277
:00000001FF
