:043000000230513217
:03300B000231018E
:01301300328A
:01301B003282
:01302300327A
:01302B003272
:01303300326A
:01303B003262
:01304300325A
:03304B0002311C33
:0330AA0002304EA3
:03304E000230DA73
:2030AD00AF83E582900400F0EFA3F0900400E0FEA3E0FF8E9910990280FB8E828F832210CF
:2030CD00980280FBAE997F008E828F8322746DC0E0743CC0E07480C0E01231A71581158149
:2030ED001581225389F0438901758CFC758A18D2A9D28C22C0E0C082C083758CFC758A182A
:20310D0090043B7401F0B290D083D082D0E032C0E0C082C083C0D07480B5C40990043C7436
:20312D0001F0E4A3F0D0D0D083D082D0E03275C30085C3C343C31043C30853C3FB53C3DF86
:0C314D0043B1082243C3402253C3BF22F9
:203C090080008F009F00AE00BD00CA00D700E200EB00F300F900FD00FF00FF00FD00F90037
:203C2900F300EB00E200D700CA00BD00AE009F008F00800070006000510042003500280041
:203C49001D0014000C000600020000000000020006000C0014001D002800350042005100E1
:163C690060007000535049204441432050524F4752414D0A0D0052
:033C8A0000000037
:06308000E478FFF6D8FD24
:20305E007903E94400601B7A01903C8A783B75A004E493F2A308B8000205A0D9F4DAF27510
:02307E00A0FFB1
:203086007800E84400600A790075A004E4F309D8FC783BE84400600C7901900400E4F0A306
:0430A600D8FCD9FA7F
:20315900C0128581127E008E831230ADD01222AFF0AE83E582900403F0EEA3F0EFA3F09099
:203179000403E0FDA3E0FEA3E0FF900402E0FC900417E4F0A3F0A3F090041AEDF0EEA3F02C
:20319900EFA3F090041DECF09031590232B0C012E581F51224FBFF900417E4F0A3F0A3F007
:2031B900E51224FBF890041AE6F008E6A3F008E6A3F090041DEFF09031591232B0D01222C0
:2031D900E582900413F0E0FF900409E0C0E0A3E0C0E0A3E0C0E01231F4800D900407E0C097
:2031F900E0A3E0C0E08F8222158115811581900411E02401F0A3E03400F022E5829004144C
:20321900F0E02430FF24C6500D74072FFF900406E060034307208F820231D9E5829004150E
:20323900F0E0FFC4540FF582C007123214D00753070F8F82023214E582900416F090040CAF
:20325900E0FCA3E0FDA3E0FEA3E0FF900410E0FB751320900416E0F98B00E828F8EF235453
:203279000148FBEC2CFCED33FDEE33FEEF33FFC3EB994007EBC399FB430401E51314FA8AD8
:203299001370D590040CECF0EDA3F0EEA3F0EFA3F0900410EBF022AF83E58290041EF0EFF3
:2032B900A3F090041EE0FEA3E0FF900407EEF0EFA3F0900417E0FDA3E0FEA3E0FF9004092D
:2032D900EDF0EEA3F0EFA3F0900411E4F0A3F090041AE0FDA3E0FEA3E0FF8D828E838FF0BC
:2032F900123BE9FC90041A74012DF0E43EA3F0EFA3F0EC7003023BA5BC25028003023B9D8B
:20331900900420E4F0900421F0900422F0900423F0900424F0900425F0900426F090042764
:20333900F0900429F090042AF0A3F090042C14F0A3F090041AE0FDA3E0FEA3E0FF8D828E14
:20335900838FF0123BE9FBA3AD82AE8390041AEDF0EEA3F0EFA3F0900430EBF0BB25088B7E
:20337900821231D90232E8BB30005003023449EB24C6500302344990042CE0F508A3E0F501
:203399000974FFB50863B50960C005C006C00790042AE0FAA3E0FF900439EAF0EFA3F09035
:2033B900000AC005C003123BC9AE82AF83D003D0058B027D00EA2EFEED3FFFEE24D0FEEF28
:2033D90034FFFF90042AEEF0EFA3F0D007D006D00590042AE0F5F0A3E045F06003023356D9
:2033F9009004217401F0023356C005C006C007900439E508F0E509A3F090000AC006C0056D
:20341900C003123BC9AA82AF83D003D005D0067E00EB2AFAEE3FFFEA24D0FAEF34FFFF909C
:20343900042CEAF0EFA3F0D007D006D005023356900430E0FBBB2E2FC005C006C00790043D
:203459002CE0FAA3E0FFBAFF05BFFF028009D007D006D005023356D007D006D00590042C75
:20347900E4F0A3F0023356BB61004014EB2485400F90043074DF5BF09004067401F0800508
:20349900900406E4F0900430E0FBBB20028075BB2B028067BB2D028059BB4202806FBB43B6
:2034B90002807CBB4403023740BB4603023766BB4803023356BB4903023740BB4A03023389
:2034D90056BB4C028050BB4F0302374EBB50030236AEBB53028077BB5403023356BB550365
:2034F900023756BB580302375EBB5A0302335602376E9004207401F002335690042274015E
:20351900F00233569004237401F00233569004257401F00233569004267401F0023356908D
:203539000425E0600E90041DE014F9F0900430E7F0800F90041DE024FEFFF08F019004304D
:20355900E7F0900430E0F5821231D902377D90041DE024FDFFF08F018705098706098707A4
:20357900191990040CEDF0EEA3F0EFA3F08D828E838FF0123BB185820885830990042CE023
:20359900FAA3E0FDBAFF0DBDFF0A90042CE508F0E509A3F0900420E0704B90042AE0FAA364
:2035B900E0FDC3E5089AE5099D503A90042AEAC39508F0ED9509A3F090042AE0FAA3E0FD88
:2035D9008A068D071ABAFF011DEE4F6010758220C005C0021231D9D002D00580E390042A8E
:2035F900EAF0EDA3F090042CE0F50BA3E0F50C90040CE0FAA3E0FDA3E0FF8A828D838FF01D
:20361900123BE9F50A603CC3E4950B7480850CF063F08095F0502C150B74FFB50B02150CBA
:20363900850A821231D990040CE0FAA3E0FDA3E0FF0ABA00010D90040CEAF0EDA3F0EFA36A
:20365900F080AC900420E0700302377D90042AE0FEA3E0FFC3E5089EE5099F400302377D86
:2036790090042AEEC39508F0EF9509A3F090042AE0FEA3E0FF8E028F051EBEFF011FEA4DA1
:203699007003023775758220C007C0061231D9D006D00780E090041DE024FDFDF08D01876F
:2036B9000D09870E09870F191990040CE50DF0E50EA3F0E50FA3F090040EE0FDBD800040EA
:2036D900089004307443F08020BD600040089004307450F08013BD40004008900430744988
:2036F900F080069004307458F0900430E0FDF582C0051231D975823A1231D975823012310B
:20371900D97582781231D9D005BD4902800EBD5002800990040DE0F58212323490040CE039
:20373900F582123234803D9004247401F0900429740AF0802F9004297408F0802790042940
:20375900740AF0801F9004297410F080179004277401F0800F8B821231D9800890042AEE6F
:20377900F0EFA3F0900427E0607190041DE024FCFFF08F01870309870509870609870719BD
:20379900191990040CEBF0EDA3F0EEA3F0EFA3F090040C747FF0743CA3F07480A3F09004FF
:2037B9000CE0F50DA3E0F50EA3E0F50F7401250DFAE4350EFBAF0F90040CEAF0EBA3F0EF8D
:2037D900A3F0850D82850E83850FF0123BE9FF70030232E88F821231D980C3900429E0704E
:2037F900030232E8900425E0604790041DE014F9F087077E007D007B0090040CEFF0EEA3AF
:20381900F0EDA3F0EBA3F0900424E060030238C090040CE0FBA3E0A3E0A3E07D007E007F2E
:203839000090040CEBF0EDA3F0EEA3F0EFA3F08076900426E0602890041DE024FCFFF08F2A
:2038590001870309870509870609870719191990040CEBF0EDA3F0EEA3F0EFA3F080489061
:20387900041DE024FEFFF08F01870609870719EF3395E0FDFB90040CEEF0EFA3F0EDA3F041
:20389900EBA3F0900424E0701E90040CE0FBA3E0FDA3E0A3E07E007F0090040CEBF0EDA362
:2038B900F0EEA3F0EFA3F0900424E0604190040CE0FBA3E0FDA3E0FEA3E0FF30E72B9004EF
:2038D9000CE0FBA3E0FDA3E0FEA3E0FFC3E49BFBE49DFDE49EFEE49FFF90040CEBF0EDA39D
:2038F900F0EEA3F0EFA3F08005900424E4F09004287401F0900429E0F50B751036751104A8
:20391900E4F508F509900410E4F0850B82123250900428E07026900410E0C4F50D851082FE
:20393900851183E0FFE50D4207851082851183EFF0151074FFB510021511800C900410E097
:20395900FF851082851183F00508E4B508020509900428E0B40100E433F090040CE0FAA3FC
:20397900E0FBA3E0FEA3E0FFEA4B4E4F7097900437E510F0E511A3F090042EE508F0E509B1
:20399900A3F090042AE0F5F0A3E045F0700990042A7401F0E4A3F0900421E0FFE070479072
:2039B9000420E0704185081085091190042AE0FAA3E0FBC007AF100F8F067F00C3EE9AEF04
:2039D9009BD0075019758220C007C003C0021231D9D002D003D0071ABAFF011B80D5900420
:2039F9002AEAF0EBA3F0900424E0602075822DC0071231D9D00790042AE024FFFDA3E034C1
:203A1900FFFE90042AEDF0EEA3F0805690042EE0F5F0A3E045F0604A900422E060207582A8
:203A39002BC0071231D9D00790042AE024FFFDA3E034FFFE90042AEDF0EEA3F080249004C2
:203A590023E0601E758220C0071231D9D00790042AE024FFFDA3E034FFFE90042AEDF0EE00
:203A7900A3F0900420E0704890042EE0F510A3E0F51190042AE0FAA3E0FBC0078A068B071F
:203A99001ABAFF011BC3E5109EE5119FD0075053EF60067D307E0080047D207E008D82C0CB
:203AB90007C003C0021231D9D002D003D00780CA90042AE0FEA3E0FF90042EE0F510A3E037
:203AD900F511C3E5109EE5119F500F90042AEEC39510F0EF9511A3F0801190042AE4F0A38B
:203AF900F0800890042AEAF0EBA3F0900437E0FEA3E0FF90042EE0F510A3E0F511AA10AD5D
:203B190011151074FFB510021511EA4D6045900428E0B40100E433F0900428E070140EBED6
:203B390000010F8E828F83E0C4540FFD900410F0800E8E828F83E0FD53050F900410EDF02D
:203B5900900410E0F582C007C006123214D006D00780AA900420E070030232E890042AE0D4
:203B7900FEA3E0FF8E038F051EBEFF011FEB4D70030232E8758220C007C0061231D9D0062F
:183B9900D00780E08C821231D90232E8900411E0FEA3E08E82F58322E7
:0B3C7F003C4E4F20464C4F41543E008D
:183BB100AA82AB83123BE96003A380F8C3E5829AF582E5839BF5832216
:203BC900AA83AB828BF0900439E0A4F8A9F08AF0E0A429F98BF0A3E0A429F5838882222274
:0D305100758113123C05E582600302304ECC
:1C3BE90020F71430F6148883A88220F507E6A88375830022E280F7E49322E022EB
:043C050075820022A2
:00000001FF
