:062000000220090221BAD2
:0320620002200653
:03200600022210A3
:20206500AF83E582900402F0EFA3F0900402E0FEA3E0FF8E9910990280FB8E828F83221023
:20208500980280FBAE997F008E828F8322742BC0E0743BC0E07480C0E01230C915811581C3
:2020A500158174DDC0E0743BC0E07480C0E01230C9158115811581741EC0E0743CC0E074EE
:2020C50080C0E01230C91581158115812274CFC0E0743CC0E07480C0E01230C915811581EE
:2020E50015817485C0E0743DC0E07480C0E01230C915811581158174C9C0E0743DC0E07458
:2021050080C0E01230C9158115811581747DC0E0743EC0E07480C0E01230C915811581150A
:202125008174C1C0E0743EC0E07480C0E01230C91581158115817405C0E0743FC0E0748031
:20214500C0E01230C91581158115817449C0E0743FC0E07480C0E01230C9158115811581FC
:20216500748DC0E0743FC0E07480C0E01230C915811581158174D1C0E0743FC0E07480C019
:20218500E01230C91581158115817415C0E07440C0E07480C0E01230C9158115811581743B
:2021A50059C0E07440C0E07480C0E01230C915811581158122C020C0E0C0F0C082C083C0D5
:2021C50007C006C005C004C003C002C001C000C0D075D000758200122403AF82900406EFDF
:2021E500F075820712243FD0D0D000D001D002D003D004D005D006D007D083D082D0F0D006
:20220500E0D02032C288C2A8C2AF225390F75390EF1220921220D2122B90122084AE828EBB
:20222500057F00C006C005C007740DC0E07441C0E07480C0E01230C9E58124FBF581741629
:20224500C0E07441C0E07480C0E01230C9158115811581D006BE3F0302234CBE48030223AE
:202265006DBE4903022385BE4C030223A3BE52028076BE57028009BE58030223520223BE48
:202285007419C0E07441C0E07480C0E01230C9158115811581122496AE82AF8390045CE058
:2022A500F5F0A3E045F0700C90045C7401F0E4A3F002221FC007C0061226D4AD82D006D083
:2022C5000790045EE0F5F0A3E045F0700C90045E7401F0E4A3F002221F900414EDF08E8261
:2022E5008F8312284D02221F748BC0E07441C0E07480C0E01230C9158115811581122496DC
:20230500AE82AF8390045CE0F5F0A3E045F0700C90045C7401F0E4A3F002221FC007C006D1
:20232500C006C00774FFC0E07441C0E07480C0E01230C9E58124FBF581D006D0078E828FBD
:202345008312298F02221F1220D202221F742BC0E07442C0E07480C0E01230C91581158141
:202365001581122F8002221F7494C0E07442C0E07480C0E01230C9158115811581122ED44B
:202385007406C0E07443C0E07480C0E01230C915811581158112248F1223D602221F747B64
:2023A500C0E07443C0E07480C0E01230C915811581158112220902221F74ECC0E07443C0C9
:2023C500E07480C0E01230C915811581158102221F122B90758270122AA37582FF122AA38C
:2023E500022F73122B90758271122AA3900000122B0BAE82C006122F73D0068E8222E5822F
:20240500900404F01223E8AF82900404E0FE8EF005F0EF8002C313D5F0FB5401F58222E51E
:2024250082900405F0122B90758270122AA3900405E0F582122AA3022F73E582900407F014
:202445001223E8AF82900406E0601D900407E0FE8EF005F07401800225E0D5F0FBFE8F05F8
:20246500900408EE4DF08019900407E0FE8EF005F07401800225E0D5F0FBF4FE9004085F62
:20248500F0900408E0F582022424D288D2A8D2AF2274FCC0E07443C0E07480C0E01230C98D
:2024A500158115811581900409E4F090040AF090040BF090040CF0742DC0E07444C0E0742A
:2024C50080C0E01230C91581158115817E007F00C3EE9403EF64809480505BC007C0061294
:2024E5002084AC82AD83D006D007BC0D028047BC0A028042BC30004005EC24C65014BC6184
:20250500004005EC2499500ABC410040C3EC24B940BEEE2409F582EF3404F583ECF07D001D
:202525008C828D83C007C006122065D006D0070EBE009D0F809AEE2409F582EF3404F583E4
:20254500E4F090040DF0A3F07E007F00EE2409F582EF3404F583E0FD700302260A90040D2D
:20256500E0FBA3E0C454F0CBC4CB6BCB54F0CB6BFC90040DEBF0ECA3F0BD30004023ED248E
:20258500C6401E7C00ED24D0FDEC34FFFC90040DE0FAA3E0FB90040DED2AF0EC3BA3F080C2
:2025A5005CEE2409F582EF3404F583E0FDBD41004025ED24B940208D037C0074C92BFB743C
:2025C500FF3CFC90040DE0F9A3E0FA90040DEB29F0EC3AA3F08026BD61004021ED2499405B
:2025E5001C7C0074A92DFD74FF3CFC90040DE0FAA3E0FB90040DED2AF0EC3BA3F00EBE0025
:20260500010F02255190040DE0FEA3E0FFC007C006C006C0077432C0E07444C0E07480C0C0
:20262500E01230C9E58124FBF581D006D007C374FF9E74079F505F7452C0E07444C0E07433
:2026450080C0E01230C915811581158174D9C0E07444C0E07480C0E01230C9158115811563
:2026650081740AC0E07445C0E07480C0E01230C9158115811581743BC0E07445C0E0748060
:20268500C0E01230C915811581158190045CE4F0A3F0900000228F047D00C007C006C0045E
:2026A500C00574C2C0E07445C0E07480C0E01230C9E58124FBF581D006D00790040DEEF05B
:2026C500E4A3F090040DE0FEA3E08E82F5832274F2C0E07445C0E07480C0E01230C915813E
:2026E5001581158190040FE4F0900410F0900411F0900412F07420C0E07446C0E07480C031
:20270500E01230C91581158115817E007F00C3EE9403EF64809480505BC007C006122084ED
:20272500AC82AD83D006D007BC0D028047BC0A028042BC30004005EC24C65014BC610040A5
:2027450005EC2499500ABC410040C3EC24B940BEEE240FF582EF3404F583ECF07D008C8207
:202765008D83C007C006122065D006D0070EBE009D0F809AEE240FF582EF3404F583E4F0D6
:20278500900413F07E007F00EE240FF582EF3404F583E0FD7003022800900413E0C454F060
:2027A500FCF0BD30004012ED24C6400DED24D0FD900413E0FC2DF0803AEE240FF582EF34D2
:2027C50004F583E0FDBD41004014ED24B9400F8D0474C92CFC900413E0FB2CF08015BD61E9
:2027E500004010ED2499400B74A92DFD900413E0FC2DF00EBE00010F02278D900413E0FF90
:20280500FD7E00C007C005C0067423C0E07446C0E07480C0E01230C9E58124FBF581D007E4
:20282500EF240150207440C0E07446C0E07480C0E01230C915811581158190045EE4F0A397
:20284500F0758200228F8222AF83E582900415F0EFA3F0122B90900460E0FEA3E04306A078
:202865008E82122AA3E5828583F045F0701C7454C0E07446C0E07480C0E01230C915811538
:20288500811581122F7390000022900415E0FEA3E0FF8E058D82C007C006122AA3E58285B3
:2028A50083F0D006D00745F0701C747FC0E07446C0E07480C0E01230C915811581158112D2
:2028C5002F7390000022900414E0FDF582C007C006C005122AA3E5828583F0D005D006D098
:2028E5000745F0701C74A2C0E07446C0E07480C0E01230C9158115811581122F7390000056
:2029050022C007C006C005122F73D005D006D0077B007C00C3EB940AEC64809480501EC0B3
:2029250007C006C005C004C003122FACD003D004D005D006D0070BBB00DA0C80D77C00C024
:2029450005C004C006C00774BBC0E07446C0E07480C0E01230C9E58124F9F58174F0C0E057
:202965007446C0E07480C0E01230C91581158115817428C0E07447C0E07480C0E01230C961
:2029850015811581158190000122AF83E582900417F0EFA3F0122B907582A0122AA3E5825D
:2029A5008583F045F0701C74BEC0E07447C0E07480C0E01230C9158115811581122F739087
:2029C500FFFF22900417E0FEA3E0FF8E058D82C007C006122AA3E5828583F0D006D0074568
:2029E500F0701C747FC0E07446C0E07480C0E01230C9158115811581122F7390FFFF22C0E4
:202A050007C006122B907582A1122AA3E5828583F0D006D00745F0701C74EEC0E07447C056
:202A2500E07480C0E01230C9158115811581122F7390FFFF22900000C007C006122B0BACDB
:202A450082D006D0077D00C005C004C004C005C006C007741DC0E07448C0E07480C0E012F3
:202A650030C9E58124F9F5817432C0E07448C0E07480C0E01230C91581158115817428C000
:202A8500E07447C0E07480C0E01230C9158115811581122F73D004D0058C828D8322E58291
:202AA500900419F07E007F00900419E0FD23540124FF9294C007C006C005122FACD2931276
:202AC5002FACD005D006D007C293ED2D900419F00EBE00010FC374079EE49F50CBD294D2FA
:202AE50093122FAC309419745DC0E07448C0E07480C0E01230C91581158115819000002294
:202B0500C29390000122AF83E58290041AF0EFA3F090041CE4F0C2937E007F00C3EE9408CC
:202B2500EF648094805040D293C007C006122FACD006D007A294E433FD8E047407C39CFCDB
:202B45008CF005F0ED800225E0D5F0FBFC90041CE04CF0C007C006122FACD006D007C29387
:202B65000EBE00B80F80B590041AE0FEA3E04EB40100E43324FF9294D293122FACC29390DF
:202B8500041CE0FF7E008F828E8322122FACD294122FACD293122FACC294122FACC2932223
:202BA500AF83E58290041FF0EFA3F07472C0E07448C0E07480C0E01230C91581158115810F
:202BC50074B7C0E07448C0E07480C0E01230C915811581158174FCC0E07448C0E07480C048
:202BE500E01230C9158115811581743FC0E07449C0E07480C0E01230C91581158115819082
:202C0500041FE0FEA3E0FF900421EEF0EFA3F090041DE0FEA3E0FF900421E0FCA3E0FDC332
:202C2500EE9CEF9D5003022EBB5304F0C007C006C004C0057475C0E07449C0E07480C0E064
:202C45001230C9E58124FBF581D006D0077D00BD10004003022D908D037C00900421E0F9D6
:202C6500A3E0FAC00589008A05EB28F8EC3DFDC3EE98EF9DD0055003022D6BC007C006C0E0
:202C850005C002C001122B907582A0122AA3E5828583F0D001D002D005D006D00745F0703B
:202CA5001C747CC0E07449C0E07480C0E01230C9158115811581122F7390000022ED29F534
:202CC50082C007C006C005122AA3E5828583F0D005D006D00745F0701C749BC0E07449C06E
:202CE500E07480C0E01230C9158115811581122F7390000022C007C006C005122B90758212
:202D0500A1122AA3E5828583F0D005D006D00745F0701C74B9C0E07449C0E07480C0E012BC
:202D250030C9158115811581122F7390000022900000C007C006C005122B0BAB827C00C0DA
:202D450003C00474E5C0E07449C0E07480C0E01230C9E58124FBF581122F73122FACD00541
:202D6500D006D0078021C007C006C00574EBC0E07449C0E07480C0E01230C9158115811572
:202D850081D005D006D0070D022C54C007C00674EFC0E07449C0E07480C0E01230C915817A
:202DA50015811581D006D007900421E0FCA3E0FD7B00BB10004003022E848B017A00C0031E
:202DC5008C008D03E928F8EA3BFBC3EE98EF9BD0035003022E66C007C006C005C004C00341
:202DE500122B907582A0122AA3D003D0048C02EB2AF582C004C003122AA3122B907582A1FF
:202E0500122AA3900000122B0BA982C001122F73D001D003D004D005D006D007B920004043
:202E250024E92481401F7A0089828A83C007C006C005C004C003122065D003D004D005D02E
:202E450006D007803690002EC007C006C005C004C003122065D003D004D005D006D0078003
:202E65001A900020C007C006C005C004C003122065D003D004D005D006D0070B022DB7C039
:202E850007C00674F3C0E07449C0E07480C0E01230C9158115811581D006D007900421E059
:202EA500FCA3E0FD74102CFCE43DFD900421ECF0EDA3F0022C1C74FCC0E07448C0E074800C
:202EC500C0E01230C91581158115819000012274F6C0E07449C0E07480C0E01230C9158131
:202EE50015811581122496AE82AF838E048F05C374FF9C74079D50167425C0E0744AC0E066
:202F05007480C0E01230C915811581158122C007C006745EC0E0744AC0E07480C0E01230F6
:202F2500C9158115811581122496AC82AD83D006D0078C028D03C374FF9A74079B4006ECF4
:202F45009EED9F501AC006C007748BC0E0744AC0E07480C0E01230C9E58124FBF581229002
:202F6500041DECF0EDA3F08E828F83022BA5C294122FACD293122FACD29422122B90C2949B
:202F8500D2947E007F00C3EE940AEF64809480500BC293D2930EBE00ED0F80EA122B90C2BD
:202FA50094122F73D294227E007F00C3EE94F4EF6480948150070EBE00F10F80EE22122B2E
:202FC50090122FAC7402C0E0E4C0E07426C0E0E4C0E074C3C0E0744AC0E07480C0E012300C
:202FE500C9E58124F9F5819004147426F090000212284D122F737E007F00C3EE9464EF6412
:203005008094805012C007C006122FACD006D0070EBE00E60F80E390000212298FAE828E50
:20302500057F00C006C005C0077402C0E0E4C0E074EBC0E0744AC0E07480C0E01230C9E53A
:203045008124F9F581D006BE26167413C0E0744BC0E07480C0E01230C9158115811581227E
:163065007434C0E0744BC0E07480C0E01230C9158115811581222B
:203B2B000AE29594E29590E29590E29590E29590E29590E29590E29590E29590E29590E244
:203B4B009590E29590E29590E29590E29590E29590E29590E29590E29590E29590E29590EF
:203B6B00E29590E29590E29590E29590E29590E29590E29590E29590E29590E29590E2957D
:203B8B0090E29590E29590E29590E29590E29590E29590E29590E29590E29590E29590E262
:203BAB009590E29590E29590E29590E29590E29590E29590E29590E29590E29590E295908F
:203BCB00E29590E29590E29590E29590E295970A0D00E29591202020202020202020202031
:203BEB00493243204D656D6F7279204D616E6167656D656E742053797374656D2076312EAC
:203C0B0030202020202020202020202020E295910A0D00E2959AE29590E29590E29590E2C2
:203C2B009590E29590E29590E29590E29590E29590E29590E29590E29590E29590E295900E
:203C4B00E29590E29590E29590E29590E29590E29590E29590E29590E29590E29590E2959C
:203C6B0090E29590E29590E29590E29590E29590E29590E29590E29590E29590E29590E281
:203C8B009590E29590E29590E29590E29590E29590E29590E29590E29590E29590E29590AE
:203CAB00E29590E29590E29590E29590E29590E29590E29590E29590E29590E29590E2953C
:203CCB009D0A0D000A0DE2948CE29480E29480E29480E29480E29480E29480E29480E294DC
:203CEB0080E29480E29480E29480E29480E294ACE29480E29480E29480E29480E29480E28F
:203D0B009480E29480E29480E29480E29480E29480E29480E29480E29480E29480E29480E8
:203D2B00E29480E29480E29480E29480E29480E29480E29480E29480E29480E29480E29466
:203D4B0080E29480E29480E29480E29480E29480E29480E29480E29480E29480E29480E25A
:203D6B009480E29480E29480E29480E29480E29480E29480E294900A0D00E29482202043C8
:203D8B006F6D6D616E64202020E29482202020202020202020202020202020446573637273
:203DAB00697074696F6E202020202020202020202020202020202020E294820A0D00E294A0
:203DCB009CE29480E29480E29480E29480E29480E29480E29480E29480E29480E29480E2BE
:203DEB009480E29480E294BCE29480E29480E29480E29480E29480E29480E29480E29480CC
:203E0B00E29480E29480E29480E29480E29480E29480E29480E29480E29480E29480E29485
:203E2B0080E29480E29480E29480E29480E29480E29480E29480E29480E29480E29480E279
:203E4B009480E29480E29480E29480E29480E29480E29480E29480E29480E29480E29480A7
:203E6B00E29480E29480E29480E29480E294A40A0D00E294822020202020522020202020A4
:203E8B0020E2948220526561642066726F6D20616464726573732020202020202020202049
:203EAB0020202020202020202020202020202020E294820A0D00E2948220202020205720D9
:203ECB002020202020E29482205772697465206461746120746F2061646472657373202011
:203EEB002020202020202020202020202020202020202020E294820A0D00E29482202020D0
:203F0B00202048202020202020E2948220446973706C6179206865782064756D70202020C5
:203F2B00202020202020202020202020202020202020202020202020E294820A0D00E294F1
:203F4B0082202020202058202020202020E29482205265736574206D656D6F72792073793C
:203F6B007374656D202020202020202020202020202020202020202020202020E294820A7B
:203F8B000D00E2948220202020203F202020202020E2948220446973706C6179207468691F
:203FAB00732068656C70206D656E7520202020202020202020202020202020202020202045
:203FCB00E294820A0D00E29482202020202049202020202020E2948220494F2045787061C8
:203FEB006E646572202020202020202020202020202020202020202020202020202020208D
:20400B0020202020E294820A0D00E2948220202020204C202020202020E29482204C656138
:20402B00766520494F20457870616E6465722020202020202020202020202020202020204B
:20404B002020202020202020E294820A0D00E29494E29480E29480E29480E29480E294806E
:20406B00E29480E29480E29480E29480E29480E29480E29480E294B4E29480E29480E294EF
:20408B0080E29480E29480E29480E29480E29480E29480E29480E29480E29480E29480E217
:2040AB009480E29480E29480E29480E29480E29480E29480E29480E29480E29480E2948045
:2040CB00E29480E29480E29480E29480E29480E29480E29480E29480E29480E29480E294C3
:2040EB0080E29480E29480E29480E29480E29480E29480E29480E29480E29480E294980A77
:20410B000D007C20242025630A0D000A0D000AE2948CE29480E29480E29480E29480E29497
:20412B0080E29480E29480E29480E29480E29480E29480E29480E29480E29480E294802038
:20414B005752495445204F5045524154494F4E20E29480E29480E29480E29480E29480E228
:20416B009480E29480E29480E29480E29480E29480E29480E29480E29480E294900A0D0053
:20418B000AE2948CE29480E29480E29480E29480E29480E29480E29480E29480E29480E280
:2041AB009480E29480E29480E29480E29480E294802052454144204F5045524154494F4E05
:2041CB0020E29480E29480E29480E29480E29480E29480E29480E29480E29480E29480E236
:2041EB009480E29480E29480E29480E29480E294900A0D007C2052656164696E672066725D
:20420B006F6D20416464726573732030782530335820202020202020202020207C0A0D0036
:20422B000AE2948CE29480E29480E29480E29480E29480E29480E29480E29480E29480E2DF
:20424B009480E29480E29480E29480E29480E29480205245534554204F5045524154494F4B
:20426B004E20E29480E29480E29480E29480E29480E29480E29480E29480E29480E2948029
:20428B00E29480E294900A0D000AE2948CE29480E29480E29480E29480E29480E29480E24E
:2042AB009480E29480E29480E29480E29480E29480E29480204845582044554D50204F5001
:2042CB0045524154494F4E20E29480E29480E29480E29480E29480E29480E29480E29480F1
:2042EB00E29480E29480E29480E29480E29480E29480E29480E294900A0D000AE2948CE2EE
:20430B009480E29480E29480E29480E29480E29480E29480E29480E29480E29480E29480E2
:20432B00E29480E2948020494F20455850414E444552204F5045524154494F4E20E2948070
:20434B00E29480E29480E29480E29480E29480E29480E29480E29480E29480E29480E29440
:20436B0080E29480E29480E29480E294900A0D000AE2948CE29480E29480E29480E29480CF
:20438B00E29480E29480E29480E29480E29480E29480E29480E29480E2948020494F20454F
:2043AB005850414E444552204C4541564520E29480E29480E29480E29480E29480E294806F
:2043CB00E29480E29480E29480E29480E29480E29480E29480E29480E29480E294900A0D0F
:2043EB0000494E56414C494420494E5055540A0D00E2948220456E746572206164647265AE
:20440B00737320286865782C20757020746F20332063686172616374657273293A200A0DBD
:20442B007C007C202420000A0DE2948220456E746572656420616464726573733A20307817
:20444B00253033580A0D00E29594E29590E29590E29590E29590E29590E29590E29590E23C
:20446B009590E29590E29590E29590E29590E29590E29590E29590E29590E29590E29590C6
:20448B00E29590E29590E29590E29590E29590E29590E29590E29590E29590E29590E29554
:2044AB0090E29590E29590E29590E29590E29590E29590E29590E29590E29590E29590E239
:2044CB009590E29590E29590E295970A0D00E295912020202020202021204144445245539D
:2044EB0053204F5554204F462052414E47452021202020202020202020E295910A0D00E2A2
:20450B0095912020202020506C6561736520456E7465722056616C696420416464726573CF
:20452B0073202020202020202020E295910A0D00E2959AE29590E29590E29590E29590E2AF
:20454B009590E29590E29590E29590E29590E29590E29590E29590E29590E29590E29590E5
:20456B00E29590E29590E29590E29590E29590E29590E29590E29590E29590E29590E29573
:20458B0090E29590E29590E29590E29590E29590E29590E29590E29590E29590E29590E258
:2045AB009590E29590E29590E29590E29590E29590E2959D0A0D007C20426C6F636B206E68
:2045CB00756D6265722025642020202020202020202020202020202020202020202020200C
:2045EB00202020200A0D00E2948220456E746572206461746120286865782C2075702074F7
:20460B006F20322063686172616374657273293A200A0D7C002420000A0DE2948220456E52
:20462B00746572656420646174613A203078253032580A0D0044617461206F7574206F66C2
:20464B002052616E67650A0D004572726F723A204E6F2041434B20666F7220646576696389
:20466B0065206164647265737320287772697465290A0D004572726F723A204E6F2041434C
:20468B004B20666F72206D656D6F727920616464726573730A0D004572726F723A204E6F66
:2046AB002041434B20666F7220646174610A0D007C2057726974696E67206174204164642A
:2046CB00726573732030782530335820446174612030782530325820202020202020202009
:2046EB00207C0A0D00E29482205772697465207375636365737366756C2120202020202098
:20470B002020202020202020202020202020202020202020202020E294820A0D00E2949495
:20472B00E29480E29480E29480E29480E29480E29480E29480E29480E29480E29480E2945C
:20474B0080E29480E29480E29480E29480E29480E29480E29480E29480E29480E29480E250
:20476B009480E29480E29480E29480E29480E29480E29480E29480E29480E29480E294807E
:20478B00E29480E29480E29480E29480E29480E29480E29480E29480E29480E29480E294FC
:2047AB0080E29480E29480E29480E29480E294980A0D004572726F723A204E6F2041434B61
:2047CB0020666F7220646576696365206164647265737320287772697465206D6F64652970
:2047EB000A0D004572726F723A204E6F2041434B20666F72206465766963652061646472D5
:20480B00657373202872656164206D6F6465290A0D007C20307825303358203A20307825EE
:20482B00303258200A0D00E294822052656164207375636365737366756C212020202020C7
:20484B00202020202020202020202020E294820A0D0041434B20444944204E4F542041523A
:20486B00524956450A0D000D0A2D2D2D2D2D2D2D2D2D2D2D2D2D2D2D2D2D2D2D2D2D2D2DBE
:20488B002D2D2D2D2D2D2D2D2D2D2D2D2D2D2D2D2D2D2D2D2D2D2D2D2D2D2D2D2D2D2D2D6D
:2048AB002D2D2D2D2D2D2D2D2D0D0A002020202020202020202020202020202020202020C1
:2048CB00454550524F4D204865782044756D702020202020202020202020202020202020EA
:2048EB0020202020202020202020202020200D0A002D2D2D2D2D2D2D2D2D2D2D2D2D2D2D33
:20490B002D2D2D2D2D2D2D2D2D2D2D2D2D2D2D2D2D2D2D2D2D2D2D2D2D2D2D2D2D2D2D2DEC
:20492B002D2D2D2D2D2D2D2D2D2D2D2D2D2D2D2D2D0D0A00202020202030202031202032A5
:20494B0020203320203420203520203620203720203820203920204120204220204320204C
:20496B00442020452020460D0A00253033583A20004572726F723A20446576696365206E4A
:20498B006F7420726573706F6E64696E670D0A004572726F723A20416464726573732077F8
:2049AB0072697465206661696C65640D0A004572726F723A20446576696365206E6F742057
:2049CB00726573706F6E64696E6720696E2072656164206D6F64650D0A0025303258200005
:2049EB0020202000207C20000D0A000A456E7465722053746172742041646472657373203D
:204A0B00666F72204845582044756D7020283030302D374646293A0D0A00496E76616C69E4
:204A2B0064205374617274204164647265737321204D757374206265206265747765656E18
:204A4B0020307830303020616E642030783746460D0A000A456E74657220456E64204164FA
:204A6B00647265737320666F72204845582044756D7020283030302D374646293A0D0A00A6
:204A8B00496E76616C696420456E64204164647265737321204D75737420626520626574FB
:204AAB007765656E2030782530335820616E642030783746460D0A0057726974696E67209B
:204ACB00646174612030782530325820746F2061646472657373203078253032580A0D00C3
:204AEB0052656164206261636B2066726F6D2061646472657373203078253032583A203073
:204B0B0078253032580A0D004D41544348202D2057726974652F5265616420737563636559
:204B2B00737366756C210A0D004552524F52202D2044617461206D69736D61746368210AF3
:024B4B000D005B
:064B580001000100000055
:06203800E478FFF6D8FD7C
:202016007906E94400601B7A01904B58785C75A004E493F2A308B8000205A0D9F4DAF27567
:02203600A0FF09
:20203E007800E84400600A790075A004E4F309D8FC785CE84400600C7901900400E4F0A33D
:04205E00D8FCD9FAD7
:20307B00C0128581127E008E83122065D01222AFF0AE83E582900424F0EEA3F0EFA3F090AF
:20309B000424E0FDA3E0FEA3E0FF900423E0FC900438E4F0A3F0A3F090043BEDF0EEA3F087
:2030BB00EFA3F090043EECF090307B0231D2C012E581F51224FBFF900438E4F0A3F0A3F062
:2030DB00E51224FBF890043BE6F008E6A3F008E6A3F090043EEFF090307B1231D2D012221B
:2030FB00E582900434F0E0FF90042AE0C0E0A3E0C0E0A3E0C0E0123116800D900428E0C0F1
:20311B00E0A3E0C0E08F8222158115811581900432E02401F0A3E03400F022E582900435E8
:20313B00F0E02430FF24C6500D74072FFF900427E060034307208F820230FBE5829004368A
:20315B00F0E0FFC4540FF582C007123136D00753070F8F82023136E582900437F090042D0A
:20317B00E0FCA3E0FDA3E0FEA3E0FF900431E0FB751320900437E0F98B00E828F8EF2354F0
:20319B000148FBEC2CFCED33FDEE33FEEF33FFC3EB994007EBC399FB430401E51314FA8AB7
:2031BB001370D590042DECF0EDA3F0EEA3F0EFA3F0900431EBF022AF83E58290043FF0EF6F
:2031DB00A3F090043FE0FEA3E0FF900428EEF0EFA3F0900438E0FDA3E0FEA3E0FF90042A88
:2031FB00EDF0EEA3F0EFA3F0900432E4F0A3F090043BE0FDA3E0FEA3E0FF8D828E838FF059
:20321B00123B0BFC90043B74012DF0E43EA3F0EFA3F0EC7003023AC7BC25028003023ABFE4
:20323B00900441E4F0900442F0900443F0900444F0900445F0900446F0900447F09004483B
:20325B00F090044AF090044BF0A3F090044D14F0A3F090043BE0FDA3E0FEA3E0FF8D828E6F
:20327B00838FF0123B0BFBA3AD82AE8390043BEDF0EEA3F0EFA3F0900451EBF0BB25088BF9
:20329B00821230FB02320ABB3000500302336BEB24C6500302336B90044DE0F508A3E0F53A
:2032BB000974FFB50863B50960C005C006C00790044BE0FAA3E0FF90045AEAF0EFA3F090D2
:2032DB00000AC005C003123AEBAE82AF83D003D0058B027D00EA2EFEED3FFFEE24D0FEEFE6
:2032FB0034FFFF90044BEEF0EFA3F0D007D006D00590044BE0F5F0A3E045F0600302327855
:20331B009004427401F0023278C005C006C00790045AE508F0E509A3F090000AC006C005E8
:20333B00C003123AEBAA82AF83D003D005D0067E00EB2AFAEE3FFFEA24D0FAEF34FFFF905A
:20335B00044DEAF0EFA3F0D007D006D005023278900451E0FBBB2E2FC005C006C0079004B9
:20337B004DE0FAA3E0FFBAFF05BFFF028009D007D006D005023278D007D006D00590044DF1
:20339B00E4F0A3F0023278BB61004014EB2485400F90045174DF5BF09004277401F0800584
:2033BB00900427E4F0900451E0FBBB20028075BB2B028067BB2D028059BB4202806FBB4353
:2033DB0002807CBB4403023662BB4603023688BB4803023278BB4903023662BB4A030232E5
:2033FB0078BB4C028050BB4F03023670BB50030235D0BB53028077BB5403023278BB5503BF
:20341B00023678BB5803023680BB5A030232780236909004417401F0023278900443740155
:20343B00F00232789004447401F00232789004467401F00232789004477401F00232789085
:20345B000446E0600E90043EE014F9F0900451E7F0800F90043EE024FEFFF08F0190045187
:20347B00E7F0900451E0F5821230FB02369F90043EE024FDFFF08F018705098706098707FF
:20349B00191990042DEDF0EEA3F0EFA3F08D828E838FF0123AD385820885830990044DE09F
:2034BB00FAA3E0FDBAFF0DBDFF0A90044DE508F0E509A3F0900441E0704B90044BE0FAA3E0
:2034DB00E0FDC3E5089AE5099D503A90044BEAC39508F0ED9509A3F090044BE0FAA3E0FD25
:2034FB008A068D071ABAFF011DEE4F6010758220C005C0021230FBD002D00580E390044B2B
:20351B00EAF0EDA3F090044DE0F50BA3E0F50C90042DE0FAA3E0FDA3E0FF8A828D838FF0B9
:20353B00123B0BF50A603CC3E4950B7480850CF063F08095F0502C150B74FFB50B02150C77
:20355B00850A821230FB90042DE0FAA3E0FDA3E0FF0ABA00010D90042DEAF0EDA3F0EFA3E6
:20357B00F080AC900441E0700302369F90044BE0FEA3E0FFC3E5089EE5099F400302369FE1
:20359B0090044BEEC39508F0EF9509A3F090044BE0FEA3E0FF8E028F051EBEFF011FEA4D3E
:2035BB007003023697758220C007C0061230FBD006D00780E090043EE024FDFDF08D0187EB
:2035DB000D09870E09870F191990042DE50DF0E50EA3F0E50FA3F090042FE0FDBD80004087
:2035FB00089004517443F08020BD600040089004517450F08013BD40004008900451744904
:20361B00F080069004517458F0900451E0FDF582C0051230FB75823A1230FB758230123066
:20363B00FB7582781230FBD005BD4902800EBD5002800990042EE0F58212315690042DE072
:20365B00F582123156803D9004457401F090044A740AF0802F90044A7408F0802790044A7A
:20367B00740AF0801F90044A7410F080179004487401F0800F8B821230FB800890044BEECA
:20369B00F0EFA3F0900448E0607190043EE024FCFFF08F018703098705098706098707195A
:2036BB00191990042DEBF0EDA3F0EEA3F0EFA3F090042D744DF0744BA3F07480A3F09004BF
:2036DB002DE0F50DA3E0F50EA3E0F50F7401250DFAE4350EFBAF0F90042DEAF0EBA3F0EF2A
:2036FB00A3F0850D82850E83850FF0123B0BFF700302320A8F821230FB80C390044AE070A7
:20371B000302320A900446E0604790043EE014F9F087077E007D007B0090042DEFF0EEA308
:20373B00F0EDA3F0EBA3F0900445E060030237E290042DE0FBA3E0A3E0A3E07D007E007FAA
:20375B000090042DEBF0EDA3F0EEA3F0EFA3F08076900447E0602890043EE024FCFFF08FA6
:20377B0001870309870509870609870719191990042DEBF0EDA3F0EEA3F0EFA3F08048901F
:20379B00043EE024FEFFF08F01870609870719EF3395E0FDFB90042DEEF0EFA3F0EDA3F0DE
:2037BB00EBA3F0900445E0701E90042DE0FBA3E0FDA3E0A3E07E007F0090042DEBF0EDA3DE
:2037DB00F0EEA3F0EFA3F0900445E0604190042DE0FBA3E0FDA3E0FEA3E0FF30E72B90048C
:2037FB002DE0FBA3E0FDA3E0FEA3E0FFC3E49BFBE49DFDE49EFEE49FFF90042DEBF0EDA33A
:20381B00F0EEA3F0EFA3F08005900445E4F09004497401F090044AE0F50B75105775110402
:20383B00E4F508F509900431E4F0850B82123172900449E07026900431E0C4F50D85108259
:20385B00851183E0FFE50D4207851082851183EFF0151074FFB510021511800C900431E055
:20387B00FF851082851183F00508E4B508020509900449E0B40100E433F090042DE0FAA399
:20389B00E0FBA3E0FEA3E0FFEA4B4E4F7097900458E510F0E511A3F090044FE508F0E5094E
:2038BB00A3F090044BE0F5F0A3E045F0700990044B7401F0E4A3F0900442E0FFE0704790EE
:2038DB000441E0704185081085091190044BE0FAA3E0FBC007AF100F8F067F00C3EE9AEFA1
:2038FB009BD0075019758220C007C003C0021230FBD002D003D0071ABAFF011B80D59004DE
:20391B004BEAF0EBA3F0900445E0602075822DC0071230FBD00790044BE024FFFDA3E0341B
:20393B00FFFE90044BEDF0EEA3F0805690044FE0F5F0A3E045F0604A900443E06020758224
:20395B002BC0071230FBD00790044BE024FFFDA3E034FFFE90044BEDF0EEA3F0802490043E
:20397B0044E0601E758220C0071230FBD00790044BE024FFFDA3E034FFFE90044BEDF0EE5B
:20399B00A3F0900441E0704890044FE0F510A3E0F51190044BE0FAA3E0FBC0078A068B079B
:2039BB001ABAFF011BC3E5109EE5119FD0075053EF60067D307E0080047D207E008D82C0AA
:2039DB0007C003C0021230FBD002D003D00780CA90044BE0FEA3E0FF90044FE0F510A3E0B3
:2039FB00F511C3E5109EE5119F500F90044BEEC39510F0EF9511A3F0801190044BE4F0A328
:203A1B00F0800890044BEAF0EBA3F0900458E0FEA3E0FF90044FE0F510A3E0F511AA10ADD8
:203A3B0011151074FFB510021511EA4D6045900449E0B40100E433F0900449E070140EBE73
:203A5B0000010F8E828F83E0C4540FFD900431F0800E8E828F83E0FD53050F900431EDF0CA
:203A7B00900431E0F582C007C006123136D006D00780AA900441E0700302320A90044BE00D
:203A9B00FEA3E0FF8E038F051EBEFF011FEB4D700302320A758220C007C0061230FBD006CB
:183ABB00D00780E08C821230FB02320A900432E0FEA3E08E82F5832262
:0B4B4D003C4E4F20464C4F41543E00B0
:183AD300AA82AB83123B0B6003A380F8C3E5829AF582E5839BF58322D3
:203AEB00AA83AB828BF090045AE0A4F8A9F08AF0E0A429F98BF0A3E0A429F5838882222232
:0D200900758120123B27E58260030220064E
:1C3B0B0020F71430F6148883A88220F507E6A88375830022E280F7E49322E022C9
:043B27007582002281
:00000001FF
