:06300000023009023092CB
:0330620002300633
:033006000230F69F
:10306500AF83E582900400F0EFA3F0900400E0FE4A
:10307500A3E0FF8E9910990280FB8E828F83221028
:10308500980280FBAE997F008E828F8322C020C07C
:10309500E0C0F0C082C083C007C006C005C004C040
:1030A50003C002C001C000C0D075D00075820012F7
:1030B50031BBAF82900404EFF07582071231F774CB
:1030C5001DC0E0743EC0E07480C0E01233BB1581C2
:1030D50015811581D0D0D000D001D002D003D00405
:1030E500D005D006D007D083D082D0F0D0E0D02054
:1030F500325390F75390EF7423C0E0743EC0E074F0
:1031050080C0E01233BB15811581158112319912EA
:1031150033347582701232477582FF12324712338B
:10312500497439C0E0743EC0E07480C0E01233BB1E
:103135001581158115817582001231BBAF827E0024
:10314500C007C0067453C0E0743EC0E07480C0E0A0
:103155001233BBE58124FBF5819004047401F075FD
:1031650082011231F79004047401F0758202123164
:10317500F79004047401F07582031231F79004048A
:103185007401F07582041231F7900404E4F075823D
:10319500050231F7D288D2A8D2AF22123334758214
:1031A500711232479000001232AFAE82C006123360
:1031B50049D0068E8222E582900402F01231A0AF3A
:1031C50082900402E0FE8EF005F0EF8002C313D575
:1031D500F0FB5401F58222E582900403F0123334AA
:1031E500758270123247900403E0F582123247026D
:1031F5003349E582900405F01231A0AF82900404B2
:10320500E0601D900405E0FE8EF005F0740180027B
:1032150025E0D5F0FBFE8F05900406EE4DF08019F4
:10322500900405E0FE8EF005F07401800225E0D5DE
:10323500F0FBF4FE9004065FF0900406E0F58202D0
:1032450031DCE582900407F07E007F00900407E002
:10325500FD23540124FF9294C007C006C005123314
:1032650056D293123356D005D006D007C293ED2D12
:10327500900407F00EBE00010FC374079EE49F5033
:10328500CBD294D2931233563094197463C0E07440
:103295003EC0E07480C0E01233BB158115811581F5
:1032A50090000022C29390000122AF83E582900432
:1032B50008F0EFA3F090040AE4F0C2937E007F00CB
:1032C500C3EE9408EF648094805040D293C007C049
:1032D50006123356D006D007A294E433FD8E04744B
:1032E50007C39CFC8CF005F0ED800225E0D5F0FBD2
:1032F500FC90040AE04CF0C007C006123356D00615
:10330500D007C2930EBE00B80F80B5900408E0FE4A
:10331500A3E04EB40100E43324FF9294D293123318
:1033250056C29390040AE0FF7E008F828E8322129C
:103335003356D294123356D293123356C294123363
:1033450056C29322C294123356D293123356D29454
:10335500227E007F00C3EE94F4EF648094815007D1
:083365000EBE00F10F80EE2204
:103E1D006973720A0D00494F20455850414E444573
:103E2D00522050524F4752414D0A0D00494F2065C7
:103E3D007870616E64657220696E697469616C6910
:103E4D007A65640A0D00706F727420302070696E8F
:103E5D002025640A0D0041434B20444944204E4F18
:0B3E6D0054204152524956450A0D00F6
:06303800E478FFF6D8FD6C
:103016007900E94400601B7A00903E83784475A0ED
:1030260004E493F2A308B8000205A0D9F4DAF27515
:02303600A0FFF9
:10303E007800E84400600A790075A004E4F309D82A
:10304E00FC7844E84400600C7901900400E4F0A39D
:04305E00D8FCD9FAC7
:10336D00C0128581127E008E83123065D01222AF7D
:10337D00F0AE83E58290040CF0EEA3F0EFA3F09095
:10338D00040CE0FDA3E0FEA3E0FF90040BE0FC9035
:10339D000420E4F0A3F0A3F0900423EDF0EEA3F0ED
:1033AD00EFA3F0900426ECF090336D0234C4C012FC
:1033BD00E581F51224FBFF900420E4F0A3F0A3F0C7
:1033CD00E51224FBF8900423E6F008E6A3F008E6E6
:1033DD00A3F0900426EFF090336D1234C4D0122276
:1033ED00E58290041CF0E0FF900412E0C0E0A3E041
:1033FD00C0E0A3E0C0E0123408800D900410E0C0DE
:10340D00E0A3E0C0E08F8222158115811581900423
:10341D001AE02401F0A3E03400F022E58290041DAF
:10342D00F0E02430FF24C6500D74072FFF90040FD9
:10343D00E060034307208F820233EDE58290041E86
:10344D00F0E0FFC4540FF582C007123428D00753A3
:10345D00070F8F82023428E58290041FF090041527
:10346D00E0FCA3E0FDA3E0FEA3E0FF900419E0FB68
:10347D0075132090041FE0F98B00E828F8EF235412
:10348D000148FBEC2CFCED33FDEE33FEEF33FFC3B7
:10349D00EB994007EBC399FB430401E51314FA8A3A
:1034AD001370D5900415ECF0EDA3F0EEA3F0EFA39F
:1034BD00F0900419EBF022AF83E582900427F0EF32
:1034CD00A3F0900427E0FEA3E0FF900410EEF0EFD0
:1034DD00A3F0900420E0FDA3E0FEA3E0FF90041212
:1034ED00EDF0EEA3F0EFA3F090041AE4F0A3F0904A
:1034FD000423E0FDA3E0FEA3E0FF8D828E838FF019
:10350D00123DFDFC90042374012DF0E43EA3F0EF79
:10351D00A3F0EC7003023DB9BC25028003023DB15E
:10352D00900429E4F090042AF090042BF090042CE0
:10353D00F090042DF090042EF090042FF0900430B4
:10354D00F0900432F0900433F0A3F090043514F0B1
:10355D00A3F0900423E0FDA3E0FEA3E0FF8D828E97
:10356D00838FF0123DFDFBA3AD82AE83900423ED5E
:10357D00F0EEA3F0EFA3F0900439EBF0BB25088B30
:10358D00821233ED0234FCBB3000500302365DEB8A
:10359D0024C6500302365D900435E0F508A3E0F52E
:1035AD000974FFB50863B50960C005C006C0079072
:1035BD000433E0FAA3E0FF900442EAF0EFA3F090A9
:1035CD00000AC005C003123DDDAE82AF83D003D02B
:1035DD00058B027D00EA2EFEED3FFFEE24D0FEEFBF
:1035ED0034FFFF900433EEF0EFA3F0D007D006D0F8
:1035FD0005900433E0F5F0A3E045F0600302356A71
:10360D0090042A7401F002356AC005C006C0079007
:10361D000442E508F0E509A3F090000AC006C005D4
:10362D00C003123DDDAA82AF83D003D005D0067E44
:10363D0000EB2AFAEE3FFFEA24D0FAEF34FFFF90B9
:10364D000435EAF0EFA3F0D007D006D00502356AB5
:10365D00900439E0FBBB2E2FC005C006C0079004B7
:10366D0035E0FAA3E0FFBAFF05BFFF028009D007DE
:10367D00D006D00502356AD007D006D005900435A6
:10368D00E4F0A3F002356ABB61004014EB248540E1
:10369D000F90043974DF5BF090040F7401F0800516
:1036AD0090040FE4F0900439E0FBBB20028075BB61
:1036BD002B028067BB2D028059BB4202806FBB433A
:1036CD0002807CBB4403023954BB460302397ABBEA
:1036DD00480302356ABB4903023954BB4A0302351C
:1036ED006ABB4C028050BB4F03023962BB500302D0
:1036FD0038C2BB53028077BB540302356ABB5503F6
:10370D0002396ABB5803023972BB5A0302356A0289
:10371D0039829004297401F002356A90042B7401EA
:10372D00F002356A90042C7401F002356A90042E73
:10373D007401F002356A90042F7401F002356A901D
:10374D00042EE0600E900426E014F9F0900439E7A1
:10375D00F0800F900426E024FEFFF08F01900439D5
:10376D00E7F0900439E0F5821233ED0239919004BF
:10377D0026E024FDFFF08F018705098706098707DD
:10378D001919900415EDF0EEA3F0EFA3F08D828ED4
:10379D00838FF0123DC5858208858309900435E03D
:1037AD00FAA3E0FDBAFF0DBDFF0A900435E508F060
:1037BD00E509A3F0900429E0704B900433E0FAA3DF
:1037CD00E0FDC3E5089AE5099D503A900433EAC33C
:1037DD009508F0ED9509A3F0900433E0FAA3E0FD10
:1037ED008A068D071ABAFF011DEE4F6010758220F3
:1037FD00C005C0021233EDD002D00580E390043332
:10380D00EAF0EDA3F0900435E0F50BA3E0F50C9094
:10381D000415E0FAA3E0FDA3E0FF8A828D838FF00B
:10382D00123DFDF50A603CC3E4950B7480850CF0E8
:10383D0063F08095F0502C150B74FFB50B02150C31
:10384D00850A821233ED900415E0FAA3E0FDA3E0A2
:10385D00FF0ABA00010D900415EAF0EDA3F0EFA3F5
:10386D00F080AC900429E07003023991900433E0AC
:10387D00FEA3E0FFC3E5089EE5099F4003023991D1
:10388D00900433EEC39508F0EF9509A3F09004333F
:10389D00E0FEA3E0FF8E028F051EBEFF011FEA4D65
:1038AD007003023989758220C007C0061233EDD02E
:1038BD0006D00780E0900426E024FDFDF08D018701
:1038CD000D09870E09870F1919900415E50DF0E5FF
:1038DD000EA3F0E50FA3F0900417E0FDBD800040AE
:1038ED00089004397443F08020BD600040089004B6
:1038FD00397450F08013BD4000400890043974496C
:10390D00F080069004397458F0900439E0FDF5828A
:10391D00C0051233ED75823A1233ED7582301233D4
:10392D00ED7582781233EDD005BD4902800EBD5084
:10393D00028009900416E0F582123448900415E0D7
:10394D00F582123448803D90042D7401F0900432BC
:10395D00740AF0802F9004327408F080279004329E
:10396D00740AF0801F9004327410F08017900430A8
:10397D007401F0800F8B821233ED8008900433EECA
:10398D00F0EFA3F0900430E06071900426E024FC89
:10399D00FFF08F0187030987050987060987071936
:1039AD001919900415EBF0EDA3F0EEA3F0EFA3F0D1
:1039BD009004157478F0743EA3F07480A3F0900415
:1039CD0015E0F50DA3E0F50EA3E0F50F7401250D3F
:1039DD00FAE4350EFBAF0F900415EAF0EBA3F0EF10
:1039ED00A3F0850D82850E83850FF0123DFDFF70CE
:1039FD00030234FC8F821233ED80C3900432E070E9
:103A0D00030234FC90042EE06047900426E014F984
:103A1D00F087077E007D007B00900415EFF0EEA38C
:103A2D00F0EDA3F0EBA3F090042DE06003023AD487
:103A3D00900415E0FBA3E0A3E0A3E07D007E007FF2
:103A4D0000900415EBF0EDA3F0EEA3F0EFA3F080E2
:103A5D007690042FE06028900426E024FCFFF08F80
:103A6D000187030987050987060987071919199021
:103A7D000415EBF0EDA3F0EEA3F0EFA3F08048906A
:103A8D000426E024FEFFF08F01870609870719EF52
:103A9D003395E0FDFB900415EEF0EFA3F0EDA3F0F0
:103AAD00EBA3F090042DE0701E900415E0FBA3E055
:103ABD00FDA3E0A3E07E007F00900415EBF0EDA3E5
:103ACD00F0EEA3F0EFA3F090042DE060419004150B
:103ADD00E0FBA3E0FDA3E0FEA3E0FF30E72B9004A5
:103AED0015E0FBA3E0FDA3E0FEA3E0FFC3E49BFB19
:103AFD00E49DFDE49EFEE49FFF900415EBF0EDA325
:103B0D00F0EEA3F0EFA3F0800590042DE4F0900407
:103B1D00317401F0900432E0F50B75103F7511040E
:103B2D00E4F508F509900419E4F0850B821234646C
:103B3D00900431E07026900419E0C4F50D851082D3
:103B4D00851183E0FFE50D4207851082851183EF16
:103B5D00F0151074FFB510021511800C900419E0CA
:103B6D00FF851082851183F00508E4B5080205096B
:103B7D00900431E0B40100E433F0900415E0FAA3B1
:103B8D00E0FBA3E0FEA3E0FFEA4B4E4F70979004DD
:103B9D0040E510F0E511A3F0900437E508F0E509D4
:103BAD00A3F0900433E0F5F0A3E045F07009900424
:103BBD00337401F0E4A3F090042AE0FFE070479025
:103BCD000429E07041850810850911900433E0FA4D
:103BDD00A3E0FBC007AF100F8F067F00C3EE9AEF77
:103BED009BD0075019758220C007C003C002123345
:103BFD00EDD002D003D0071ABAFF011B80D5900477
:103C0D0033EAF0EBA3F090042DE0602075822DC017
:103C1D00071233EDD007900433E024FFFDA3E03409
:103C2D00FFFE900433EDF0EEA3F08056900437E0E4
:103C3D00F5F0A3E045F0604A90042BE0602075821A
:103C4D002BC0071233EDD007900433E024FFFDA302
:103C5D00E034FFFE900433EDF0EEA3F080249004E9
:103C6D002CE0601E758220C0071233EDD007900442
:103C7D0033E024FFFDA3E034FFFE900433EDF0EEBE
:103C8D00A3F0900429E07048900437E0F510A3E00C
:103C9D00F511900433E0FAA3E0FBC0078A068B0709
:103CAD001ABAFF011BC3E5109EE5119FD0075053B3
:103CBD00EF60067D307E0080047D207E008D82C009
:103CCD0007C003C0021233EDD002D003D00780CA63
:103CDD00900433E0FEA3E0FF900437E0F510A3E07D
:103CED00F511C3E5109EE5119F500F900433EEC3FF
:103CFD009510F0EF9511A3F08011900433E4F0A32B
:103D0D00F08008900433EAF0EBA3F0900440E0FE5D
:103D1D00A3E0FF900437E0F510A3E0F511AA10AD74
:103D2D0011151074FFB510021511EA4D6045900480
:103D3D0031E0B40100E433F0900431E070140EBEB4
:103D4D0000010F8E828F83E0C4540FFD900419F093
:103D5D00800E8E828F83E0FD53050F900419EDF0D8
:103D6D00900419E0F582C007C006123428D006D0A1
:103D7D000780AA900429E070030234FC900433E01C
:103D8D00FEA3E0FF8E038F051EBEFF011FEB4D70DE
:103D9D00030234FC758220C007C0061233EDD00635
:103DAD00D00780E08C821233ED0234FC90041AE0CF
:083DBD00FEA3E08E82F58322D3
:0B3E78003C4E4F20464C4F41543E0092
:103DC500AA82AB83123DFD6003A380F8C3E5829A06
:103DD500F582E5839BF58322AA83AB828BF0900461
:103DE50042E0A4F8A9F08AF0E0A429F98BF0A3E059
:083DF500A429F5838882222233
:0D300900758120123E19E582600302300639
:103DFD0020F71430F6148883A88220F507E6A883EF
:103E0D0075830022E280F7E49322E022758200227E
:00000001FF
