:0330000002300695
:03305F0002300339
:033003000231692E
:20306200AF83E582900400F0EFA3F0900400E0FEA3E0FF7C007D00C3EC9EED9F50147A7B90
:203082007B001ABAFF011BEA4B70F70CBC00E80D80E5227580FFC295D296D2979000011225
:2030A2003062900402E580F0C297900001123062900402E020E7E3758000C29622E582903D
:2030C2000403F0E0F580C295C296D297900001123062C29722E582900404F0E0F580D2952F
:2030E200C296D297900001123062C29722AFF0AE83E582900405F0EEA3F0EFA3F090040501
:20310200E0FDA3E0FEA3E0FF8D828E838FF012317AFC60230DBD00010E900405EDF0EEA312
:20312200F0EFA3F08C82C007C006C0051230D7D005D006D00780D1900405EDF0EEA3F0EFE9
:20314200A3F0229000141230627582381230BF75820F1230BF7582061230BF758201123001
:18316200BF7582800230BF9000281230621231457582481230D780FE74
:06303500E478FFF6D8FD6F
:203013007900E94400601B7A0090319A780875A004E493F2A308B8000205A0D9F4DAF2758D
:02303300A0FFFC
:20303B007800E84400600A790075A004E4F309D8FC7808E84400600C7901900400E4F0A384
:04305B00D8FCD9FACA
:0D300600758107123196E5826003023003E8
:1C317A0020F71430F6148883A88220F507E6A88375830022E280F7E49322E02264
:04319600758200221C
:00000001FF
