:03000000020006F5
:03005F0002000399
:030003000200A652
:10006200759850758920758DFDD28ED29922AF83F5
:10007200E582900400F0EFA3F010990280FB900457
:1000820000E0FEA3E0FF8E998E828F83223098FDDE
:10009200900402E599F0C298900402E0FF7E008F7E
:1000A200828E832212006212023B7430C0E0740D11
:1000B200C0E07480C0E01202CE15811581158174F2
:1000C20041C0E0740DC0E07480C0E01202CE158120
:1000D20015811581744EC0E0740DC0E07480C0E0DB
:1000E2001202CE158115811581745DC0E0740DC0B8
:1000F200E07480C0E01202CE158115811581746D05
:10010200C0E0740DC0E07480C0E01202CE1581150B
:100112008115817487C0E0740DC0E07480C0E01264
:1001220002CE15811581158174A1C0E0740DC0E065
:100132007480C0E01202CE15811581158174B2C09F
:10014200E0740DC0E07480C0E01202CE158115810A
:10015200158175880175A88112008FAE828E057F88
:10016200008D828F83C00612007074C9C0E0740DC6
:10017200C0E07480C0E01202CE158115811581D0D5
:1001820006BE46028023BE49028028BE4D02801E62
:10019200BE50028023BE52028005BE53208005124B
:1001A200024E80B412026780AF12020980AA1202C4
:1001B2002280A51201D780A01201F0809B74CCC0CE
:1001C200E0740DC0E07480C0E01202CE158115818A
:1001D200158102015A74DEC0E0740DC0E07480C063
:1001E200E01202CE1581158115817587012274EA0C
:1001F200C0E0740DC0E07480C0E01202CE1581151B
:100202008115817587022274FCC0E0740DC0E07410
:1002120080C0E01202CE1581158115817597FF22EB
:100222007410C0E0740EC0E07480C0E01202CE15FB
:1002320081158115817597002275D98275E900753E
:10024200F90075EA1C75FA1C75DA42227424C0E0C2
:10025200740EC0E07480C0E01202CE1581158115C3
:100262008175D840227430C0E0740EC0E07480C042
:0E027200E01202CE15811581158175D800228B
:100D3000504341204D4F4445203A2050574D0A0D15
:100D400000434F4D4D414E4453203A0A0D0020526E
:100D5000202D2052554E2050574D0A0D0020532073
:100D60002D2053544F502050574D0A0D002046203F
:100D70002D204D4158204652455155454E4359204E
:100D80004D4F44450A0D00204D202D204D494E2049
:100D90004652455155454E4359204D4F44450A0D45
:100DA000002049202D2049444C45204D4F44450A00
:100DB0000D002050202D20504F57455220444F57B2
:100DC0004E204D4F44450A0D000A0D00496E7661D4
:100DD0006C696420436F6D6D616E640A0D00494457
:100DE0004C45204D4F44450A0D00504F5745522069
:100DF000444F574E204D4F44450A0D004D41584930
:100E00004D554D204652455155454E43590A0D000A
:100E10004D494E494D554D204652455155454E433D
:100E2000590A0D0050574D2053544152540A0D0099
:0B0E300050574D2053544F500A0D0046
:06003500E478FFF6D8FD9F
:100013007900E94400601B7A00900E46783C75A095
:1000230004E493F2A308B8000205A0D9F4DAF27548
:02003300A0FF2C
:10003B007800E84400600A790075A004E4F309D85D
:10004B00FC783CE84400600C7901900400E4F0A3D8
:04005B00D8FCD9FAFA
:10028000C0128581127E008E83120070D01222AFC0
:10029000F0AE83E582900404F0EEA3F0EFA3F090BB
:1002A0000404E0FDA3E0FEA3E0FF900403E0FC9063
:1002B0000418E4F0A3F0A3F090041BEDF0EEA3F01B
:1002C000EFA3F090041EECF09002800203D7C0125E
:1002D000E581F51224FBFF900418E4F0A3F0A3F0ED
:1002E000E51224FBF890041BE6F008E6A3F008E60C
:1002F000A3F090041EEFF09002801203D7D01222D8
:10030000E582900414F0E0FF90040AE0C0E0A3E06E
:10031000C0E0A3E0C0E012031B800D900408E0C021
:10032000E0A3E0C0E08F8222158115811581900441
:1003300012E02401F0A3E03400F022E582900415DD
:10034000F0E02430FF24C6500D74072FFF900407FF
:10035000E060034307208F82020300E582900416C9
:10036000F0E0FFC4540FF582C00712033BD00753DF
:10037000070F8F8202033BE582900417F090040D73
:10038000E0FCA3E0FDA3E0FEA3E0FF900411E0FB8E
:10039000751320900417E0F98B00E828F8EF235438
:1003A0000148FBEC2CFCED33FDEE33FEEF33FFC3D5
:1003B000EB994007EBC399FB430401E51314FA8A58
:1003C0001370D590040DECF0EDA3F0EEA3F0EFA3C5
:1003D000F0900411EBF022AF83E58290041FF0EF60
:1003E000A3F090041FE0FEA3E0FF900408EEF0EFFE
:1003F000A3F0900418E0FDA3E0FEA3E0FF90040A40
:10040000EDF0EEA3F0EFA3F0900412E4F0A3F0906F
:10041000041BE0FDA3E0FEA3E0FF8D828E838FF03E
:10042000120D10FC90041B74012DF0E43EA3F0EFBC
:10043000A3F0EC7003020CCCBC25028003020CC4B8
:10044000900421E4F0900422F0900423F09004241E
:10045000F0900425F0900426F0900427F0900428F2
:10046000F090042AF090042BF0A3F090042D14F0E7
:10047000A3F090041BE0FDA3E0FEA3E0FF8D828EBD
:10048000838FF0120D10FBA3AD82AE8390041BEDA1
:10049000F0EEA3F0EFA3F0900431EBF0BB25088B56
:1004A0008212030002040FBB30005003020570EB00
:1004B00024C6500302057090042DE0F508A3E0F572
:1004C0000974FFB50863B50960C005C006C0079090
:1004D000042BE0FAA3E0FF90043AEAF0EFA3F090D7
:1004E000000AC005C003120CF0AE82AF83D003D067
:1004F000058B027D00EA2EFEED3FFFEE24D0FEEFDD
:1005000034FFFF90042BEEF0EFA3F0D007D006D01D
:100510000590042BE0F5F0A3E045F0600302047DB4
:100520009004227401F002047DC005C006C007904B
:10053000043AE508F0E509A3F090000AC006C005FA
:10054000C003120CF0AA82AF83D003D005D0067E80
:1005500000EB2AFAEE3FFFEA24D0FAEF34FFFF90D7
:10056000042DEAF0EFA3F0D007D006D00502047DF9
:10057000900431E0FBBB2E2FC005C006C0079004DD
:100580002DE0FAA3E0FFBAFF05BFFF028009D00704
:10059000D006D00502047DD007D006D00590042DEA
:1005A000E4F0A3F002047DBB61004014EB2485401D
:1005B0000F90043174DF5BF09004077401F0800544
:1005C000900407E4F0900431E0FBBB20028075BB8F
:1005D0002B028067BB2D028059BB4202806FBB4358
:1005E00002807CBB4403020867BB460302088DBB44
:1005F000480302047DBB4903020867BB4A030204A7
:100600007DBB4C028050BB4F03020875BB500302F8
:1006100007D5BB53028077BB540302047DBB55034F
:1006200002087DBB5803020885BB5A0302047D0201
:1006300008959004217401F002047D900423740154
:10064000F002047D9004247401F002047D900426DD
:100650007401F002047D9004277401F002047D907F
:100660000426E0600E90041EE014F9F0900431E7D7
:10067000F0800F90041EE024FEFFF08F0190043103
:10068000E7F0900431E0F5821203000208A4900420
:100690001EE024FDFFF08F01870509870609870703
:1006A000191990040DEDF0EEA3F0EFA3F08D828EFA
:1006B000838FF0120CD885820885830990042DE081
:1006C000FAA3E0FDBAFF0DBDFF0A90042DE508F086
:1006D000E509A3F0900421E0704B90042BE0FAA30D
:1006E000E0FDC3E5089AE5099D503A90042BEAC362
:1006F0009508F0ED9509A3F090042BE0FAA3E0FD36
:100700008A068D071ABAFF011DEE4F601075822010
:10071000C005C002120300D002D00580E390042B74
:10072000EAF0EDA3F090042DE0F50BA3E0F50C90BA
:10073000040DE0FAA3E0FDA3E0FF8A828D838FF031
:10074000120D10F50A603CC3E4950B7480850CF023
:1007500063F08095F0502C150B74FFB50B02150C4F
:10076000850A8212030090040DE0FAA3E0FDA3E0E5
:10077000FF0ABA00010D90040DEAF0EDA3F0EFA31B
:10078000F080AC900421E070030208A490042BE0F8
:10079000FEA3E0FFC3E5089EE5099F40030208A40D
:1007A00090042BEEC39508F0EF9509A3F090042B6D
:1007B000E0FEA3E0FF8E028F051EBEFF011FEA4D83
:1007C000700302089C758220C007C006120300D087
:1007D00006D00780E090041EE024FDFDF08D018727
:1007E0000D09870E09870F191990040DE50DF0E525
:1007F0000EA3F0E50FA3F090040FE0FDBD800040D4
:10080000089004317443F08020BD600040089004DB
:10081000317450F08013BD40004008900431744999
:10082000F080069004317458F0900431E0FDF582B8
:10083000C00512030075823A12030075823012035C
:1008400000758278120300D005BD4902800EBD50AC
:1008500002800990040EE0F58212035B90040DE023
:10086000F58212035B803D9004257401F090042A08
:10087000740AF0802F90042A7408F0802790042ACC
:10088000740AF0801F90042A7410F08017900428D6
:100890007401F0800F8B82120300800890042BEE0D
:1008A000F0EFA3F0900428E0607190041EE024FCB7
:1008B000FFF08F0187030987050987060987071954
:1008C000191990040DEBF0EDA3F0EEA3F0EFA3F0F7
:1008D00090040D743BF0740EA3F07480A3F09004A8
:1008E0000DE0F50DA3E0F50EA3E0F50F7401250D65
:1008F000FAE4350EFBAF0F90040DEAF0EBA3F0EF36
:10090000A3F0850D82850E83850FF0120D10FF7008
:100910000302040F8F8212030080C390042AE07048
:100920000302040F900426E0604790041EE014F9CF
:10093000F087077E007D007B0090040DEFF0EEA3B2
:10094000F0EDA3F0EBA3F0900425E060030209E7CB
:1009500090040DE0FBA3E0A3E0A3E07D007E007F18
:100960000090040DEBF0EDA3F0EEA3F0EFA3F08008
:1009700076900427E0602890041EE024FCFFF08FAE
:10098000018703098705098706098707191919903F
:10099000040DEBF0EDA3F0EEA3F0EFA3F080489090
:1009A000041EE024FEFFF08F01870609870719EF78
:1009B0003395E0FDFB90040DEEF0EFA3F0EDA3F016
:1009C000EBA3F0900425E0701E90040DE0FBA3E083
:1009D000FDA3E0A3E07E007F0090040DEBF0EDA30B
:1009E000F0EEA3F0EFA3F0900425E0604190040D39
:1009F000E0FBA3E0FDA3E0FEA3E0FF30E72B9004C3
:100A00000DE0FBA3E0FDA3E0FEA3E0FFC3E49BFB3E
:100A1000E49DFDE49EFEE49FFF90040DEBF0EDA34A
:100A2000F0EEA3F0EFA3F08005900425E4F090042D
:100A3000297401F090042AE0F50B75103775110444
:100A4000E4F508F509900411E4F0850B82120377B0
:100A5000900429E07026900411E0C4F50D85108201
:100A6000851183E0FFE50D4207851082851183EF34
:100A7000F0151074FFB510021511800C900411E0F0
:100A8000FF851082851183F00508E4B50802050989
:100A9000900429E0B40100E433F090040DE0FAA3DF
:100AA000E0FBA3E0FEA3E0FFEA4B4E4F70979004FB
:100AB00038E510F0E511A3F090042FE508F0E50902
:100AC000A3F090042BE0F5F0A3E045F0700990044A
:100AD0002B7401F0E4A3F0900422E0FFE070479053
:100AE0000421E0704185081085091190042BE0FA7B
:100AF000A3E0FBC007AF100F8F067F00C3EE9AEF95
:100B00009BD0075019758220C007C003C002120392
:100B100000D002D003D0071ABAFF011B80D5900481
:100B20002BEAF0EBA3F0900425E0602075822DC045
:100B300007120300D00790042BE024FFFDA3E0344C
:100B4000FFFE90042BEDF0EEA3F0805690042FE012
:100B5000F5F0A3E045F0604A900423E06020758240
:100B60002BC007120300D00790042BE024FFFDA345
:100B7000E034FFFE90042BEDF0EEA3F0802490040F
:100B800024E0601E758220C007120300D007900485
:100B90002BE024FFFDA3E034FFFE90042BEDF0EEEC
:100BA000A3F0900421E0704890042FE0F510A3E03A
:100BB000F51190042BE0FAA3E0FBC0078A068B072F
:100BC0001ABAFF011BC3E5109EE5119FD0075053D1
:100BD000EF60067D307E0080047D207E008D82C027
:100BE00007C003C002120300D002D003D00780CA9E
:100BF00090042BE0FEA3E0FF90042FE0F510A3E0AB
:100C0000F511C3E5109EE5119F500F90042BEEC324
:100C10009510F0EF9511A3F0801190042BE4F0A350
:100C2000F0800890042BEAF0EBA3F0900438E0FE8B
:100C3000A3E0FF90042FE0F510A3E0F511AA10AD9A
:100C400011151074FFB510021511EA4D604590049E
:100C500029E0B40100E433F0900429E070140EBEE2
:100C600000010F8E828F83E0C4540FFD900411F0B9
:100C7000800E8E828F83E0FD53050F900411EDF0FE
:100C8000900411E0F582C007C00612033BD006D0E5
:100C90000780AA900421E0700302040F90042BE067
:100CA000FEA3E0FF8E038F051EBEFF011FEB4D70FC
:100CB0000302040F758220C007C006120300D0068D
:100CC000D00780E08C8212030002040F900412E02F
:080CD000FEA3E08E82F58322F1
:0B0E3B003C4E4F20464C4F41543E00FF
:100CD800AA82AB83120D106003A380F8C3E5829A41
:100CE800F582E5839BF58322AA83AB828BF090047F
:100CF8003AE0A4F8A9F08AF0E0A429F98BF0A3E07F
:080D0800A429F5838882222250
:0D000600758113120D2CE5826003020003CA
:100D100020F71430F6148883A88220F507E6A8830C
:100D200075830022E280F7E49322E022758200229C
:00000001FF
