:0330000002300695
:03305F0002300339
:0330030002308F09
:10306200AF83E582900400F0EFA3F0900400E0FE4D
:10307200A3E0FF8E9910990280FB8E828F8322102B
:10308200980280FBAE997F008E828F832212325D7E
:103092007499C0E0743DC0E07480C0E0123337150B
:1030A200811581158174A4C0E0743DC0E07480C0B4
:1030B200E012333715811581158174B1C0E0743D7A
:1030C200C0E07480C0E01233371581158115817418
:1030D200C0C0E0743DC0E07480C0E0123337158197
:1030E2001581158174D0C0E0743DC0E07480C0E0E9
:1030F20012333715811581158174EAC0E0743DC021
:10310200E07480C0E0123337158115811581740493
:10311200C0E0743EC0E07480C0E012333715811500
:103122008115817415C0E0743EC0E07480C0E01265
:103132003337158115811581742CC0E0743EC0E0CF
:103142007480C0E01233371581158115817446C031
:10315200E0743EC0E07480C0E012333715811581FF
:10316200158143880143A881123081AE828E057F8A
:10317200008D828F83C0061230627461C0E0743E9B
:10318200C0E07480C0E0123337158115811581D0FB
:1031920006BE4602802DBE4802803CBE4902802DFA
:1031A200BE4D028023BE50028028BE5102802DBE39
:1031B20052028005BE5328800512327380AA123251
:1031C2008C80A512322B80A0123244809B1231F9DE
:1031D200809612321280911232A5808C1232D074F3
:1031E20064C0E0743EC0E07480C0E01233371581E1
:1031F2001581158102316A7476C0E0743EC0E074B4
:1032020080C0E01233371581158115814387012271
:103212007482C0E0743EC0E07480C0E0123337159F
:103222008115811581438702227494C0E0743EC0E7
:10323200E07480C0E01233371581158115817597CE
:10324200FF2274A8C0E0743EC0E07480C0E0123374
:10325200371581158115817597012275DA0075D9A7
:103262008275E90075F90075EAAC75FAAC75DA4257
:103272002274BCC0E0743EC0E07480C0E0123337F8
:1032820015811581158175D8402274C8C0E0743E3D
:10329200C0E07480C0E01233371581158115817545
:1032A200D8002274D3C0E0743EC0E07480C0E01243
:1032B200333715811581158143D84C43D90275DA0C
:1032C2004C75E90075F90075EAAC75FAAC2274E840
:1032D200C0E0743EC0E07480C0E01233371581153F
:0732E20081158175DA00225D
:103D99005043412044454D4F0A0D00434F4D4D417D
:103DA9004E4453203A0A0D002052202D2052554EE0
:103DB9002050574D0A0D002053202D2053544F50A9
:103DC9002050574D0A0D002046202D204D415820E6
:103DD9004652455155454E4359204D4F44450A0DCC
:103DE90000204D202D204D494E2046524551554524
:103DF9004E4359204D4F44450A0D002049202D209E
:103E090049444C45204D4F44450A0D002050202D72
:103E190020504F57455220444F574E204D4F44454F
:103E29000A0D002048202D20484947482053504575
:103E39004544204D4F4445204F4E0A0D0020512046
:103E49002D2048494748205350454544204D4F446B
:103E590045204F46460A0D000A0D00496E76616CF1
:103E6900696420436F6D6D616E640A0D0049444CAD
:103E790045204D4F44450A0D00504F5745522044A7
:103E89004F574E204D4F44450A0D004D4158494D5D
:103E9900554D204652455155454E43590A0D004D41
:103EA900494E494D554D204652455155454E435968
:103EB9000A0D0050574D2053544152540A0D0050D9
:103EC900574D2053544F500A0D0048494748205335
:103ED90050454544204D4F4445204F4E0A0D00485A
:103EE900494748205350454544204D4F4445204FAC
:053EF90046460A0D0021
:06303500E478FFF6D8FD6F
:103013007900E94400601B7A00903F09783B75A072
:1030230004E493F2A308B8000205A0D9F4DAF27518
:02303300A0FFFC
:10303B007800E84400600A790075A004E4F309D82D
:10304B00FC783BE84400600C7901900400E4F0A3A9
:04305B00D8FCD9FACA
:1032E900C0128581127E008E83123062D01222AF05
:1032F900F0AE83E582900403F0EEA3F0EFA3F09023
:103309000403E0FDA3E0FEA3E0FF900402E0FC90CB
:103319000417E4F0A3F0A3F090041AEDF0EEA3F083
:10332900EFA3F090041DECF09032E9023440C01292
:10333900E581F51224FBFF900417E4F0A3F0A3F054
:10334900E51224FBF890041AE6F008E6A3F008E673
:10335900A3F090041DEFF09032E9123440D012220C
:10336900E582900413F0E0FF900409E0C0E0A3E0D7
:10337900C0E0A3E0C0E0123384800D900407E0C0F0
:10338900E0A3E0C0E08F82221581158115819004A8
:1033990011E02401F0A3E03400F022E58290041446
:1033A900F0E02430FF24C6500D74072FFF90040667
:1033B900E060034307208F82023369E58290041598
:1033C900F0E0FFC4540FF582C0071233A4D00753AD
:1033D900070F8F820233A4E582900416F090040C43
:1033E900E0FCA3E0FDA3E0FEA3E0FF900410E0FBF6
:1033F900751320900416E0F98B00E828F8EF2354A0
:103409000148FBEC2CFCED33FDEE33FEEF33FFC33B
:10341900EB994007EBC399FB430401E51314FA8ABE
:103429001370D590040CECF0EDA3F0EEA3F0EFA32C
:10343900F0900410EBF022AF83E58290041EF0EFC8
:10344900A3F090041EE0FEA3E0FF900407EEF0EF66
:10345900A3F0900417E0FDA3E0FEA3E0FF900409A8
:10346900EDF0EEA3F0EFA3F0900411E4F0A3F090D7
:10347900041AE0FDA3E0FEA3E0FF8D828E838FF0A6
:10348900123D79FC90041A74012DF0E43EA3F0EF8B
:10349900A3F0EC7003023D35BC25028003023D2DEB
:1034A900900420E4F0900421F0900422F090042389
:1034B900F0900424F0900425F0900426F09004275D
:1034C900F0900429F090042AF0A3F090042C14F051
:1034D900A3F090041AE0FDA3E0FEA3E0FF8D828E25
:1034E900838FF0123D79FBA3AD82AE8390041AED70
:1034F900F0EEA3F0EFA3F0900430EBF0BB25088BBE
:1035090082123369023478BB300050030235D9EB9B
:1035190024C650030235D990042CE0F508A3E0F540
:103529000974FFB50863B50960C005C006C00790F6
:10353900042AE0FAA3E0FF900439EAF0EFA3F0903F
:10354900000AC005C003123D59AE82AF83D003D033
:10355900058B027D00EA2EFEED3FFFEE24D0FEEF43
:1035690034FFFF90042AEEF0EFA3F0D007D006D085
:103579000590042AE0F5F0A3E045F060030234E683
:103589009004217401F00234E6C005C006C007901A
:103599000439E508F0E509A3F090000AC006C00562
:1035A900C003123D59AA82AF83D003D005D0067E4D
:1035B90000EB2AFAEE3FFFEA24D0FAEF34FFFF903E
:1035C900042CEAF0EFA3F0D007D006D0050234E6C8
:1035D900900430E0FBBB2E2FC005C006C007900445
:1035E9002CE0FAA3E0FFBAFF05BFFF028009D0076C
:1035F900D006D0050234E6D007D006D00590042CB9
:10360900E4F0A3F00234E6BB61004014EB248540EA
:103619000F90043074DF5BF09004067401F08005AC
:10362900900406E4F0900430E0FBBB20028075BBF7
:103639002B028067BB2D028059BB4202806FBB43BE
:1036490002807CBB44030238D0BB46030238F6BB78
:1036590048030234E6BB49030238D0BB4A030234AB
:10366900E6BB4C028050BB4F030238DEBB5003025D
:10367900383EBB53028077BB54030234E6BB550383
:103689000238E6BB58030238EEBB5A030234E6029D
:1036990038FE9004207401F00234E690042274018B
:1036A900F00234E69004237401F00234E690042514
:1036B9007401F00234E69004267401F00234E690B5
:1036C9000425E0600E90041DE014F9F0900430E741
:1036D900F0800F90041DE024FEFFF08F019004306C
:1036E900E7F0900430E0F58212336902390D900455
:1036F9001DE024FDFFF08F0187050987060987076B
:10370900191990040CEDF0EEA3F0EFA3F08D828E61
:10371900838FF0123D4185820885830990042CE04E
:10372900FAA3E0FDBAFF0DBDFF0A90042CE508F0ED
:10373900E509A3F0900420E0704B90042AE0FAA375
:10374900E0FDC3E5089AE5099D503A90042AEAC3C9
:103759009508F0ED9509A3F090042AE0FAA3E0FD9D
:103769008A068D071ABAFF011DEE4F601075822077
:10377900C005C002123369D002D00580E390042A43
:10378900EAF0EDA3F090042CE0F50BA3E0F50C9022
:10379900040CE0FAA3E0FDA3E0FF8A828D838FF099
:1037A900123D79F50A603CC3E4950B7480850CF0F1
:1037B90063F08095F0502C150B74FFB50B02150CB6
:1037C900850A8212336990040CE0FAA3E0FDA3E0B4
:1037D900FF0ABA00010D90040CEAF0EDA3F0EFA383
:1037E900F080AC900420E0700302390D90042AE0C7
:1037F900FEA3E0FFC3E5089EE5099F400302390DDA
:1038090090042AEEC39508F0EF9509A3F090042AD5
:10381900E0FEA3E0FF8E028F051EBEFF011FEA4DE9
:103829007003023905758220C007C006123369D0BA
:1038390006D00780E090041DE024FDFDF08D01878E
:103849000D09870E09870F191990040CE50DF0E58C
:103859000EA3F0E50FA3F090040EE0FDBD8000403B
:10386900089004307443F08020BD60004008900443
:10387900307450F08013BD40004008900430744902
:10388900F080069004307458F0900430E0FDF58221
:10389900C00512336975823A123369758230123361
:1038A90069758278123369D005BD4902800EBD5011
:1038B90002800990040DE0F5821233C490040CE0F3
:1038C900F5821233C4803D9004247401F0900429D8
:1038D900740AF0802F9004297408F0802790042935
:1038E900740AF0801F9004297410F080179004273F
:1038F9007401F0800F8B82123369800890042AEEDC
:10390900F0EFA3F0900427E0607190041DE024FC1F
:10391900FFF08F01870309870509870609870719BA
:10392900191990040CEBF0EDA3F0EEA3F0EFA3F05E
:1039390090040C74FEF0743EA3F07480A3F090041C
:103949000CE0F50DA3E0F50EA3E0F50F7401250DCC
:10395900FAE4350EFBAF0F90040CEAF0EBA3F0EF9D
:10396900A3F0850D82850E83850FF0123D79FF70D6
:10397900030234788F8212336980C3900429E0707E
:1039890003023478900425E0604790041DE014F99F
:10399900F087077E007D007B0090040CEFF0EEA31A
:1039A900F0EDA3F0EBA3F0900424E06003023A5099
:1039B90090040CE0FBA3E0A3E0A3E07D007E007F80
:1039C9000090040CEBF0EDA3F0EEA3F0EFA3F08070
:1039D90076900426E0602890041DE024FCFFF08F17
:1039E90001870309870509870609870719191990A6
:1039F900040CEBF0EDA3F0EEA3F0EFA3F0804890F8
:103A0900041DE024FEFFF08F01870609870719EFDF
:103A19003395E0FDFB90040CEEF0EFA3F0EDA3F07D
:103A2900EBA3F0900424E0701E90040CE0FBA3E0EB
:103A3900FDA3E0A3E07E007F0090040CEBF0EDA372
:103A4900F0EEA3F0EFA3F0900424E0604190040CA1
:103A5900E0FBA3E0FDA3E0FEA3E0FF30E72B900429
:103A69000CE0FBA3E0FDA3E0FEA3E0FFC3E49BFBA6
:103A7900E49DFDE49EFEE49FFF90040CEBF0EDA3B2
:103A8900F0EEA3F0EFA3F08005900424E4F0900495
:103A9900287401F0900429E0F50B751036751104AE
:103AA900E4F508F509900410E4F0850B821233E07F
:103AB900900428E07026900410E0C4F50D8510826A
:103AC900851183E0FFE50D4207851082851183EF9B
:103AD900F0151074FFB510021511800C900410E058
:103AE900FF851082851183F00508E4B508020509F0
:103AF900900428E0B40100E433F090040CE0FAA348
:103B0900E0FBA3E0FEA3E0FFEA4B4E4F7097900461
:103B190037E510F0E511A3F090042EE508F0E5096A
:103B2900A3F090042AE0F5F0A3E045F070099004B1
:103B39002A7401F0E4A3F0900421E0FFE0704790BB
:103B49000420E0704185081085091190042AE0FAE3
:103B5900A3E0FBC007AF100F8F067F00C3EE9AEFFB
:103B69009BD0075019758220C007C003C0021233C9
:103B790069D002D003D0071ABAFF011B80D590047F
:103B89002AEAF0EBA3F0900424E0602075822DC0AE
:103B990007123369D00790042AE024FFFDA3E0341B
:103BA900FFFE90042AEDF0EEA3F0805690042EE07B
:103BB900F5F0A3E045F0604A900422E060207582A8
:103BC9002BC007123369D00790042AE024FFFDA314
:103BD900E034FFFE90042AEDF0EEA3F08024900477
:103BE90023E0601E758220C007123369D007900454
:103BF9002AE024FFFDA3E034FFFE90042AEDF0EE55
:103C0900A3F0900420E0704890042EE0F510A3E0A2
:103C1900F51190042AE0FAA3E0FBC0078A068B0796
:103C29001ABAFF011BC3E5109EE5119FD007505337
:103C3900EF60067D307E0080047D207E008D82C08D
:103C490007C003C002123369D002D003D00780CA6B
:103C590090042AE0FEA3E0FF90042EE0F510A3E013
:103C6900F511C3E5109EE5119F500F90042AEEC38C
:103C79009510F0EF9511A3F0801190042AE4F0A3B8
:103C8900F0800890042AEAF0EBA3F0900437E0FEF4
:103C9900A3E0FF90042EE0F510A3E0F511AA10AD02
:103CA90011151074FFB510021511EA4D6045900405
:103CB90028E0B40100E433F0900428E070140EBE4B
:103CC90000010F8E828F83E0C4540FFD900410F021
:103CD900800E8E828F83E0FD53050F900410EDF066
:103CE900900410E0F582C007C0061233A4D006D0B4
:103CF9000780AA900420E0700302347890042AE037
:103D0900FEA3E0FF8E038F051EBEFF011FEB4D7062
:103D190003023478758220C007C006123369D006C1
:103D2900D00780E08C82123369023478900411E064
:083D3900FEA3E08E82F5832257
:0B3EFE003C4E4F20464C4F41543E000C
:103D4100AA82AB83123D796003A380F8C3E5829A0E
:103D5100F582E5839BF58322AA83AB828BF09004E5
:103D610039E0A4F8A9F08AF0E0A429F98BF0A3E0E6
:083D7100A429F58388822222B7
:0D300600758113123D95E5826003023003D1
:103D790020F71430F6148883A88220F507E6A88373
:103D890075830022E280F7E49322E0227582002203
:00000001FF
