:0330000002300695
:09305F00782EE4F608F6023003B5
:03300300023F91F8
:10306800AF83E582900401F0EFA3F0900401E0FE45
:10307800A3E0FF900400E08E828F83F022759850C1
:10308800758920758DFDD28E22AF83E58290065B0F
:10309800F0EFA3F090065BE0FEA3E08E993099FD77
:1030A8009004007437F090FEFE123068C2999000C8
:1030B80001223098FDAE997F00900400740AF090C8
:1030C800FEFEC007C006123068D006D007C298902E
:1030D8001AFCE02401F08E828F8322AFF0AE83E5E4
:1030E80082900661F0EEA3F0EFA3F0900664E4F09E
:1030F800A3F090066BF0A3F090065DE0FEA3E0FF5E
:1031080090065FE0F509A3E0F50A90066BE0F5F09C
:10311800A3E045F060030233789055A575F080C0B0
:1031280007C006123384900661E0F9A3E0FAA3E031
:10313800FB89828A838BF0123384D006D0079006ED
:1031480064E4F0A3F0FAFBF9C006C007C006C003A8
:10315800C002C0011230BAA882D001D002D003D078
:10316800068808740DB50807D007D00602326ED05D
:1031780007D006B90400400302326E74D025085007
:1031880006E50824C6505EC007C00674DCC0E074BB
:1031980055C0E07480C0E0124B631581158115811C
:1031A8007417C0E07456C0E07480C0E0124B631519
:1031B8008115811581D006D007C006C007C0061248
:1031C80030BAA882AF83D006B80D05BF00028006CA
:1031D800D007D00680E3D007D00690066474FFF0CD
:1031E800A3F002326EC006C007A8087F0088828F4D
:1031F80083C007C006C003C002C001C000123091DE
:10320800D000D001D002D003D006D007EA2466F55A
:1032180082EB3406F5830ABA00010BE508F0099041
:103228000664E0FDA3E0FE901AAAEDF0EEA3F0908C
:10323800000AC007C003C002C001C0001248E3ADC5
:1032480082AE83D000D001D002D003D007E824D0CA
:10325800F8EF34FFFF900664E82DF0EF3EA3F0D0BE
:1032680007D006023150900664E0FCA3E0FDBCFFE5
:1032780006BDFF03023112901AAC7410F0E4A3F0FB
:103288008C828D83C007C006C005C004124903E5BF
:10329800828583F0D004D005D006D00745F0701F92
:1032A800C3EC9509ED6480850AF063F08095F040E1
:1032B8000EEE9CEF64808DF063F08095F0506FC047
:1032C80007C0067450C0E07456C0E07480C0E012B5
:1032D8004B63158115811581D006D007C007C0063C
:1032E800C006C007C009C00A748AC0E07456C0E0AE
:1032F8007480C0E0124B63E58124F9F58174C2C083
:10330800E07456C0E07480C0E0124B6315811581EB
:1033180015817417C0E07456C0E07480C0E0124B89
:1033280063158115811581D006D007023112C007B7
:10333800C006C004C00574FBC0E07456C0E07480C9
:10334800C0E0124B63E58124FBF5817417C0E0747B
:1033580056C0E07480C0E0124B6315811581158159
:10336800D006D00790066B7401F0E4A3F002311286
:10337800900664E0FEA3E08E82F58322AFF0AE8370
:10338800E58290066DF0EEA3F0EFA3F090066DE0F5
:10339800FDA3E0FEA3E0FF8D828E838FF01255859A
:1033A800FC60277B008C828B83C007C006C0051297
:1033B8003091D005D006D0070DBD00010E90066DE6
:1033C800EDF0EEA3F0EFA3F080CD90066DEDF0EEFA
:1033D800A3F0EFA3F022AFF0AE83E582900670F081
:1033E800EEA3F0EFA3F0900673E4F0A3F090067557
:1033F8007464F0E4A3F09055A575F08012338490BE
:103408000670E0FDA3E0FEA3E0FF8D828E838FF0BF
:10341800123384900675E0FEA3E0FFC3EE9401EF3B
:103428006480948050030234EAC007C0061230BAA0
:10343800AC82D006D007BC0D030234EABC30004091
:1034480005EC24C6502E74DCC0E07455C0E07480CE
:10345800C0E0124B631581158115817417C0E074A3
:1034680056C0E07480C0E0124B6315811581158148
:1034780090FFFF227D008C828D83C007C006C005A7
:10348800C004123091D004D005D006D007EC24D067
:10349800FCED34FFFD901AAAEEF0EFA3F08C828DBC
:1034A80083C007C0061248E3AC82AD83D006D007BC
:1034B800900673E0FAA3E0FB900673EC2AF0ED3B6C
:1034C800A3F0901AB5740AF0E4A3F08E828F8312E9
:1034D8004A16E5828583F0900675F0E5F0A3F002C0
:1034E800341B900673E0FEA3E0FFC007C006C006C9
:1034F800C00774FBC0E07456C0E07480C0E0124B93
:1035080063E58124FBF5817417C0E07456C0E0744C
:1035180080C0E0124B63158115811581D006D00754
:103528008E828F8322AF83E582900677F0EFA3F037
:10353800900677E0FEA3E0FFBE2B06BF0003023B28
:103548000DBE2D06BF0003023C77BE3D06BF00033B
:10355800023D5CBE3F06BF00030236C8BE4005BF41
:1035680000028003023D5F7413C0E07457C0E0742A
:1035780080C0E0124B631581158115817449C0E044
:103588007457C0E07480C0E0124B63158115811533
:1035980081E4F50BF50CFCFDC3EC9464ED648094B8
:1035A800805041901AAAECF0EDA3F0900006C005F7
:1035B800C0041248E3AA82AB83D004D005EA2403EE
:1035C800FAEB3404FB8A828B83A3E0FAA3E0FBA323
:1035D800E0EA4B6008050BE4B50B02050C0CBC00D7
:1035E800B70D80B4C00BC00C747EC0E07457C0E047
:1035F8007480C0E0124B63E58124FBF5817E007F77
:1036080000C3EE9464EF648094805075901AAAEE1B
:10361800F0EFA3F0900006C007C0061248E3AC82A2
:10362800AD83D006D007EC2403FCED3404FD0CBCBC
:1036380000010D8C828D83E0F50DA3E0F50EA3E06B
:10364800F50FE50D450E6031C006C007AA0DAB0E9B
:10365800AF0F8A828B838FF0C007C006C005C004F5
:10366800124530D004D005D006D0078C828D83E473
:10367800F0A3F0A3F0D007D0060EBE00010F02366B
:10368800097417C0E07456C0E07480C0E0124B6340
:10369800158115811581749DC0E07457C0E0748050
:1036A800C0E0124B631581158115817417C0E07451
:1036B80056C0E07480C0E0124B63158115811581F6
:1036C8007409C0E07458C0E07480C0E0124B631500
:1036D80081158115817440C0E07458C0E07480C0C1
:1036E800E0124B631581158115817449C0E0745748
:1036F800C0E07480C0E0124B63158115811581907C
:103708001AF8E0FF7E00C007C0067476C0E074585F
:10371800C0E07480C0E0124B63E58124FBF5819022
:103728001AFAE0FF7E00C007C0067495C0E074581E
:10373800C0E07480C0E0124B63E58124FBF581741E
:1037480049C0E07457C0E07480C0E0124B63158133
:103758001581158174B4C0E07458C0E07480C0E06D
:10376800124B631581158115817449C0E07457C0E7
:10377800E07480C0E0124B63158115811581901AA1
:10378800F9E0FF7E00C007C00674E9C0E07458C0C5
:10379800E07480C0E0124B63E58124FBF581901A48
:1037A800FBE0FF7E00C007C0067408C0E07459C083
:1037B800E07480C0E0124B63E58124FBF58174A5B9
:1037C800C0E07455C0E07480C0E0124B63158115E9
:1037D8008115817427C0E07459C0E07480C0E0127C
:1037E8004B631581158115817449C0E07457C0E099
:1037F8007480C0E0124B63158115811581901AF70A
:10380800E0FF7E00C007C006745DC0E07459C0E0E8
:103818007480C0E0124B63E58124FBF58174A5C078
:10382800E07455C0E07480C0E0124B6315811581C7
:103838001581747CC0E07459C0E07480C0E0124BFC
:103848006315811581158174B2C0E07459C0E074A4
:1038580080C0E0124B6315811581158174E6C0E0C4
:103868007459C0E07480C0E0124B6315811581154E
:10387800817E017F00C3EE9464EF648094804003EE
:10388800023918901AAAEEF0EFA3F0900006C007CC
:10389800C0061248E3AC82AD83D006D007EC2403FF
:1038A800FCED3404FD8C828D83E0605C8C828D831A
:1038B800A3A3A3A3E0F50DA3E0F50E8C828D83A34B
:1038C800E0F510A3E0F511A3E0F512E50D2510FAD7
:1038D800E50E3511FCAD12C007C006C00DC00EC004
:1038E80002C004C005C010C011C012C006C00774D1
:1038F8001AC0E0745AC0E07480C0E0124B63E581DE
:1039080024F3F581D006D0070EBE00010F02387DE2
:103918007449C0E07457C0E07480C0E0124B63156E
:103928008115811581743DC0E0745AC0E07480C06F
:10393800E0124B631581158115817449C0E07457F5
:10394800C0E07480C0E0124B631581158115819029
:103958000407E0FEA3E0FFC006C0077472C0E0746D
:103968005AC0E07480C0E0124B63E58124FBF58106
:10397800901AF9E0FF7E00C007C0067491C0E07499
:103988005AC0E07480C0E0124B63E58124FBF581E6
:10399800900407E0FEA3E0FF901AF9E0FD7C00EE3A
:1039A800C39DFEEF9CFFC006C00774B0C0E0745A08
:1039B800C0E07480C0E0124B63E58124FBF581749C
:1039C800A5C0E07455C0E07480C0E0124B63158157
:1039D8001581158174A5C0E07455C0E07480C0E0FD
:1039E800124B63158115811581123D6374CFC0E0B8
:1039F800745AC0E07480C0E0124B631581158115BC
:103A0800817449C0E07457C0E07480C0E0124B6311
:103A1800158115811581900404E0FDA3E0FEA3E063
:103A2800FFED4E702B7405C0E0745BC0E07480C07D
:103A3800E0124B631581158115817417C0E0745627
:103A4800C0E07480C0E0124B631581158115812296
:103A5800900407E0FBA3E0FC8D108E118F128B02FF
:103A68008C07901A9EE4F0901A9FEAF0EFA3F08575
:103A780010828511838512F0C004C0031246FBD062
:103A880003D004900403E4F0782EA60308A604905B
:103A98000404E0FDA3E0FEA3E0FF901AFDEDF0EEC4
:103AA800A3F0EFA3F0901AF9E4F0C003C004743B4C
:103AB800C0E0745BC0E07480C0E0124B63E5812411
:103AC800FBF5817478C0E0745BC0E07480C0E0747A
:103AD8005AC0E0745BC0E07480C0E0124B63E581BB
:103AE80024FAF5817417C0E07456C0E07480C0E011
:103AF800124B63158115811581901AFAE4F0901A1A
:103B0800FBF0023D5F7484C0E0745BC0E07480C069
:103B1800E0124B63158115811581905BBA75F080B1
:103B28001233DEAE82AF83C3EE9432EF64809480AA
:103B3800400E74F49E74818FF063F08095F05019F4
:103B480074DBC0E0745BC0E07480C0E0124B6315A6
:103B5800811581158190FFFF22C007C006C006C0ED
:103B68000774F8C0E0745BC0E07480C0E0124B6377
:103B7800E58124FBF581D006D0078E828F83C007AC
:103B8800C00612477AAC82AD83D006D007EC4D70E0
:103B98003CC007C006C005C0047414C0E0745CC013
:103BA800E07480C0E0124B63158115811581744B58
:103BB800C0E0745CC0E07480C0E0124B63158115EE
:103BC800811581D004D005D006D0078025C007C054
:103BD80006C005C0047482C0E0745CC0E07480C094
:103BE800E0124B63158115811581D004D005D006EC
:103BF800D007C007C006C005C0047417C0E07456DB
:103C0800C0E07480C0E0124B63158115811581D026
:103C180004D005D006D007901AF7E0900679F07B1B
:103C28000090067AECF0EDA3F0EBA3F090067DEEA1
:103C3800F0EFA3F0901AF7E075F006A42403FE74E1
:103C48000435F0FF7D00901A967479F07406A3F09D
:103C5800E4A3F0901A997406F0E4A3F08E828F839F
:103C68008DF0124687901AF7E02401F0023D5F7448
:103C7800B8C0E0745CC0E07480C0E0124B6315818A
:103C880015811581905CEE75F0801233DEAE82AF3F
:103C980083C3E49E74808FF063F08095F0401974BC
:103CA80010C0E0745DC0E07480C0E0124B63158101
:103CB8001581158190FFFF22C374669E74808FF072
:103CC80063F08095F050197447C0E0745DC0E074EB
:103CD80080C0E0124B6315811581158190FFFF228A
:103CE800901AAAEEF0EFA3F0900006C007C00612E3
:103CF80048E3AC82AD83EC2403FCED3404FD8C82F4
:103D08008D83A3A3A3A3E4F0A3F08C828D83A3E007
:103D1800FBA3E0FCA3E0FD8B828C838DF012453081
:103D2800D006D007C006C007747CC0E0745DC0E050
:103D38007480C0E0124B63E58124FBF5817417C0E1
:103D4800E07456C0E07480C0E0124B6315811581A1
:103D580015818003123D639000002274B3C0E074A3
:103D68005DC0E07480C0E0124B6315811581158138
:103D780074E9C0E0745DC0E07480C0E0124B631564
:103D88008115811581741FC0E0745EC0E07480C025
:103D9800E0124B631581158115817458C0E0745E7B
:103DA800C0E07480C0E0124B6315811581158190C5
:103DB8000404E0FDA3E0FEA3E0FFED4E7016745B83
:103DC800C0E0745EC0E07480C0E0124B63158115DA
:103DD80081158122900407E0FBA3E0FC90067FE4B4
:103DE800F0A3F0C005C006C00790067FE0F9A3E085
:103DF800FA901AF9E0F87F00C3E998EA9FD007D053
:103E080006D0054003023F7BC003C0048D008E032B
:103E18008F04C007C006C005C004C003C002C001AB
:103E2800C000C0037475C0E0745EC0E07480C0E078
:103E3800124B63E58124FBF581D001D002D003D079
:103E480004D005D006D00789138A148D158E168FD5
:103E580017E4F518F519D004D003C3E5189410E554
:103E680019648094805070C005C006C007A913AAC1
:103E780014A818AF19E829F9EF3AFAC3E99BEA9CA4
:103E8800D007D006D005504FE5182515F8E51935A7
:103E980016F9AA17888289838AF0125585F87A005C
:103EA800C007C006C005C004C003C000C0027485B6
:103EB800C0E0745EC0E07480C0E0124B63E581240A
:103EC800FBF581D003D004D005D006D0070518E44F
:103ED800B518870519808390067FE0F9A3E0FAEB0F
:103EE800C399F9EC9AFAC3E99410EA648094805073
:103EF80038C007C006C005C004C003C002C00174B2
:103F08008BC0E0745EC0E07480C0E0124B63158122
:103F180015811581D001D002D003D004D005D00678
:103F2800D00709B900C00A80BDC007C006C005C0D7
:103F380004C003748FC0E0745EC0E07480C0E012F7
:103F48004B63158115811581D003D004D005D006A7
:103F5800D00774102DFDE43EFE90067FE0F9A3E043
:103F6800FA741029F9E43AFA90067FE9F0EAA3F026
:103F7800023DEB7417C0E07456C0E07480C0E012D4
:103F88004B63158115811581227492C0E0745EC05F
:103F9800E07480C0E0124B6315811581158174C9E6
:103FA800C0E0745EC0E07480C0E0124B63158115F8
:103FB8008115817492C0E0745EC0E07480C0E01224
:103FC8004B63158115811581901AF7E4F0901AF862
:103FD800F0901AF9F0901AFAF0901AFBF0901AFC87
:103FE800F090065DE4F07414A3F090065F7420F07E
:103FF800E4A3F0905F0175F0801230E3AE82AF83E6
:10400800BEFF06BFFF0302418A8E828F83C007C0AE
:104018000612477AAC82AD83D006D007901B00EC1D
:10402800F0EDA3F0EC4D704AC007C006742BC0E059
:10403800745FC0E07480C0E0124B63158115811570
:10404800817462C0E0745FC0E07480C0E0124B63AA
:104058001581158115817498C0E0745FC0E0748083
:10406800C0E0124B63158115811581D006D0070277
:10407800418A8E828F83C007C00612477AAC82AD10
:1040880083D006D007901B02ECF0EDA3F0EC4D7046
:104098005D901B00E0FCA3E0FD7B008C828D838B90
:1040A800F0C007C00612453074CFC0E0745FC0E0AE
:1040B8007480C0E0124B631581158115817462C04C
:1040C800E0745FC0E07480C0E0124B631581158115
:1040D80015817498C0E0745FC0E07480C0E0124B32
:1040E80063158115811581D006D00702418AC00762
:1040F800C0067406C0E07460C0E07480C0E0124B73
:1041080063158115811581D006D007901B00E0FC4E
:10411800A3E0FD7B00C007C006C006C007C004C0FE
:1041280005C003743CC0E07460C0E07480C0E01255
:104138004B63E58124F8F581D006D007901B02E097
:10414800FCA3E0FD7B00C007C006C006C007C00492
:10415800C005C0037468C0E07460C0E07480C0E04B
:10416800124B63E58124F8F5817498C0E0745FC050
:10417800E07480C0E0124B63158115811581D0066B
:10418800D007901B02E0F5F0A3E045F07003023F72
:10419800E9901B00E0F5F0A3E045F07003023FE969
:1041A800901AF7E4F0900681F0901B00E0FCA3E081
:1041B800FD7B00900682ECF0EDA3F0EBA3F09006F7
:1041C80085EEF0EFA3F0901AF7E075F006A424034B
:1041D800FC740435F0FD901A967481F07406A3F00F
:1041E800E4A3F0901A997406F0E4A3F08C828D830E
:1041F8008BF0C007C006124687D006D007901AF782
:10420800E02401F0E0900687F0901B02E0FCA3E0B8
:10421800FD7B00900688ECF0EDA3F0EBA3F0900690
:104228008BEEF0EFA3F0901AF7E075F006A42403E4
:10423800FE740435F0FF7D00901A967487F07406BA
:10424800A3F0E4A3F0901A997406F0E4A3F08E8228
:104258008F838DF0124687901AF7E02401F074944A
:10426800C0E07460C0E07480C0E0124B6315811533
:1042780081158174C9C0E07460C0E07480C0E01228
:104288004B6315811581158174FDC0E07460C0E031
:104298007480C0E0124B631581158115817431C09B
:1042A800E07461C0E07480C0E0124B631581158131
:1042B80015817465C0E07461C0E07480C0E0124B81
:1042C800631581158115817499C0E07461C0E0742B
:1042D80080C0E0124B6315811581158174CDC0E053
:1042E8007461C0E07480C0E0124B631581158115BC
:1042F8008174A5C0E07455C0E07480C0E0124B63BF
:104308001581158115817401C0E07462C0E0748064
:10431800C0E0124B631581158115817417C0E074D4
:1043280056C0E07480C0E0124B6315811581158179
:10433800900407E0FEA3E0FF900404E0FBA3E0FC88
:10434800A3E0FDC007C006C005C004C0031230BA10
:10435800A982AA83C002C001123091D001D002D034
:1043680003D004D005D006D007C3E99441EA64809D
:104378009480400E745A9974808AF063F08095F0A6
:10438800505F901AF8E004F0901AFAE004F0C007C1
:10439800C006C005C004C003C002C001C001C002FD
:1043A800743AC0E07462C0E07480C0E0124B63E508
:1043B8008124FBF5817417C0E07456C0E07480C096
:1043C800E0124B63158115811581D001D0028982D5
:1043D8008A8312352DD003D004D005D006D00780AB
:1043E80068901AF9E004F0901AFBE004F08B828CD4
:1043F800838DF0E9124723A3AB82AC83901AFBE0CC
:10440800FA8A1A751B00901AF9E0F87A00C007C0FA
:1044180006C005C004C003C003C004C005C01AC05C
:104428001BC000C0027458C0E07462C0E07480C051
:10443800E0124B63E58124F6F581D003D004D00562
:10444800D006D0071EBEFF011FC3E49E74808FF004
:1044580063F08095F0500302434B74A5C0E0745597
:10446800C0E07480C0E0124B63158115811581741A
:104478008BC0E07462C0E07480C0E0124B631581A9
:10448800158115817417C0E07456C0E07480C0E0CF
:10449800124B6315811581158174C3C0E07462C025
:1044A800E07480C0E0124B63158115811581741783
:1044B800C0E07456C0E07480C0E0124B63158115EB
:1044C8008115811230BAAE82AF83C3EE9441EF6496
:1044D800809480400E745A9E74808FF063F08095AB
:1044E800F0502F901AF8E004F0901AFAE004F0C0A7
:1044F80007C006C006C007743AC0E07462C0E07422
:1045080080C0E0124B63E58124FBF581D006D0071B
:10451800800C901AF9E004F0901AFBE004F08E8207
:084528008F8312352D0244A11E
:1055A5000A0D2B2D2D2D2D2D2D2D2D2D2D2D2D2D6B
:1055B5002D2D2D2D2D2D2D2D2D2D2D2D2D2D2D2D16
:1055C5002D2D2D2D2D2D2D2D2D2D2D2D2D2D2D2D06
:1055D5002D2D2D2D2D2B000A0D7C204552524F527D
:1055E5003A20496E76616C696420696E7075742025
:1055F5002D20506C6561736520656E746572206E33
:10560500756D62657273206F6E6C79202020202085
:105615007C000A0D2B2D2D2D2D2D2D2D2D2D2D2DD8
:105625002D2D2D2D2D2D2D2D2D2D2D2D2D2D2D2DA5
:105635002D2D2D2D2D2D2D2D2D2D2D2D2D2D2D2D95
:105645002D2D2D2D2D2D2D2B0A0D000A0D7C2045E0
:1056550052524F523A20496E76616C6964206275E8
:10566500666665722073697A6520202020202020D7
:105675002020202020202020202020202020202025
:105685002020207C000A0D7C202D204D7573742070
:105695006265206265747765656E20256420616E9C
:1056A5006420256420202020202020202020202068
:1056B50020202020202020202020207C000A0D7C76
:1056C500202D204D757374206265206D756C74698D
:1056D500706C65206F662031362020202020202028
:1056E50020202020202020202020202020202020B5
:1056F500202020207C000A0D7C20496E70757420C6
:1057050073697A653A20252D333964207C000A0DAA
:105715007C20425546464552204445414C4C4F431A
:105725004154494F4E205354415455532020202075
:105735002020202020202020202020202020202064
:1057450020207C000A0D7C2D2D2D2D2D2D2D2D2D70
:105755002D2D2D2D2D2D2D2D2D2D2D2D2D2D2D2D74
:105765002D2D2D2D2D2D2D2D2D2D2D2D2D2D2D2D64
:105775002D2D2D2D2D2D2D7C000A0D7C204275669D
:105785006665727320746F204672656520207C20E3
:10579500252D323864207C000A0D7C20416C6C205C
:1057A5006275666665727320737563636573736688
:1057B500756C6C79206465616C6C6F63617465648C
:1057C5002020202020202020202020207C000A0DC1
:1057D5007C205741524E494E473A20536F6D652004
:1057E50062756666657273206661696C65642074AE
:1057F5006F206465616C6C6F636174652020202087
:1058050020207C000A0D2B2D2D2D2D2D2D2D2D2D00
:105815002D2D2D2D2D2D2D2D2D53595354454D20E9
:105825005354415455532D2D2D2D2D2D2D2D2D2DCD
:105835002D2D2D2D2D2D2D2D2D2B000A0D7C2043AD
:105845004F4D4D414E4420535441544953544943BF
:105855005320202020202020202020202020202010
:105865002020202020202020202020202020207CD7
:10587500000A0D7C20546F74616C20436F6D6D615F
:105885006E64732020207C20252D323864207C0016
:105895000A0D7C20526563656E7420436F6D6D61E2
:1058A5006E647320207C20252D323864207C000A0C
:1058B5000D7C2053544F5241474520535441544980
:1058C50053544943532020202020202020202020ED
:1058D50020202020202020202020202020202020C3
:1058E50020207C000A0D7C20546F74616C20537459
:1058F5006F72616765202020207C20252D32386459
:10590500207C000A0D7C20526563656E74205374FB
:105915006F726167652020207C20252D3238642038
:105925007C000A0D7C20544F54414C20425546467C
:1059350045525320494E20484541502020202020E3
:105945002020202020202020202020202020202052
:105955002020202020207C000A0D7C20546F7461BB
:105965006C2042756666657273202020207C202598
:105975002D323864207C000A0D2B2D2D2D2D2D2D3B
:105985002D2D2D2D2D2D2D2D2D2D2D2D42554646D3
:10599500455220494E464F2D2D2D2D2D2D2D2D2D8A
:1059A5002D2D2D2D2D2D2D2D2D2D2D2B000A0D7C45
:1059B500204944207C2053746172742041646472D0
:1059C50020207C20456E64204164647220202020C4
:1059D5007C2053697A652028627974657329207C57
:1059E500000A0D7C2D2D2D2D7C2D2D2D2D2D2D2DB4
:1059F5002D2D2D2D2D2D7C2D2D2D2D2D2D2D2D2D83
:105A05002D2D2D2D7C2D2D2D2D2D2D2D2D2D2D2D72
:105A15002D2D2D7C000A0D7C20252D3264207C2027
:105A2500252D313070207C20252D313070207C20B3
:105A3500252D313164207C000A0D7C204D454D4FCC
:105A4500525920414C4C4F434154494F4E205354D9
:105A5500415455532042554646455220302020207A
:105A650020202020202020202020207C000A0D7CC2
:105A750020546F74616C2053706163652020202071
:105A850020207C20252D323864207C000A0D7C20C6
:105A95004F63637570696564205370616365202089
:105AA500207C20252D323864207C000A0D7C204680
:105AB50072656520537061636520202020202020B9
:105AC5007C20252D323864207C000A0D7C2042552F
:105AD50046464552203020434C45415220535441BF
:105AE5005455532020202020202020202020202015
:105AF50020202020202020202020202020207C0065
:105B05000A0D7C2042756666657220302069732017
:105B15006E6F7420696E697469616C697A65642059
:105B25002020202020202020202020202020202070
:105B3500202020207C000A0D7C2042756666657257
:105B45002053697A652020202020207C20252D32B5
:105B55003864207C000A0D7C2053746174757320B1
:105B65002020202020202020207C20252D32387345
:105B7500207C004461746120457261736564000A8C
:105B85000D2B2D2D2D2D2D2D2D2D2D2D2D2D2D2D62
:105B95002D2D425546464552204352454154494FC5
:105BA5004E2D2D2D2D2D2D2D2D2D2D2D2D2D2D2DFF
:105BB5002D2D2D2B000A0D7C20456E7465722062FB
:105BC50075666665722073697A65202835302D35CE
:105BD5003030293A20000A0D204552524F52203AC2
:105BE50020496E76616C69642072657175657374A0
:105BF5000A0D000A0D7C2052657175657374656424
:105C05002053697A653A20252D333264207C000AB9
:105C15000D7C204552524F523A204D656D6F727979
:105C250020616C6C6F636174696F6E206661696C6D
:105C350065642020202020202020202020202020D6
:105C4500202020207C000A0D7C2054727920736D61
:105C5500616C6C65722073697A6520776974682058
:105C6500272B2720636F6D6D616E64202020202017
:105C750020202020202020202020207C000A0D7CB0
:105C850020535543434553533A2042756666657222
:105C950020637265617465642073756363657373EE
:105CA50066756C6C79202020202020202020202063
:105CB500207C000A0D2B2D2D2D2D2D2D2D2D2D2D3F
:105CC5002D2D2D2D2D2D4255464645522044454C12
:105CD5004554494F4E2D2D2D2D2D2D2D2D2D2D2D51
:105CE5002D2D2D2D2D2D2D2B000A0D7C20456E746F
:105CF500657220627566666572206E756D62657285
:105D05002028302D313032293A20000A0D7C2045DB
:105D150052524F523A2043616E6E6F742064656C27
:105D250065746520427566666572203020202020E6
:105D3500202020202020202020202020202020205E
:105D45007C000A0D7C204552524F523A20496E760E
:105D5500616C69642064656C657465207265717534
:105D65006573742020202020202020202020202042
:105D750020202020207C000A0D7C205355434345DC
:105D850053533A2042756666657220252D3264208C
:105D950064656C6574656420202020202020202007
:105DA5002020202020202020202020207C000A0DDB
:105DB5002B2D2D2D2D2D2D2D2D2D2D2D2D2D2D2D10
:105DC500425546464552203020434F4E54454E5489
:105DD500532D2D2D2D2D2D2D2D2D2D2D2D2D2D2DC8
:105DE5002D2D2B000A0D7C20416464726573732090
:105DF5002020207C20446174612020202020202048
:105E0500202020202020202020202020202020208D
:105E150020202020202020207C000A0D7C2D2D2DE7
:105E25002D2D2D2D2D2D2D2D2D7C2D2D2D2D2D2D4E
:105E35002D2D2D2D2D2D2D2D2D2D2D2D2D2D2D2D8D
:105E45002D2D2D2D2D2D2D2D2D2D2D2D2D2D2D2D7D
:105E55002D7C000A0D00425546464552203020440F
:105E65004F4553204E4F542045584953540A0D0071
:105E75000A0D7C20253034582020202020207C004D
:105E850020253032580020202000207C000A0D2BD0
:105E95003D3D3D3D3D3D3D3D3D3D3D3D3D3D3D3D2D
:105EA5003D3D3D3D3D3D3D3D3D3D3D3D3D3D3D3D1D
:105EB5003D3D3D3D3D3D3D3D3D3D3D3D3D3D3D3D0D
:105EC5003D3D2B000A0D7C20202020202020202075
:105ED5002020425546464552204D414E4147454DAD
:105EE500454E542053595354454D20202020202001
:105EF500202020202020202020207C000A0D7C202E
:105F0500456E74657220696E697469616C2062758D
:105F1500666665722073697A65202833322D3531BE
:105F25003230293A20000A0D7C204552524F523A10
:105F350020427566666572203120616C6C6F636105
:105F450074696F6E206661696C656420202020206D
:105F550020202020202020202020207C000A0D7CCD
:105F65002054727920736D616C6C65722073697A47
:105F750065202020202020202020202020202020D7
:105F8500202020202020202020202020202020200C
:105F9500207C000A0D2B2D2D2D2D2D2D2D2D2D2D5C
:105FA5002D2D2D2D2D2D2D2D2D2D2D2D2D2D2D2D1C
:105FB5002D2D2D2D2D2D2D2D2D2D2D2D2D2D2D2D0C
:105FC5002D2D2D2D2D2D2B0A0D000A0D7C20455232
:105FD500524F523A20427566666572203220616CD6
:105FE5006C6F636174696F6E206661696C656420AE
:105FF5002020202020202020202020202020207C40
:10600500000A0D2B2D2D2D2D2D2D2D2D2D2D2D2D2D
:106015002D2D2D2D4255464645522053544154555C
:10602500532D2D2D2D2D2D2D2D2D2D2D2D2D2D2D75
:106035002D2D2D2D2D2B000A0D7C204275666665B4
:10604500722031207C20416464723A20252D313044
:1060550070207C2053697A653A20252D36642020EE
:10606500207C000A0D7C2042756666657220322010
:106075007C20416464723A20252D313070207C20CB
:1060850053697A653A20252D36642020207C000A44
:106095000D2B2D2D2D2D2D2D2D2D2D2D2D2D2D2D4D
:1060A5002D2D2D2D434F4D4D414E44532D2D2D2D31
:1060B5002D2D2D2D2D2D2D2D2D2D2D2D2D2D2D2D0B
:1060C5002D2D2B000A0D7C205B412D5A5D203A2099
:1060D50053746F72652063686172616374657220C1
:1060E500696E20427566666572203020202020206A
:1060F5002020202020207C000A0D7C202B20202021
:1061050020203A20437265617465206E65772062B0
:106115007566666572202020202020202020202002
:10612500202020202020202020207C000A0D7C20FB
:106135002D20202020203A2044656C65746520625E
:1061450075666665722020202020202020202020D2
:1061550020202020202020202020202020207C00FE
:106165000A0D7C203F20202020203A2053686F779D
:106175002073797374656D20737461747573202051
:10618500202020202020202020202020202020200A
:1061950020207C000A0D7C203D20202020203A2054
:1061A500446973706C61792042756666657220304A
:1061B50020636F6E74656E7473202020202020206C
:1061C5002020202020207C000A0D7C20402020203B
:1061D50020203A2052657365742073797374656D58
:1061E50020202020202020202020202020202020AA
:1061F500202020202020202020207C000A0D7C202B
:10620500526561647920666F7220696E7075742EAF
:1062150020456E7465722075707065726361736573
:106225002063686172732028412D5A293A20202065
:10623500207C0A0D000A0D7C20436F6D6D616E6434
:106245002072656365697665643A20252D3331636F
:10625500207C000A0D7C2053746F726167653A20BB
:10626500546F74616C3D252D346420526563656EF1
:10627500743D252D346420416464723D252D3130F3
:1062850070207C0A0D000A0D7C204E4F5449434571
:106295003A204275666665722030206973206675FE
:1062A5006C6C202D2053746F726167652073746F59
:1062B5007070656420202020202020207C000A0D9D
:1062C5007C20456E74657220636F6D6D616E642010
:1062D500282B2C202D2C203F2C203D2C2040293AEA
:1062E50020202020202020202020202020202020A9
:0562F5002020207C00C8
:0D6307000000000000000000000000000089
:0262FA0000148E
:10453000AFF0AE83E582901A8DF0EEA3F0EFA3F01A
:10454000901A8DE0FDA3E0FEA3E0901A8DE0F5F057
:10455000A3E045F0700122901A92E4F0A3F0901AC3
:10456000A2E0FBA3E0FC901A90EBF0ECA3F0901A11
:104570009474A2F0741AA3F0901A90E0FBA3E0FCEC
:104580004B60418B018C02C003C0048D008E04C3BC
:10459000E998EA9CD004D003502A901A92EBF0ECF0
:1045A000A3F074022BFBE43CFC901A94EBF0ECA318
:1045B000F08B828C83E0FBA3E0FC901A90EBF0EC94
:1045C000A3F080B4901A90E0FEA3E0FF901A8DE073
:1045D000FBA3E0FCA3E0EB24FEFBEC34FFFC740245
:1045E0002BFAE43CFD8A828D83EEF0EFA3F0901A63
:1045F00094E0F8A3E0F988828983EBF0ECA3F08BD8
:10460000828C83E0F8A3E0F9EEB50033EFB5012F1B
:1046100088828983A3A3E0FEA3E0FF8A828D83EED4
:10462000F0EFA3F08B828C83E0FEA3E0FF8E828FFD
:1046300083E0FEA3E0FF8B828C83EEF0EFA3F0908B
:104640001A92E0FEA3E0FF4E603C8E828F83E0F87A
:10465000A3E0F9E8B5032FE9B5042B8B828C83E046
:10466000FBA3E0FC8E828F83EBF0ECA3F074022EB0
:10467000FEE43FFF8A828D83E0FAA3E0FD8E828F05
:0746800083EAF0EDA3F02234
:06303500E478FFF6D8FD6F
:10468700AFF0AE83E582901A9BF0EEA3F0EFA3F0B4
:10469700901A9BE0F529A3E0F52AA3E0F52BAA29B8
:1046A700AB2AAC2B901A96E0F8A3E0F9A3E0FF90B1
:1046B7001A99E0F52CA3E0F52DAD2CAE2D152C7431
:1046C700FFB52C02152DED4E6020888289838FF06F
:1046D700125585FEA3A882A9838A828B838CF0EE6C
:1046E700124723A3AA82AB8380CF852982852A8399
:1046F700852BF022AC82AD83901A9FE0FEA3E0FFEA
:10470700BE000360121F0F901A9EE08C828D8312E9
:0C4717004723A3DEFADFF88C828D83229A
:10301300790DE94400601B7A0190630778F775A086
:103023001AE493F2A308B8000205A0D9F4DAF27502
:02303300A0FFFC
:1047230020F71130F6138883A88220F509F6A883B1
:104733007583002280FEF280F5F022901AA2748D18
:10474300F07406A3F09062FAE493FE740193FF1EE3
:10475300BEFF011FEE248DFEEF3406FF90068DEEA3
:10476300F0EFA3F0901AA2E0FEA3E0FF8E828F8306
:10477300A3A3E4F0A3F022AF83E582901AA4F0EFA1
:10478300A3F0901AA2E0F5F0A3E045F070031247FE
:104793003E901AA4E0FEA3E0FF4E600E74022EFCCE
:1047A300E43FFDC3EC9EED9F500490000022901A5D
:1047B300A474022EF0E43FA3F0901AA4E0FEA3E059
:1047C300FFC3EE9404EF94005009901AA47404F00C
:1047D300E4A3F0901AA2E0FEA3E0FF901AA6EEF085
:1047E300EFA3F0901AA874A2F0741AA3F0901AA67B
:1047F300E0FEA3E0FF4E70030248DF8E828F83E06A
:10480300FCA3E0FD8C028D038E008F01EAC398FAAE
:10481300EB99FB8A008B01901AA4E0F51CA3E0F549
:104823001DC3E8951CE9951D50030248BC7404257B
:104833001CF8E4351DF9C3EA98EB99404C8E028FBE
:1048430003E51C2AFAE51D3BFB8A828B83ECF0ED22
:10485300A3F074022AFCE43BFD8E828F83A3A3E0C2
:10486300F8A3E0F98C828D83E8F0E9A3F0901AA80D
:10487300E0FCA3E0FD8C828D83EAF0EBA3F08E8253
:104883008F83EAF0EBA3F0801C901AA8E0FCA3E06E
:10489300FD8E828F83A3A3E0FAA3E0FB8C828D833A
:1048A300EAF0EBA3F0901AA6E0FCA3E0FD74022C5F
:1048B300FCE43DFD8C828D832274022EFEE43FFFD7
:1048C300901AA8EEF0EFA3F08E828F83E0FEA3E0B0
:1048D300FF901AA6EEF0EFA3F00247F0900000223B
:1048E300AA83AB828BF0901AAAE0A4F8A9F08AF00D
:1048F300E0A429F98BF0A3E0A429F583888222227E
:10490300AF83E582901AAEF0EFA3F0901AAEE0FE0B
:10491300A3E0FF30E709C3E49EFCE49FFD80048E1F
:10492300048F05901AACE0FEA3E0FF30E709C3E46F
:104933009EFAE49FFB80048E028F03901AB0EAF084
:10494300EBA3F08C828D8312496BAE82AF83901AF6
:10495300AEE0A3E030E70CC3E49EFCE49FFD8C8251
:104963008D83228E828F8322AF83E582901AB2F0E9
:10497300EFA3F0901AB4E4F0901AB2E0FEA3E0FFC4
:104983007D00901AB0E0FBA3E0FC2354017036EBEA
:104993002BFBEC33FC901AB0EBF0ECA3F0901AB0C5
:1049A300E0FBA3E0FCC3EE9BEF9C5011ECC313CBE5
:1049B30013CBFC901AB0EBF0ECA3F080080D901A27
:1049C300B4EDF080BD901AB4E0FF901AB2E0FDA3FD
:1049D300E0FE901AB0E0FBA3E0FCC3ED9BEE9C402D
:1049E3000B901AB2EDC39BF0EE9CA3F0901AB0E0CB
:1049F300FDA3E0C313CD13CDFE901AB0EDF0EEA3EB
:104A0300F08F061FEE70C3901AB2E0FEA3E08E8211
:034A1300F5832206
:10303B007800E84400600A790075A004E4F309D82D
:10304B00FC78F7E84416600C7917900400E4F0A3C1
:04305B00D8FCD9FACA
:104A1600AF83E582901AB7F0EFA3F0901AB7E0FEE5
:104A2600A3E0FF30E709C3E49EFCE49FFD80048E0B
:104A3600048F05901AB5E0FEA3E0FF33E433FB6074
:104A460009C3E49EF9E49FFA80048E018F02901A4E
:104A5600B9E9F0EAA3F08C828D83C003124A88AECE
:104A660082AF83D003901AB7E0A3E033E4336B60E0
:104A76000CC3E49EFCE49FFD8C828D83228E828F84
:104A86008322AF83E582901ABBF0EFA3F0901ABDA4
:104A9600E4F0A3F0901AB9E0FEA3E0FF7D10901AAF
:104AA600BBE0FBA3E0FC901ABF235401F0EB2BFB09
:104AB600EC33FC901ABBEBF0ECA3F0901ABDE0FBD4
:104AC600A3E0FCEB2BFBEC33FC901ABDEBF0ECA364
:104AD600F0901ABFE06008901ABDE043E001F09044
:104AE6001ABDE0FBA3E0FCC3EB9EEC9F4013901ABB
:104AF600BDEBC39EF0EC9FA3F0901ABBE043E00130
:104B0600F0DD9B901ABBE0FEA3E08E82F58322C007
:104B1600288581287E008E83123091D02822AFF01E
:104B2600AE83E582901AC1F0EEA3F0EFA3F0901ADF
:104B3600C1E0FDA3E0FEA3E0FF901AC0E0FC901ADE
:104B4600D5E4F0A3F0A3F0901AD8EDF0EEA3F0EFC1
:104B5600A3F0901ADBECF0904B15024C69C028E5E7
:104B660081F52824FBFF901AD5E4F0A3F0A3F0E525
:104B76002824FBF8901AD8E6F008E6A3F008E6A386
:104B8600F0901ADBEFF0904B15124C69D02822E515
:104B960082901AD1F0E0FF901AC7E0C0E0A3E0C00F
:104BA600E0A3E0C0E0124BB0800D901AC5E0C0E073
:104BB600A3E0C0E08F8222158115811581901ACF5E
:104BC600E02401F0A3E03400F022E582901AD2F04E
:104BD600E02430FF24C6500D74072FFF901AC4E05E
:104BE60060034307208F82024B95E582901AD3F02B
:104BF600E0FFC4540FF582C007124BD0D00753070D
:104C06000F8F82024BD0E582901AD4F0901ACAE038
:104C1600FCA3E0FDA3E0FEA3E0FF901ACEE0FB902C
:104C26001AD4E0FA79208B00E828F529EF235401FD
:104C36004529FBEC2CFCED33FDEE33FEEF33FFC3D1
:104C4600EB9A4007EBC39AFB43040119E970D7902E
:104C56001ACAECF0EDA3F0EEA3F0EFA3F0901ACE93
:104C6600EBF022AF83E582901ADCF0EFA3F0901A06
:104C7600DCE0FEA3E0FF901AC5EEF0EFA3F0901A79
:104C8600D5E0FDA3E0FEA3E0FF901AC7EDF0EEA38A
:104C9600F0EFA3F0901ACFE4F0A3F0901AD8E0FD5D
:104CA600A3E0FEA3E0FF8D828E838FF0125585FC74
:104CB600901AD874012DF0E43EA3F0EFA3F0EC7047
:104CC60003025561BC25028003025559901ADEE4A1
:104CD600F0901ADFF0901AE0F0901AE1F0901AE2E4
:104CE600F0901AE3F0901AE4F0901AE5F0901AE7C3
:104CF600F0901AE8F0A3F0901AEA14F0A3F0901AD4
:104D0600D8E0FDA3E0FEA3E0FF8D828E838FF01234
:104D16005585FBA3AD82AE83901AD8EDF0EEA3F0D5
:104D2600EFA3F0901AEEEBF0BB25088B82124B95A1
:104D3600024CA1BB30005003024E02EB24C65003C6
:104D4600024E02901AEAE0F51EA3E0F51F74FFB5C5
:104D56001E63B51F60C005C006C007901AE8E0FADA
:104D6600A3E0FF901AAAEAF0EFA3F090000AC005AC
:104D7600C0031248E3AE82AF83D003D0058B057A19
:104D860000ED2EFEEA3FFFEE24D0FEEF34FFFF904B
:104D96001AE8EEF0EFA3F0D007D006D005901AE897
:104DA600E0F5F0A3E045F06003024D0F901ADF74C2
:104DB60001F0024D0FC005C006C007901AAAE51EF5
:104DC600F0E51FA3F090000AC006C005C003124814
:104DD600E3AA82AF83D003D005D0067E00EB2AFA81
:104DE600EE3FFFEA24D0FAEF34FFFF901AEAEAF02A
:104DF600EFA3F0D007D006D005024D0F901AEEE0D3
:104E0600FBBB2E2FC005C006C007901AEAE0FAA326
:104E1600E0FFBAFF05BFFF028009D007D006D00524
:104E2600024D0FD007D006D005901AEAE4F0A3F0A1
:104E3600024D0FBB61004014EB2485400F901AEE23
:104E460074DF5BF0901AC47401F08005901AC4E414
:104E5600F0901AEEE0FBBB20028075BB2B02806748
:104E6600BB2D028059BB4202806FBB4302807CBBD4
:104E760044030250F9BB460302511FBB4803024DCF
:104E86000FBB49030250F9BB4A03024D0FBB4C024C
:104E96008050BB4F03025107BB5003025067BB5300
:104EA600028077BB5403024D0FBB550302510FBB63
:104EB6005803025117BB5A03024D0F025127901A8D
:104EC600DE7401F0024D0F901AE07401F0024D0FEE
:104ED600901AE17401F0024D0F901AE37401F0028A
:104EE6004D0F901AE47401F0024D0F901AE3E06042
:104EF6000E901ADBE014F9F0901AEEE7F0800F90AE
:104F06001ADBE024FEFFF08F01901AEEE7F0901A0C
:104F1600EEE0F582124B95025136901ADBE024FD45
:104F2600FFF08F0187050987060987071919901A67
:104F3600CAEDF0EEA3F0EFA3F08D828E838FF01210
:104F4600556D85821E85831F901AEAE0FAA3E0FD5F
:104F5600BAFF0DBDFF0A901AEAE51EF0E51FA3F0A1
:104F6600901ADEE0704B901AE8E0FAA3E0FDC3E584
:104F76001E9AE51F9D503A901AE8EAC3951EF0ED79
:104F8600951FA3F0901AE8E0FAA3E0FD8A068D07C4
:104F96001ABAFF011DEE4F6010758220C005C002CF
:104FA600124B95D002D00580E3901AE8EAF0EDA303
:104FB600F0901AEAE0F521A3E0F522901ACAE0FA89
:104FC600A3E0FDA3E0FF8A828D838FF0125585F55D
:104FD60020603CC3E4952174808522F063F08095BF
:104FE600F0502C152174FFB521021522852082125E
:104FF6004B95901ACAE0FAA3E0FDA3E0FF0ABA00B7
:10500600010D901ACAEAF0EDA3F0EFA3F080AC9080
:105016001ADEE07003025136901AE8E0FEA3E0FFC4
:10502600C3E51E9EE51F9F4003025136901AE8EE27
:10503600C3951EF0EF951FA3F0901AE8E0FEA3E0DB
:10504600FF8E028F051EBEFF011FEA4D700302513F
:105056002E758220C007C006124B95D006D0078059
:10506600E0901ADBE024FDFDF08D018723098724FB
:105076000987251919901ACAE523F0E524A3F0E556
:1050860025A3F0901ACCE0FDBD80004008901AEEF2
:105096007443F08020BD60004008901AEE7450F012
:1050A6008013BD40004008901AEE7449F0800690C7
:1050B6001AEE7458F0901AEEE0FDF582C005124B18
:1050C6009575823A124B95758230124B957582789A
:1050D600124B95D005BD4902800EBD500280099045
:1050E6001ACBE0F582124BF0901ACAE0F582124B09
:1050F600F0803D901AE27401F0901AE7740AF0808D
:105106002F901AE77408F08027901AE7740AF08047
:105116001F901AE77410F08017901AE57401F0805A
:105126000F8B82124B958008901AE8EEF0EFA3F0F1
:10513600901AE5E06071901ADBE024FCFFF08F0125
:105146008703098705098706098707191919901A18
:10515600CAEBF0EDA3F0EEA3F0EFA3F0901ACA7439
:10516600FCF07462A3F07480A3F0901ACAE0F523F1
:10517600A3E0F524A3E0F52574012523FAE43524FC
:10518600FBAF25901ACAEAF0EBA3F0EFA3F0852354
:10519600828524838525F0125585FF7003024CA174
:1051A6008F82124B9580C3901AE7E07003024CA1E0
:1051B600901AE3E06047901ADBE014F9F087077E67
:1051C600007D007B00901ACAEFF0EEA3F0EDA3F08D
:1051D600EBA3F0901AE2E06003025279901ACAE05B
:1051E600FBA3E0A3E0A3E07D007E007F00901ACA47
:1051F600EBF0EDA3F0EEA3F0EFA3F08076901AE4C7
:10520600E06028901ADBE024FCFFF08F0187030999
:105216008705098706098707191919901ACAEBF035
:10522600EDA3F0EEA3F0EFA3F08048901ADBE024A4
:10523600FEFFF08F01870609870719EF3395E0FD1A
:10524600FB901ACAEEF0EFA3F0EDA3F0EBA3F090FB
:105256001AE2E0701E901ACAE0FBA3E0FDA3E0A3E9
:10526600E07E007F00901ACAEBF0EDA3F0EEA3F00B
:10527600EFA3F0901AE2E0603D901ACAE0A3E0A323
:10528600E0A3E030E72B901ACAE0FBA3E0FDA3E021
:10529600FEA3E0FFC3E49BFBE49DFDE49EFEE49FCA
:1052A600FF901ACAEBF0EDA3F0EEA3F0EFA3F080A7
:1052B60005901AE2E4F0901AE67401F0901AE7E01D
:1052C600F5217526F475271AE4F51EF51F901ACEFA
:1052D600E4F0852182124C0C901AE6E07033901AA5
:1052E600CEE0C454F0F523901ACEE0C4540F452303
:1052F600F523852682852783E0FFE5234207852659
:1053060082852783EFF0152674FFB52602152780C0
:105316000B901ACEE0852682852783F0051EE4B51C
:105326001E02051F901AE6E0B40100E433F0901A5D
:10533600CAE0FAA3E0FBA3E0FEA3E0FFEA4B4E4F70
:10534600708B901AF5E526F0E527A3F0901AECE5A8
:105356001EF0E51FA3F0901AE8E0F5F0A3E045F093
:105366007009901AE87401F0E4A3F0901ADFE0FFE8
:10537600E07047901ADEE07041851E26851F279053
:105386001AE8E0FAA3E0FBC007AF260F8F067F00FE
:10539600C3EE9AEF9BD0075019758220C007C00351
:1053A600C002124B95D002D003D0071ABAFF011BD8
:1053B60080D5901AE8EAF0EBA3F0901AE2E06020BC
:1053C60075822DC007124B95D007901AE8E024FF8E
:1053D600FDA3E034FFFE901AE8EDF0EEA3F0805650
:1053E600901AECE0F5F0A3E045F0604A901AE0E090
:1053F600602075822BC007124B95D007901AE8E003
:1054060024FFFDA3E034FFFE901AE8EDF0EEA3F0D2
:105416008024901AE1E0601E758220C007124B9529
:10542600D007901AE8E024FFFDA3E034FFFE901AAF
:10543600E8EDF0EEA3F0901ADEE07044901AECE08E
:10544600F526A3E0F527901AE8E0FAA3E0FBC007EB
:105456008A068B071ABAFF011BC3E5269EE5279F1E
:10546600D007504FEF60047E3080027E208E82C0CF
:1054760007C003C002124B95D002D003D00780CEDE
:10548600901AE8E0FEA3E0FF901AECE0F526A3E010
:10549600F527C3E5269EE5279F500F901AE8EEC331
:1054A6009526F0EF9527A3F08011901AE8E4F0A373
:1054B600F08008901AE8EAF0EBA3F0901AF5E0FE07
:1054C600A3E0FF901AECE0F526A3E0F527AA26ADA7
:1054D60027152674FFB526021527EA4D6044901A53
:1054E600E6E0B40100E433F0901AE6E070130EBE75
:1054F60000010F8E828F83E0C4540F901ACEF08085
:105506000E8E828F83E0FD53050F901ACEEDF0903C
:105516001ACEE0F582C007C006124BD0D006D007DF
:1055260080AB901ADEE07003024CA1901AE8E0FE10
:10553600A3E0FF8E038F051EBEFF011FEB4D700318
:10554600024CA1758220C007C006124B95D006D02A
:105556000780E08C82124B95024CA1901ACFE0FE98
:07556600A3E08E82F5832211
:0B62FC003C4E4F20464C4F41543E00EA
:10556D00AA82AB831255856003A380F8C3E5829AA6
:08557D00F582E5839BF5832212
:0D30060075812F1255A1E582600302300391
:1055850020F71430F6148883A88220F507E6A8834F
:1055950075830022E280F7E49322E02275820022DF
:00000001FF
